{
  "contractName": "NFTMarket",
  "abi": [
    {
      "anonymous": false,
      "inputs": [
        {
          "indexed": true,
          "internalType": "uint256",
          "name": "itemId",
          "type": "uint256"
        },
        {
          "indexed": true,
          "internalType": "address",
          "name": "nftContract",
          "type": "address"
        },
        {
          "indexed": true,
          "internalType": "uint256",
          "name": "tokenId",
          "type": "uint256"
        },
        {
          "indexed": false,
          "internalType": "address",
          "name": "owner",
          "type": "address"
        },
        {
          "indexed": false,
          "internalType": "uint256",
          "name": "price",
          "type": "uint256"
        },
        {
          "indexed": false,
          "internalType": "bool",
          "name": "sold",
          "type": "bool"
        }
      ],
      "name": "MarketItemCreated",
      "type": "event"
    },
    {
      "anonymous": false,
      "inputs": [
        {
          "indexed": true,
          "internalType": "address",
          "name": "previousOwner",
          "type": "address"
        },
        {
          "indexed": true,
          "internalType": "address",
          "name": "newOwner",
          "type": "address"
        }
      ],
      "name": "OwnershipTransferred",
      "type": "event"
    },
    {
      "anonymous": false,
      "inputs": [
        {
          "indexed": false,
          "internalType": "uint256",
          "name": "id",
          "type": "uint256"
        },
        {
          "indexed": false,
          "internalType": "address",
          "name": "_orgAddress",
          "type": "address"
        },
        {
          "indexed": false,
          "internalType": "string",
          "name": "_orgName",
          "type": "string"
        }
      ],
      "name": "newOrgCreated",
      "type": "event"
    },
    {
      "anonymous": false,
      "inputs": [
        {
          "indexed": false,
          "internalType": "uint256",
          "name": "id",
          "type": "uint256"
        },
        {
          "indexed": false,
          "internalType": "address",
          "name": "_orgAddress",
          "type": "address"
        },
        {
          "indexed": false,
          "internalType": "string",
          "name": "_orgName",
          "type": "string"
        }
      ],
      "name": "orgDeleted",
      "type": "event"
    },
    {
      "inputs": [],
      "name": "owner",
      "outputs": [
        {
          "internalType": "address",
          "name": "",
          "type": "address"
        }
      ],
      "stateMutability": "view",
      "type": "function"
    },
    {
      "inputs": [],
      "name": "renounceOwnership",
      "outputs": [],
      "stateMutability": "nonpayable",
      "type": "function"
    },
    {
      "inputs": [
        {
          "internalType": "address",
          "name": "newOwner",
          "type": "address"
        }
      ],
      "name": "transferOwnership",
      "outputs": [],
      "stateMutability": "nonpayable",
      "type": "function"
    },
    {
      "inputs": [
        {
          "internalType": "address",
          "name": "_orgAddress",
          "type": "address"
        },
        {
          "internalType": "string",
          "name": "_orgName",
          "type": "string"
        }
      ],
      "name": "addOrganization",
      "outputs": [
        {
          "internalType": "uint256",
          "name": "",
          "type": "uint256"
        }
      ],
      "stateMutability": "nonpayable",
      "type": "function"
    },
    {
      "inputs": [
        {
          "internalType": "uint256",
          "name": "_tokenId",
          "type": "uint256"
        }
      ],
      "name": "deleteOrgainzation",
      "outputs": [],
      "stateMutability": "nonpayable",
      "type": "function"
    },
    {
      "inputs": [
        {
          "internalType": "uint256",
          "name": "_tokenId",
          "type": "uint256"
        }
      ],
      "name": "getOrgAddressById",
      "outputs": [
        {
          "internalType": "address",
          "name": "",
          "type": "address"
        }
      ],
      "stateMutability": "view",
      "type": "function"
    },
    {
      "inputs": [],
      "name": "fetchOrganization",
      "outputs": [
        {
          "components": [
            {
              "internalType": "uint256",
              "name": "id",
              "type": "uint256"
            },
            {
              "internalType": "address",
              "name": "orgAddress",
              "type": "address"
            },
            {
              "internalType": "string",
              "name": "name",
              "type": "string"
            }
          ],
          "internalType": "struct NFTMarket.Organization[]",
          "name": "",
          "type": "tuple[]"
        }
      ],
      "stateMutability": "view",
      "type": "function"
    },
    {
      "inputs": [],
      "name": "getListingPrice",
      "outputs": [
        {
          "internalType": "uint256",
          "name": "",
          "type": "uint256"
        }
      ],
      "stateMutability": "view",
      "type": "function"
    },
    {
      "inputs": [
        {
          "internalType": "uint256",
          "name": "_newListingPrice",
          "type": "uint256"
        }
      ],
      "name": "setListingPrice",
      "outputs": [],
      "stateMutability": "nonpayable",
      "type": "function"
    },
    {
      "inputs": [
        {
          "internalType": "address",
          "name": "nftContract",
          "type": "address"
        },
        {
          "internalType": "uint256",
          "name": "tokenId",
          "type": "uint256"
        },
        {
          "internalType": "uint256",
          "name": "price",
          "type": "uint256"
        },
        {
          "internalType": "address",
          "name": "_donateToWho",
          "type": "address"
        }
      ],
      "name": "createMarketItem",
      "outputs": [],
      "stateMutability": "payable",
      "type": "function"
    },
    {
      "inputs": [
        {
          "internalType": "address",
          "name": "nftContract",
          "type": "address"
        },
        {
          "internalType": "uint256",
          "name": "_itemId",
          "type": "uint256"
        }
      ],
      "name": "createMarketSale",
      "outputs": [],
      "stateMutability": "payable",
      "type": "function"
    },
    {
      "inputs": [],
      "name": "fetchMarketItems",
      "outputs": [
        {
          "components": [
            {
              "internalType": "uint256",
              "name": "itemId",
              "type": "uint256"
            },
            {
              "internalType": "address",
              "name": "nftContract",
              "type": "address"
            },
            {
              "internalType": "uint256",
              "name": "tokenId",
              "type": "uint256"
            },
            {
              "internalType": "address payable",
              "name": "owner",
              "type": "address"
            },
            {
              "internalType": "uint256",
              "name": "price",
              "type": "uint256"
            },
            {
              "internalType": "bool",
              "name": "sold",
              "type": "bool"
            },
            {
              "internalType": "address payable",
              "name": "donateTo",
              "type": "address"
            }
          ],
          "internalType": "struct NFTMarket.MarketItem[]",
          "name": "",
          "type": "tuple[]"
        }
      ],
      "stateMutability": "view",
      "type": "function"
    },
    {
      "inputs": [],
      "name": "fetchMyNFTs",
      "outputs": [
        {
          "components": [
            {
              "internalType": "uint256",
              "name": "itemId",
              "type": "uint256"
            },
            {
              "internalType": "address",
              "name": "nftContract",
              "type": "address"
            },
            {
              "internalType": "uint256",
              "name": "tokenId",
              "type": "uint256"
            },
            {
              "internalType": "address payable",
              "name": "owner",
              "type": "address"
            },
            {
              "internalType": "uint256",
              "name": "price",
              "type": "uint256"
            },
            {
              "internalType": "bool",
              "name": "sold",
              "type": "bool"
            },
            {
              "internalType": "address payable",
              "name": "donateTo",
              "type": "address"
            }
          ],
          "internalType": "struct NFTMarket.MarketItem[]",
          "name": "",
          "type": "tuple[]"
        }
      ],
      "stateMutability": "view",
      "type": "function"
    }
  ],
  "bytecode": "0x60806040526611c37937e080006006553480156200001c57600080fd5b50600160008190555062000045620000396200004b60201b60201c565b6200005360201b60201c565b62000119565b600033905090565b6000600160009054906101000a900473ffffffffffffffffffffffffffffffffffffffff16905081600160006101000a81548173ffffffffffffffffffffffffffffffffffffffff021916908373ffffffffffffffffffffffffffffffffffffffff1602179055508173ffffffffffffffffffffffffffffffffffffffff168173ffffffffffffffffffffffffffffffffffffffff167f8be0079c531659141344cd1fd0a4f28419497f9722a3daafe3b4186f6b6457e060405160405180910390a35050565b6127f580620001296000396000f3fe6080604052600436106100c25760003560e01c80637c726b691161007f578063b6cbb28f11610059578063b6cbb28f14610249578063c23b139e14610272578063c7f5a99b1461028e578063f2fde38b146102b9576100c2565b80637c726b69146101d95780638da5cb5b14610202578063b37654a71461022d576100c2565b80630f08efe0146100c757806312e85585146100f2578063202e37401461011d5780635296598c146101485780636867478a14610185578063715018a6146101c2575b600080fd5b3480156100d357600080fd5b506100dc6102e2565b6040516100e9919061203d565b60405180910390f35b3480156100fe57600080fd5b506101076105dc565b6040516101149190612141565b60405180910390f35b34801561012957600080fd5b506101326105e6565b60405161013f919061203d565b60405180910390f35b34801561015457600080fd5b5061016f600480360381019061016a9190611b7d565b610926565b60405161017c9190611fb4565b60405180910390f35b34801561019157600080fd5b506101ac60048036038101906101a79190611a7a565b610966565b6040516101b99190612141565b60405180910390f35b3480156101ce57600080fd5b506101d7610af6565b005b3480156101e557600080fd5b5061020060048036038101906101fb9190611b7d565b610b7e565b005b34801561020e57600080fd5b50610217610c04565b6040516102249190611fb4565b60405180910390f35b61024760048036038101906102429190611b16565b610c2e565b005b34801561025557600080fd5b50610270600480360381019061026b9190611b7d565b610fdd565b005b61028c60048036038101906102879190611ad6565b611137565b005b34801561029a57600080fd5b506102a361143e565b6040516102b0919061205f565b60405180910390f35b3480156102c557600080fd5b506102e060048036038101906102db9190611a4d565b61162e565b005b606060006102f06002611726565b905060006102fe6003611726565b6103086004611726565b61031291906123c3565b90506000808267ffffffffffffffff811115610331576103306125fb565b5b60405190808252806020026020018201604052801561036a57816020015b610357611818565b81526020019060019003908161034f5790505b50905060005b848110156105d1573373ffffffffffffffffffffffffffffffffffffffff166007600083815260200190815260200160002060030160009054906101000a900473ffffffffffffffffffffffffffffffffffffffff1673ffffffffffffffffffffffffffffffffffffffff161480156104105750600015156007600083815260200190815260200160002060050160009054906101000a900460ff161515145b156105be576000600760008381526020019081526020016000206000015490506000600760008381526020019081526020016000209050806040518060e0016040529081600082015481526020016001820160009054906101000a900473ffffffffffffffffffffffffffffffffffffffff1673ffffffffffffffffffffffffffffffffffffffff1673ffffffffffffffffffffffffffffffffffffffff168152602001600282015481526020016003820160009054906101000a900473ffffffffffffffffffffffffffffffffffffffff1673ffffffffffffffffffffffffffffffffffffffff1673ffffffffffffffffffffffffffffffffffffffff168152602001600482015481526020016005820160009054906101000a900460ff161515151581526020016005820160019054906101000a900473ffffffffffffffffffffffffffffffffffffffff1673ffffffffffffffffffffffffffffffffffffffff1673ffffffffffffffffffffffffffffffffffffffff16815250508486815181106105a1576105a06125cc565b5b60200260200101819052506001856105b991906122e2565b945050505b80806105c9906124f6565b915050610370565b508094505050505090565b6000600654905090565b606060006105f46002611726565b905060008060005b83811015610691573373ffffffffffffffffffffffffffffffffffffffff166007600083815260200190815260200160002060030160009054906101000a900473ffffffffffffffffffffffffffffffffffffffff1673ffffffffffffffffffffffffffffffffffffffff16141561067e5760018361067b91906122e2565b92505b8080610689906124f6565b9150506105fc565b5060008267ffffffffffffffff8111156106ae576106ad6125fb565b5b6040519080825280602002602001820160405280156106e757816020015b6106d4611818565b8152602001906001900390816106cc5790505b50905060005b8481101561091b573373ffffffffffffffffffffffffffffffffffffffff166007600083815260200190815260200160002060030160009054906101000a900473ffffffffffffffffffffffffffffffffffffffff1673ffffffffffffffffffffffffffffffffffffffff161415610908576000600760008381526020019081526020016000206000015490506000600760008381526020019081526020016000209050806040518060e0016040529081600082015481526020016001820160009054906101000a900473ffffffffffffffffffffffffffffffffffffffff1673ffffffffffffffffffffffffffffffffffffffff1673ffffffffffffffffffffffffffffffffffffffff168152602001600282015481526020016003820160009054906101000a900473ffffffffffffffffffffffffffffffffffffffff1673ffffffffffffffffffffffffffffffffffffffff1673ffffffffffffffffffffffffffffffffffffffff168152602001600482015481526020016005820160009054906101000a900460ff161515151581526020016005820160019054906101000a900473ffffffffffffffffffffffffffffffffffffffff1673ffffffffffffffffffffffffffffffffffffffff1673ffffffffffffffffffffffffffffffffffffffff16815250508486815181106108eb576108ea6125cc565b5b602002602001018190525060018561090391906122e2565b945050505b8080610913906124f6565b9150506106ed565b508094505050505090565b60006008600083815260200190815260200160002060010160009054906101000a900473ffffffffffffffffffffffffffffffffffffffff169050919050565b6000610970611734565b73ffffffffffffffffffffffffffffffffffffffff1661098e610c04565b73ffffffffffffffffffffffffffffffffffffffff16146109e4576040517f08c379a00000000000000000000000000000000000000000000000000000000081526004016109db906120c1565b60405180910390fd5b60006109f06005611726565b905060405180606001604052808281526020018573ffffffffffffffffffffffffffffffffffffffff16815260200184815250600860008381526020019081526020016000206000820151816000015560208201518160010160006101000a81548173ffffffffffffffffffffffffffffffffffffffff021916908373ffffffffffffffffffffffffffffffffffffffff1602179055506040820151816002019080519060200190610aa3929190611899565b509050507f8e3149d65a2b302cac071680086a826a48959636bf6abecb36e151b419621f75818585604051610ada9392919061215c565b60405180910390a1610aec600561173c565b8091505092915050565b610afe611734565b73ffffffffffffffffffffffffffffffffffffffff16610b1c610c04565b73ffffffffffffffffffffffffffffffffffffffff1614610b72576040517f08c379a0000000000000000000000000000000000000000000000000000000008152600401610b69906120c1565b60405180910390fd5b610b7c6000611752565b565b610b86611734565b73ffffffffffffffffffffffffffffffffffffffff16610ba4610c04565b73ffffffffffffffffffffffffffffffffffffffff1614610bfa576040517f08c379a0000000000000000000000000000000000000000000000000000000008152600401610bf1906120c1565b60405180910390fd5b8060068190555050565b6000600160009054906101000a900473ffffffffffffffffffffffffffffffffffffffff16905090565b60026000541415610c74576040517f08c379a0000000000000000000000000000000000000000000000000000000008152600401610c6b90612101565b60405180910390fd5b600260008190555060008211610cbf576040517f08c379a0000000000000000000000000000000000000000000000000000000008152600401610cb6906120a1565b60405180910390fd5b6006543414610d03576040517f08c379a0000000000000000000000000000000000000000000000000000000008152600401610cfa906120e1565b60405180910390fd5b6000610d0f6002611726565b90506040518060e001604052808281526020018673ffffffffffffffffffffffffffffffffffffffff1681526020018581526020013373ffffffffffffffffffffffffffffffffffffffff1681526020018481526020016000151581526020018373ffffffffffffffffffffffffffffffffffffffff16815250600760008381526020019081526020016000206000820151816000015560208201518160010160006101000a81548173ffffffffffffffffffffffffffffffffffffffff021916908373ffffffffffffffffffffffffffffffffffffffff1602179055506040820151816002015560608201518160030160006101000a81548173ffffffffffffffffffffffffffffffffffffffff021916908373ffffffffffffffffffffffffffffffffffffffff1602179055506080820151816004015560a08201518160050160006101000a81548160ff02191690831515021790555060c08201518160050160016101000a81548173ffffffffffffffffffffffffffffffffffffffff021916908373ffffffffffffffffffffffffffffffffffffffff1602179055509050508473ffffffffffffffffffffffffffffffffffffffff166323b872dd3330876040518463ffffffff1660e01b8152600401610eef93929190611fcf565b600060405180830381600087803b158015610f0957600080fd5b505af1158015610f1d573d6000803e3d6000fd5b50505050610f2b600261173c565b610f33610c04565b73ffffffffffffffffffffffffffffffffffffffff166108fc349081150290604051600060405180830381858888f19350505050158015610f78573d6000803e3d6000fd5b50838573ffffffffffffffffffffffffffffffffffffffff16827f3a703684ac0e06cbc245a465cb3c43faf40a53aff175518595f6aac9d61afe6333876000604051610fc693929190612006565b60405180910390a450600160008190555050505050565b610fe5611734565b73ffffffffffffffffffffffffffffffffffffffff16611003610c04565b73ffffffffffffffffffffffffffffffffffffffff1614611059576040517f08c379a0000000000000000000000000000000000000000000000000000000008152600401611050906120c1565b60405180910390fd5b7f8e3149d65a2b302cac071680086a826a48959636bf6abecb36e151b419621f75816008600084815260200190815260200160002060010160009054906101000a900473ffffffffffffffffffffffffffffffffffffffff16600860008581526020019081526020016000206002016040516110d79392919061219a565b60405180910390a1600860008281526020019081526020016000206000808201600090556001820160006101000a81549073ffffffffffffffffffffffffffffffffffffffff0219169055600282016000611132919061191f565b505050565b6002600054141561117d576040517f08c379a000000000000000000000000000000000000000000000000000000000815260040161117490612101565b60405180910390fd5b60026000819055506000600760008381526020019081526020016000206004015490506000600760008481526020019081526020016000206002015490508134146111fd576040517f08c379a00000000000000000000000000000000000000000000000000000000081526004016111f490612121565b60405180910390fd5b60006001600a3461120e9190612338565b6112189190612369565b905060006009600a3461122b9190612338565b6112359190612369565b90506007600086815260200190815260200160002060030160009054906101000a900473ffffffffffffffffffffffffffffffffffffffff1673ffffffffffffffffffffffffffffffffffffffff166108fc839081150290604051600060405180830381858888f193505050501580156112b3573d6000803e3d6000fd5b506007600086815260200190815260200160002060050160019054906101000a900473ffffffffffffffffffffffffffffffffffffffff1673ffffffffffffffffffffffffffffffffffffffff166108fc829081150290604051600060405180830381858888f19350505050158015611330573d6000803e3d6000fd5b508573ffffffffffffffffffffffffffffffffffffffff166323b872dd3033866040518463ffffffff1660e01b815260040161136e93929190611fcf565b600060405180830381600087803b15801561138857600080fd5b505af115801561139c573d6000803e3d6000fd5b50505050336007600087815260200190815260200160002060030160006101000a81548173ffffffffffffffffffffffffffffffffffffffff021916908373ffffffffffffffffffffffffffffffffffffffff16021790555060016007600087815260200190815260200160002060050160006101000a81548160ff02191690831515021790555061142e600361173c565b5050505060016000819055505050565b6060600061144c6005611726565b90506000808267ffffffffffffffff81111561146b5761146a6125fb565b5b6040519080825280602002602001820160405280156114a457816020015b61149161195f565b8152602001906001900390816114895790505b50905060005b8381101561162457600060086000838152602001908152602001600020600001549050600060086000838152602001908152602001600020905080604051806060016040529081600082015481526020016001820160009054906101000a900473ffffffffffffffffffffffffffffffffffffffff1673ffffffffffffffffffffffffffffffffffffffff1673ffffffffffffffffffffffffffffffffffffffff16815260200160028201805461156090612493565b80601f016020809104026020016040519081016040528092919081815260200182805461158c90612493565b80156115d95780601f106115ae576101008083540402835291602001916115d9565b820191906000526020600020905b8154815290600101906020018083116115bc57829003601f168201915b5050505050815250508486815181106115f5576115f46125cc565b5b602002602001018190525060018561160d91906122e2565b94505050808061161c906124f6565b9150506114aa565b5080935050505090565b611636611734565b73ffffffffffffffffffffffffffffffffffffffff16611654610c04565b73ffffffffffffffffffffffffffffffffffffffff16146116aa576040517f08c379a00000000000000000000000000000000000000000000000000000000081526004016116a1906120c1565b60405180910390fd5b600073ffffffffffffffffffffffffffffffffffffffff168173ffffffffffffffffffffffffffffffffffffffff16141561171a576040517f08c379a000000000000000000000000000000000000000000000000000000000815260040161171190612081565b60405180910390fd5b61172381611752565b50565b600081600001549050919050565b600033905090565b6001816000016000828254019250508190555050565b6000600160009054906101000a900473ffffffffffffffffffffffffffffffffffffffff16905081600160006101000a81548173ffffffffffffffffffffffffffffffffffffffff021916908373ffffffffffffffffffffffffffffffffffffffff1602179055508173ffffffffffffffffffffffffffffffffffffffff168173ffffffffffffffffffffffffffffffffffffffff167f8be0079c531659141344cd1fd0a4f28419497f9722a3daafe3b4186f6b6457e060405160405180910390a35050565b6040518060e0016040528060008152602001600073ffffffffffffffffffffffffffffffffffffffff16815260200160008152602001600073ffffffffffffffffffffffffffffffffffffffff16815260200160008152602001600015158152602001600073ffffffffffffffffffffffffffffffffffffffff1681525090565b8280546118a590612493565b90600052602060002090601f0160209004810192826118c7576000855561190e565b82601f106118e057805160ff191683800117855561190e565b8280016001018555821561190e579182015b8281111561190d5782518255916020019190600101906118f2565b5b50905061191b9190611996565b5090565b50805461192b90612493565b6000825580601f1061193d575061195c565b601f01602090049060005260206000209081019061195b9190611996565b5b50565b604051806060016040528060008152602001600073ffffffffffffffffffffffffffffffffffffffff168152602001606081525090565b5b808211156119af576000816000905550600101611997565b5090565b60006119c66119c1846121fd565b6121d8565b9050828152602081018484840111156119e2576119e161262f565b5b6119ed848285612451565b509392505050565b600081359050611a0481612791565b92915050565b600082601f830112611a1f57611a1e61262a565b5b8135611a2f8482602086016119b3565b91505092915050565b600081359050611a47816127a8565b92915050565b600060208284031215611a6357611a62612639565b5b6000611a71848285016119f5565b91505092915050565b60008060408385031215611a9157611a90612639565b5b6000611a9f858286016119f5565b925050602083013567ffffffffffffffff811115611ac057611abf612634565b5b611acc85828601611a0a565b9150509250929050565b60008060408385031215611aed57611aec612639565b5b6000611afb858286016119f5565b9250506020611b0c85828601611a38565b9150509250929050565b60008060008060808587031215611b3057611b2f612639565b5b6000611b3e878288016119f5565b9450506020611b4f87828801611a38565b9350506040611b6087828801611a38565b9250506060611b71878288016119f5565b91505092959194509250565b600060208284031215611b9357611b92612639565b5b6000611ba184828501611a38565b91505092915050565b6000611bb68383611eb8565b60e08301905092915050565b6000611bce8383611f46565b905092915050565b611bdf81612409565b82525050565b611bee816123f7565b82525050565b611bfd816123f7565b82525050565b6000611c0e82612263565b611c18818561229e565b9350611c238361222e565b8060005b83811015611c54578151611c3b8882611baa565b9750611c4683612284565b925050600181019050611c27565b5085935050505092915050565b6000611c6c8261226e565b611c7681856122af565b935083602082028501611c888561223e565b8060005b85811015611cc45784840389528151611ca58582611bc2565b9450611cb083612291565b925060208a01995050600181019050611c8c565b50829750879550505050505092915050565b611cdf8161241b565b82525050565b611cee8161241b565b82525050565b6000611cff82612279565b611d0981856122c0565b9350611d19818560208601612460565b611d228161263e565b840191505092915050565b6000611d3882612279565b611d4281856122d1565b9350611d52818560208601612460565b611d5b8161263e565b840191505092915050565b60008154611d7381612493565b611d7d81866122d1565b94506001821660008114611d985760018114611daa57611ddd565b60ff1983168652602086019350611ddd565b611db38561224e565b60005b83811015611dd557815481890152600182019150602081019050611db6565b808801955050505b50505092915050565b6000611df36026836122d1565b9150611dfe8261264f565b604082019050919050565b6000611e16601f836122d1565b9150611e218261269e565b602082019050919050565b6000611e396020836122d1565b9150611e44826126c7565b602082019050919050565b6000611e5c6021836122d1565b9150611e67826126f0565b604082019050919050565b6000611e7f601f836122d1565b9150611e8a8261273f565b602082019050919050565b6000611ea26017836122d1565b9150611ead82612768565b602082019050919050565b60e082016000820151611ece6000850182611f96565b506020820151611ee16020850182611be5565b506040820151611ef46040850182611f96565b506060820151611f076060850182611bd6565b506080820151611f1a6080850182611f96565b5060a0820151611f2d60a0850182611cd6565b5060c0820151611f4060c0850182611bd6565b50505050565b6000606083016000830151611f5e6000860182611f96565b506020830151611f716020860182611be5565b5060408301518482036040860152611f898282611cf4565b9150508091505092915050565b611f9f81612447565b82525050565b611fae81612447565b82525050565b6000602082019050611fc96000830184611bf4565b92915050565b6000606082019050611fe46000830186611bf4565b611ff16020830185611bf4565b611ffe6040830184611fa5565b949350505050565b600060608201905061201b6000830186611bf4565b6120286020830185611fa5565b6120356040830184611ce5565b949350505050565b600060208201905081810360008301526120578184611c03565b905092915050565b600060208201905081810360008301526120798184611c61565b905092915050565b6000602082019050818103600083015261209a81611de6565b9050919050565b600060208201905081810360008301526120ba81611e09565b9050919050565b600060208201905081810360008301526120da81611e2c565b9050919050565b600060208201905081810360008301526120fa81611e4f565b9050919050565b6000602082019050818103600083015261211a81611e72565b9050919050565b6000602082019050818103600083015261213a81611e95565b9050919050565b60006020820190506121566000830184611fa5565b92915050565b60006060820190506121716000830186611fa5565b61217e6020830185611bf4565b81810360408301526121908184611d2d565b9050949350505050565b60006060820190506121af6000830186611fa5565b6121bc6020830185611bf4565b81810360408301526121ce8184611d66565b9050949350505050565b60006121e26121f3565b90506121ee82826124c5565b919050565b6000604051905090565b600067ffffffffffffffff821115612218576122176125fb565b5b6122218261263e565b9050602081019050919050565b6000819050602082019050919050565b6000819050602082019050919050565b60008190508160005260206000209050919050565b600081519050919050565b600081519050919050565b600081519050919050565b6000602082019050919050565b6000602082019050919050565b600082825260208201905092915050565b600082825260208201905092915050565b600082825260208201905092915050565b600082825260208201905092915050565b60006122ed82612447565b91506122f883612447565b9250827fffffffffffffffffffffffffffffffffffffffffffffffffffffffffffffffff0382111561232d5761232c61253f565b5b828201905092915050565b600061234382612447565b915061234e83612447565b92508261235e5761235d61256e565b5b828204905092915050565b600061237482612447565b915061237f83612447565b9250817fffffffffffffffffffffffffffffffffffffffffffffffffffffffffffffffff04831182151516156123b8576123b761253f565b5b828202905092915050565b60006123ce82612447565b91506123d983612447565b9250828210156123ec576123eb61253f565b5b828203905092915050565b600061240282612427565b9050919050565b600061241482612427565b9050919050565b60008115159050919050565b600073ffffffffffffffffffffffffffffffffffffffff82169050919050565b6000819050919050565b82818337600083830152505050565b60005b8381101561247e578082015181840152602081019050612463565b8381111561248d576000848401525b50505050565b600060028204905060018216806124ab57607f821691505b602082108114156124bf576124be61259d565b5b50919050565b6124ce8261263e565b810181811067ffffffffffffffff821117156124ed576124ec6125fb565b5b80604052505050565b600061250182612447565b91507fffffffffffffffffffffffffffffffffffffffffffffffffffffffffffffffff8214156125345761253361253f565b5b600182019050919050565b7f4e487b7100000000000000000000000000000000000000000000000000000000600052601160045260246000fd5b7f4e487b7100000000000000000000000000000000000000000000000000000000600052601260045260246000fd5b7f4e487b7100000000000000000000000000000000000000000000000000000000600052602260045260246000fd5b7f4e487b7100000000000000000000000000000000000000000000000000000000600052603260045260246000fd5b7f4e487b7100000000000000000000000000000000000000000000000000000000600052604160045260246000fd5b600080fd5b600080fd5b600080fd5b600080fd5b6000601f19601f8301169050919050565b7f4f776e61626c653a206e6577206f776e657220697320746865207a65726f206160008201527f6464726573730000000000000000000000000000000000000000000000000000602082015250565b7f5072696365206d75737420626520686967686572207468616e20302077656900600082015250565b7f4f776e61626c653a2063616c6c6572206973206e6f7420746865206f776e6572600082015250565b7f5072696365206d75736820626520657175616c20746f206c697374207072696360008201527f6500000000000000000000000000000000000000000000000000000000000000602082015250565b7f5265656e7472616e637947756172643a207265656e7472616e742063616c6c00600082015250565b7f646f6573206e6f7420657175616c20746f207072696365000000000000000000600082015250565b61279a816123f7565b81146127a557600080fd5b50565b6127b181612447565b81146127bc57600080fd5b5056fea26469706673582212203a3b5b4307b1027ad5d8988f034c79b994314de92ab454c89683f2630b300d6c64736f6c63430008070033",
  "immutableReferences": {},
  "source": "// SPDX-License-Identifier: MIT\r\npragma solidity ^0.8.0;\r\n\r\nimport \"@openzeppelin/contracts/utils/Counters.sol\";\r\nimport \"@openzeppelin/contracts/security/ReentrancyGuard.sol\";\r\nimport \"@openzeppelin/contracts/token/ERC721/ERC721.sol\";\r\nimport \"@openzeppelin/contracts/access/Ownable.sol\";\r\n\r\ncontract NFTMarket is ReentrancyGuard, Ownable {\r\n    using Counters for Counters.Counter;\r\n    Counters.Counter private _itemIds;\r\n    Counters.Counter private _itemsSold;\r\n    Counters.Counter private _itemsOnSale;\r\n    Counters.Counter private _OrgIds;\r\n\r\n    uint256 private listingPrice = 0.005 ether;\r\n\r\n    // define DonationItem struct\r\n    struct MarketItem {\r\n        uint itemId;\r\n        address nftContract;\r\n        uint256 tokenId;\r\n        address payable owner;\r\n        uint256 price;\r\n        bool sold;\r\n        address payable donateTo;\r\n    }\r\n    // define Organization struct\r\n    struct Organization{\r\n        uint256 id;\r\n        address orgAddress;\r\n        string name;\r\n    }\r\n\r\n    // map item token id to Donation Item\r\n    mapping(uint256 => MarketItem) private idToMarketItem;\r\n    mapping(uint256 => Organization) private idToOrgainzations;\r\n\r\n    //event when New Dontation Item is created\r\n    event MarketItemCreated (\r\n        uint indexed itemId,\r\n        address indexed nftContract,\r\n        uint256 indexed tokenId,\r\n        address owner,\r\n        uint256 price,\r\n        bool sold\r\n    );\r\n    //event when new Organizaion is created\r\n    event newOrgCreated(\r\n        uint256 id, \r\n        address _orgAddress, \r\n        string _orgName\r\n        );\r\n    //event when exist organization is deleted\r\n    event orgDeleted(\r\n        uint256 id, \r\n        address _orgAddress, \r\n        string _orgName\r\n    );\r\n    // add an Organization \r\n    function addOrganization(address _orgAddress, string memory _orgName) public onlyOwner returns(uint256){\r\n        //get orgId of current\r\n        uint256 newTokenId = _OrgIds.current();\r\n        //set if to Organization\r\n        idToOrgainzations[newTokenId] = Organization(newTokenId, _orgAddress, _orgName);\r\n        //emit newOrgCreated event\r\n        emit newOrgCreated(newTokenId, _orgAddress, _orgName);\r\n        //increase orgId \r\n        _OrgIds.increment();\r\n        //return for front-end\r\n        return newTokenId;\r\n    }\r\n    //delete an Organization\r\n    function deleteOrgainzation(uint256 _tokenId) public onlyOwner{\r\n        //require(idToOrgainzations[_tokenId],\"This orgization does not exist\");\r\n        emit newOrgCreated(_tokenId, idToOrgainzations[_tokenId].orgAddress, idToOrgainzations[_tokenId].name);\r\n        delete idToOrgainzations[_tokenId];\r\n        \r\n    }\r\n    //get Organization address by id\r\n    function getOrgAddressById(uint256 _tokenId) public view returns(address){\r\n        return idToOrgainzations[_tokenId].orgAddress;\r\n    }\r\n\r\n    //fetch all organization\r\n    function fetchOrganization() public view returns(Organization[] memory){\r\n        uint totalNumOfOrg = _OrgIds.current();\r\n        uint currentIndex = 0;\r\n        Organization[] memory orgs = new Organization[](totalNumOfOrg);\r\n        \r\n        for(uint i=0; i<totalNumOfOrg; i++){\r\n            uint currentId = idToOrgainzations[i].id;\r\n            Organization storage currentOrg = idToOrgainzations [currentId];\r\n            orgs[currentIndex] = currentOrg;\r\n            currentIndex += 1;\r\n        }\r\n        return orgs;\r\n    }\r\n////////////////////////////////////////////////////////////////////////////////////////////////\r\n    /* Returns the listing price of the contract */\r\n    function getListingPrice() public view returns (uint256) {\r\n        return listingPrice;\r\n    }\r\n    // Setting New Listing Price around 1500 won\r\n    function setListingPrice(uint _newListingPrice) public onlyOwner {\r\n        listingPrice = _newListingPrice;\r\n    }\r\n    // Creating a new Donation Item\r\n    function createMarketItem(\r\n        address nftContract, \r\n        uint256 tokenId, \r\n        uint256 price,\r\n        address _donateToWho   \r\n    ) public payable nonReentrant {\r\n        require(price > 0, \"Price must be higher than 0 wei\");\r\n        require(msg.value == listingPrice,\"Price mush be equal to list price\");\r\n        \r\n        uint256 itemId = _itemIds.current();\r\n        idToMarketItem[itemId] = MarketItem(\r\n            itemId,\r\n            nftContract,\r\n            tokenId,\r\n            payable(msg.sender),\r\n            price,\r\n            false,\r\n            payable(_donateToWho)\r\n        );\r\n\r\n        IERC721(nftContract).transferFrom(msg.sender, address(this), tokenId);\r\n        _itemIds.increment();\r\n        payable(owner()).transfer(msg.value);\r\n        emit MarketItemCreated(\r\n            itemId, \r\n            nftContract, \r\n            tokenId, \r\n            msg.sender, \r\n            price, \r\n            false\r\n        );\r\n    }\r\n\r\n    //Sell Item\r\n    function createMarketSale(\r\n        address nftContract, \r\n        uint256 _itemId\r\n    ) public payable nonReentrant {\r\n        //get item Price\r\n        uint price = idToMarketItem[_itemId].price;\r\n        //get item Id\r\n        uint tokenId = idToMarketItem[_itemId].tokenId;\r\n        //check Item price is equal to mag.value\r\n        require(msg.value == price,\"does not equal to price\");\r\n        //calculate ethers to owner\r\n        uint priceToOwner = (msg.value)/10 * 1;\r\n        //calculate ethers to Org\r\n        uint priceToOrg = ((msg.value)/10) * 9;\r\n        //send ethers to owner and donated Org\r\n        idToMarketItem[_itemId].owner.transfer(priceToOwner);\r\n        idToMarketItem[_itemId].donateTo.transfer(priceToOrg);\r\n        //change the ownership of token to buyer\r\n        IERC721(nftContract).transferFrom(address(this), msg.sender, tokenId);\r\n        idToMarketItem[_itemId].owner = payable(msg.sender);\r\n        idToMarketItem[_itemId].sold = true;\r\n        _itemsSold.increment();\r\n        //payable(owner).transfer(listingPrice);\r\n    }\r\n\r\n    //fetch marketItem for frontEnd\r\n    function fetchMarketItems() public view returns (MarketItem[] memory){\r\n        uint itemCount = _itemIds.current();\r\n        uint unsoldItemCount = _itemsOnSale.current() - _itemsSold.current();\r\n        uint currentIndex = 0;\r\n        \r\n        MarketItem[] memory items = new MarketItem[](unsoldItemCount);\r\n        for(uint i=0;i<itemCount;i++){\r\n            if(idToMarketItem[i].owner == msg.sender && idToMarketItem[i].sold == false){\r\n                uint currentId = idToMarketItem[i].itemId;\r\n                MarketItem storage currentItem = idToMarketItem [currentId];\r\n                items[currentIndex] = currentItem;\r\n                currentIndex += 1;\r\n            }\r\n        }\r\n        return items;\r\n    }\r\n\r\n    function fetchMyNFTs() public view returns (MarketItem[] memory){\r\n        uint totalItemCount = _itemIds.current();\r\n        uint itemCount = 0;\r\n        uint currentIndex = 0;\r\n        for(uint i = 0; i<totalItemCount; i++){\r\n            if(idToMarketItem[i].owner == msg.sender){\r\n                itemCount += 1;\r\n            }\r\n        }\r\n        MarketItem[] memory items = new MarketItem[](itemCount);\r\n        for(uint i = 0; i<totalItemCount; i++){\r\n            if(idToMarketItem[i].owner == msg.sender){\r\n                uint currentId = idToMarketItem[i].itemId;\r\n                MarketItem storage currentItem = idToMarketItem[currentId];\r\n                items[currentIndex] = currentItem;\r\n                currentIndex += 1;\r\n            }\r\n        }\r\n        return items;\r\n    }\r\n\r\n\r\n\r\n    \r\n}",
  "sourcePath": "C:\\Users\\holyh\\code\\projects_Dapp\\MilalNFTMarket\\contracts\\NFTMarket.sol",
  "compiler": {
    "name": "solc",
    "version": "0.8.7+commit.e28d00a7.Emscripten.clang"
  },
  "schemaVersion": "3.4.2",
  "updatedAt": "2021-08-22T15:13:18.229Z",
  "devdoc": {
    "kind": "dev",
    "methods": {
      "owner()": {
        "details": "Returns the address of the current owner."
      },
      "renounceOwnership()": {
        "details": "Leaves the contract without owner. It will not be possible to call `onlyOwner` functions anymore. Can only be called by the current owner. NOTE: Renouncing ownership will leave the contract without an owner, thereby removing any functionality that is only available to the owner."
      },
      "transferOwnership(address)": {
        "details": "Transfers ownership of the contract to a new account (`newOwner`). Can only be called by the current owner."
      }
    },
    "version": 1
  },
  "userdoc": {
    "kind": "user",
    "methods": {},
    "version": 1
  }
}