{
  "contractName": "NFTMarket",
  "abi": [
    {
      "anonymous": false,
      "inputs": [
        {
          "indexed": true,
          "internalType": "uint256",
          "name": "itemId",
          "type": "uint256"
        },
        {
          "indexed": true,
          "internalType": "address",
          "name": "nftContract",
          "type": "address"
        },
        {
          "indexed": true,
          "internalType": "uint256",
          "name": "tokenId",
          "type": "uint256"
        },
        {
          "indexed": false,
          "internalType": "address",
          "name": "owner",
          "type": "address"
        },
        {
          "indexed": false,
          "internalType": "uint256",
          "name": "price",
          "type": "uint256"
        },
        {
          "indexed": false,
          "internalType": "bool",
          "name": "sold",
          "type": "bool"
        }
      ],
      "name": "MarketItemCreated",
      "type": "event"
    },
    {
      "anonymous": false,
      "inputs": [
        {
          "indexed": true,
          "internalType": "address",
          "name": "previousOwner",
          "type": "address"
        },
        {
          "indexed": true,
          "internalType": "address",
          "name": "newOwner",
          "type": "address"
        }
      ],
      "name": "OwnershipTransferred",
      "type": "event"
    },
    {
      "anonymous": false,
      "inputs": [
        {
          "indexed": false,
          "internalType": "uint256",
          "name": "id",
          "type": "uint256"
        },
        {
          "indexed": false,
          "internalType": "address",
          "name": "_orgAddress",
          "type": "address"
        },
        {
          "indexed": false,
          "internalType": "string",
          "name": "_orgName",
          "type": "string"
        }
      ],
      "name": "newOrgCreated",
      "type": "event"
    },
    {
      "anonymous": false,
      "inputs": [
        {
          "indexed": false,
          "internalType": "uint256",
          "name": "id",
          "type": "uint256"
        },
        {
          "indexed": false,
          "internalType": "address",
          "name": "_orgAddress",
          "type": "address"
        },
        {
          "indexed": false,
          "internalType": "string",
          "name": "_orgName",
          "type": "string"
        }
      ],
      "name": "orgDeleted",
      "type": "event"
    },
    {
      "inputs": [],
      "name": "owner",
      "outputs": [
        {
          "internalType": "address",
          "name": "",
          "type": "address"
        }
      ],
      "stateMutability": "view",
      "type": "function",
      "constant": true
    },
    {
      "inputs": [],
      "name": "renounceOwnership",
      "outputs": [],
      "stateMutability": "nonpayable",
      "type": "function"
    },
    {
      "inputs": [
        {
          "internalType": "address",
          "name": "newOwner",
          "type": "address"
        }
      ],
      "name": "transferOwnership",
      "outputs": [],
      "stateMutability": "nonpayable",
      "type": "function"
    },
    {
      "inputs": [
        {
          "internalType": "address",
          "name": "_orgAddress",
          "type": "address"
        },
        {
          "internalType": "string",
          "name": "_orgName",
          "type": "string"
        }
      ],
      "name": "addOrganization",
      "outputs": [],
      "stateMutability": "nonpayable",
      "type": "function"
    },
    {
      "inputs": [
        {
          "internalType": "uint256",
          "name": "_tokenId",
          "type": "uint256"
        }
      ],
      "name": "deleteOrgainzation",
      "outputs": [],
      "stateMutability": "nonpayable",
      "type": "function"
    },
    {
      "inputs": [
        {
          "internalType": "uint256",
          "name": "_tokenId",
          "type": "uint256"
        }
      ],
      "name": "getOrgAddressById",
      "outputs": [
        {
          "internalType": "address",
          "name": "",
          "type": "address"
        }
      ],
      "stateMutability": "view",
      "type": "function",
      "constant": true
    },
    {
      "inputs": [],
      "name": "fetchOrganization",
      "outputs": [
        {
          "components": [
            {
              "internalType": "uint256",
              "name": "id",
              "type": "uint256"
            },
            {
              "internalType": "address",
              "name": "orgAddress",
              "type": "address"
            },
            {
              "internalType": "string",
              "name": "name",
              "type": "string"
            }
          ],
          "internalType": "struct NFTMarket.Organization[]",
          "name": "",
          "type": "tuple[]"
        }
      ],
      "stateMutability": "view",
      "type": "function",
      "constant": true
    },
    {
      "inputs": [],
      "name": "getListingPrice",
      "outputs": [
        {
          "internalType": "uint256",
          "name": "",
          "type": "uint256"
        }
      ],
      "stateMutability": "view",
      "type": "function",
      "constant": true
    },
    {
      "inputs": [
        {
          "internalType": "uint256",
          "name": "_newListingPrice",
          "type": "uint256"
        }
      ],
      "name": "setLIstingPrice",
      "outputs": [],
      "stateMutability": "nonpayable",
      "type": "function"
    },
    {
      "inputs": [
        {
          "internalType": "address",
          "name": "nftContract",
          "type": "address"
        },
        {
          "internalType": "uint256",
          "name": "tokenId",
          "type": "uint256"
        },
        {
          "internalType": "uint256",
          "name": "price",
          "type": "uint256"
        },
        {
          "internalType": "address",
          "name": "_donateToWho",
          "type": "address"
        }
      ],
      "name": "createMarketItem",
      "outputs": [],
      "stateMutability": "payable",
      "type": "function",
      "payable": true
    },
    {
      "inputs": [
        {
          "internalType": "address",
          "name": "nftContract",
          "type": "address"
        },
        {
          "internalType": "uint256",
          "name": "_itemId",
          "type": "uint256"
        }
      ],
      "name": "createMarketSale",
      "outputs": [],
      "stateMutability": "payable",
      "type": "function",
      "payable": true
    },
    {
      "inputs": [],
      "name": "fetchMarketItems",
      "outputs": [
        {
          "components": [
            {
              "internalType": "uint256",
              "name": "itemId",
              "type": "uint256"
            },
            {
              "internalType": "address",
              "name": "nftContract",
              "type": "address"
            },
            {
              "internalType": "uint256",
              "name": "tokenId",
              "type": "uint256"
            },
            {
              "internalType": "address payable",
              "name": "owner",
              "type": "address"
            },
            {
              "internalType": "uint256",
              "name": "price",
              "type": "uint256"
            },
            {
              "internalType": "bool",
              "name": "sold",
              "type": "bool"
            },
            {
              "internalType": "address payable",
              "name": "donateTo",
              "type": "address"
            }
          ],
          "internalType": "struct NFTMarket.MarketItem[]",
          "name": "",
          "type": "tuple[]"
        }
      ],
      "stateMutability": "view",
      "type": "function",
      "constant": true
    },
    {
      "inputs": [],
      "name": "fetchMyNFTs",
      "outputs": [
        {
          "components": [
            {
              "internalType": "uint256",
              "name": "itemId",
              "type": "uint256"
            },
            {
              "internalType": "address",
              "name": "nftContract",
              "type": "address"
            },
            {
              "internalType": "uint256",
              "name": "tokenId",
              "type": "uint256"
            },
            {
              "internalType": "address payable",
              "name": "owner",
              "type": "address"
            },
            {
              "internalType": "uint256",
              "name": "price",
              "type": "uint256"
            },
            {
              "internalType": "bool",
              "name": "sold",
              "type": "bool"
            },
            {
              "internalType": "address payable",
              "name": "donateTo",
              "type": "address"
            }
          ],
          "internalType": "struct NFTMarket.MarketItem[]",
          "name": "",
          "type": "tuple[]"
        }
      ],
      "stateMutability": "view",
      "type": "function",
      "constant": true
    }
  ],
  "bytecode": "0x60806040526611c37937e080006006553480156200001c57600080fd5b50600160008190555062000045620000396200004b60201b60201c565b6200005360201b60201c565b62000119565b600033905090565b6000600160009054906101000a900473ffffffffffffffffffffffffffffffffffffffff16905081600160006101000a81548173ffffffffffffffffffffffffffffffffffffffff021916908373ffffffffffffffffffffffffffffffffffffffff1602179055508173ffffffffffffffffffffffffffffffffffffffff168173ffffffffffffffffffffffffffffffffffffffff167f8be0079c531659141344cd1fd0a4f28419497f9722a3daafe3b4186f6b6457e060405160405180910390a35050565b61270480620001296000396000f3fe6080604052600436106100c25760003560e01c8063715018a61161007f578063b6cbb28f11610059578063b6cbb28f14610235578063c23b139e1461025e578063c7f5a99b1461027a578063f2fde38b146102a5576100c2565b8063715018a6146101d75780638da5cb5b146101ee578063b37654a714610219576100c2565b80630f08efe0146100c757806312e85585146100f2578063202e37401461011d5780635296598c14610148578063534363ea146101855780636867478a146101ae575b600080fd5b3480156100d357600080fd5b506100dc6102ce565b6040516100e99190611fbb565b60405180910390f35b3480156100fe57600080fd5b506101076105c8565b604051610114919061209f565b60405180910390f35b34801561012957600080fd5b506101326105d2565b60405161013f9190611fbb565b60405180910390f35b34801561015457600080fd5b5061016f600480360381019061016a9190611b1e565b610912565b60405161017c9190611f32565b60405180910390f35b34801561019157600080fd5b506101ac60048036038101906101a79190611b1e565b610952565b005b3480156101ba57600080fd5b506101d560048036038101906101d09190611a1b565b6109d8565b005b3480156101e357600080fd5b506101ec610b61565b005b3480156101fa57600080fd5b50610203610be9565b6040516102109190611f32565b60405180910390f35b610233600480360381019061022e9190611ab7565b610c13565b005b34801561024157600080fd5b5061025c60048036038101906102579190611b1e565b610f7e565b005b61027860048036038101906102739190611a77565b6110d8565b005b34801561028657600080fd5b5061028f6113df565b60405161029c9190611fdd565b60405180910390f35b3480156102b157600080fd5b506102cc60048036038101906102c791906119ee565b6115cf565b005b606060006102dc60026116c7565b905060006102ea60036116c7565b6102f460046116c7565b6102fe9190612321565b90506000808267ffffffffffffffff81111561031d5761031c612559565b5b60405190808252806020026020018201604052801561035657816020015b6103436117b9565b81526020019060019003908161033b5790505b50905060005b848110156105bd573373ffffffffffffffffffffffffffffffffffffffff166007600083815260200190815260200160002060030160009054906101000a900473ffffffffffffffffffffffffffffffffffffffff1673ffffffffffffffffffffffffffffffffffffffff161480156103fc5750600015156007600083815260200190815260200160002060050160009054906101000a900460ff161515145b156105aa576000600760008381526020019081526020016000206000015490506000600760008381526020019081526020016000209050806040518060e0016040529081600082015481526020016001820160009054906101000a900473ffffffffffffffffffffffffffffffffffffffff1673ffffffffffffffffffffffffffffffffffffffff1673ffffffffffffffffffffffffffffffffffffffff168152602001600282015481526020016003820160009054906101000a900473ffffffffffffffffffffffffffffffffffffffff1673ffffffffffffffffffffffffffffffffffffffff1673ffffffffffffffffffffffffffffffffffffffff168152602001600482015481526020016005820160009054906101000a900460ff161515151581526020016005820160019054906101000a900473ffffffffffffffffffffffffffffffffffffffff1673ffffffffffffffffffffffffffffffffffffffff1673ffffffffffffffffffffffffffffffffffffffff168152505084868151811061058d5761058c61252a565b5b60200260200101819052506001856105a59190612240565b945050505b80806105b590612454565b91505061035c565b508094505050505090565b6000600654905090565b606060006105e060026116c7565b905060008060005b8381101561067d573373ffffffffffffffffffffffffffffffffffffffff166007600083815260200190815260200160002060030160009054906101000a900473ffffffffffffffffffffffffffffffffffffffff1673ffffffffffffffffffffffffffffffffffffffff16141561066a576001836106679190612240565b92505b808061067590612454565b9150506105e8565b5060008267ffffffffffffffff81111561069a57610699612559565b5b6040519080825280602002602001820160405280156106d357816020015b6106c06117b9565b8152602001906001900390816106b85790505b50905060005b84811015610907573373ffffffffffffffffffffffffffffffffffffffff166007600083815260200190815260200160002060030160009054906101000a900473ffffffffffffffffffffffffffffffffffffffff1673ffffffffffffffffffffffffffffffffffffffff1614156108f4576000600760008381526020019081526020016000206000015490506000600760008381526020019081526020016000209050806040518060e0016040529081600082015481526020016001820160009054906101000a900473ffffffffffffffffffffffffffffffffffffffff1673ffffffffffffffffffffffffffffffffffffffff1673ffffffffffffffffffffffffffffffffffffffff168152602001600282015481526020016003820160009054906101000a900473ffffffffffffffffffffffffffffffffffffffff1673ffffffffffffffffffffffffffffffffffffffff1673ffffffffffffffffffffffffffffffffffffffff168152602001600482015481526020016005820160009054906101000a900460ff161515151581526020016005820160019054906101000a900473ffffffffffffffffffffffffffffffffffffffff1673ffffffffffffffffffffffffffffffffffffffff1673ffffffffffffffffffffffffffffffffffffffff16815250508486815181106108d7576108d661252a565b5b60200260200101819052506001856108ef9190612240565b945050505b80806108ff90612454565b9150506106d9565b508094505050505090565b60006008600083815260200190815260200160002060010160009054906101000a900473ffffffffffffffffffffffffffffffffffffffff169050919050565b61095a6116d5565b73ffffffffffffffffffffffffffffffffffffffff16610978610be9565b73ffffffffffffffffffffffffffffffffffffffff16146109ce576040517f08c379a00000000000000000000000000000000000000000000000000000000081526004016109c59061203f565b60405180910390fd5b8060068190555050565b6109e06116d5565b73ffffffffffffffffffffffffffffffffffffffff166109fe610be9565b73ffffffffffffffffffffffffffffffffffffffff1614610a54576040517f08c379a0000000000000000000000000000000000000000000000000000000008152600401610a4b9061203f565b60405180910390fd5b6000610a6060056116c7565b905060405180606001604052808281526020018473ffffffffffffffffffffffffffffffffffffffff16815260200183815250600860008381526020019081526020016000206000820151816000015560208201518160010160006101000a81548173ffffffffffffffffffffffffffffffffffffffff021916908373ffffffffffffffffffffffffffffffffffffffff1602179055506040820151816002019080519060200190610b1392919061183a565b509050507f8e3149d65a2b302cac071680086a826a48959636bf6abecb36e151b419621f75818484604051610b4a939291906120ba565b60405180910390a1610b5c60056116dd565b505050565b610b696116d5565b73ffffffffffffffffffffffffffffffffffffffff16610b87610be9565b73ffffffffffffffffffffffffffffffffffffffff1614610bdd576040517f08c379a0000000000000000000000000000000000000000000000000000000008152600401610bd49061203f565b60405180910390fd5b610be760006116f3565b565b6000600160009054906101000a900473ffffffffffffffffffffffffffffffffffffffff16905090565b60026000541415610c59576040517f08c379a0000000000000000000000000000000000000000000000000000000008152600401610c509061205f565b60405180910390fd5b600260008190555060008211610ca4576040517f08c379a0000000000000000000000000000000000000000000000000000000008152600401610c9b9061201f565b60405180910390fd5b6000610cb060026116c7565b90506040518060e001604052808281526020018673ffffffffffffffffffffffffffffffffffffffff1681526020018581526020013373ffffffffffffffffffffffffffffffffffffffff1681526020018481526020016000151581526020018373ffffffffffffffffffffffffffffffffffffffff16815250600760008381526020019081526020016000206000820151816000015560208201518160010160006101000a81548173ffffffffffffffffffffffffffffffffffffffff021916908373ffffffffffffffffffffffffffffffffffffffff1602179055506040820151816002015560608201518160030160006101000a81548173ffffffffffffffffffffffffffffffffffffffff021916908373ffffffffffffffffffffffffffffffffffffffff1602179055506080820151816004015560a08201518160050160006101000a81548160ff02191690831515021790555060c08201518160050160016101000a81548173ffffffffffffffffffffffffffffffffffffffff021916908373ffffffffffffffffffffffffffffffffffffffff1602179055509050508473ffffffffffffffffffffffffffffffffffffffff166323b872dd3330876040518463ffffffff1660e01b8152600401610e9093929190611f4d565b600060405180830381600087803b158015610eaa57600080fd5b505af1158015610ebe573d6000803e3d6000fd5b50505050610ecc60026116dd565b610ed4610be9565b73ffffffffffffffffffffffffffffffffffffffff166108fc349081150290604051600060405180830381858888f19350505050158015610f19573d6000803e3d6000fd5b50838573ffffffffffffffffffffffffffffffffffffffff16827f3a703684ac0e06cbc245a465cb3c43faf40a53aff175518595f6aac9d61afe6333876000604051610f6793929190611f84565b60405180910390a450600160008190555050505050565b610f866116d5565b73ffffffffffffffffffffffffffffffffffffffff16610fa4610be9565b73ffffffffffffffffffffffffffffffffffffffff1614610ffa576040517f08c379a0000000000000000000000000000000000000000000000000000000008152600401610ff19061203f565b60405180910390fd5b7f8e3149d65a2b302cac071680086a826a48959636bf6abecb36e151b419621f75816008600084815260200190815260200160002060010160009054906101000a900473ffffffffffffffffffffffffffffffffffffffff1660086000858152602001908152602001600020600201604051611078939291906120f8565b60405180910390a1600860008281526020019081526020016000206000808201600090556001820160006101000a81549073ffffffffffffffffffffffffffffffffffffffff02191690556002820160006110d391906118c0565b505050565b6002600054141561111e576040517f08c379a00000000000000000000000000000000000000000000000000000000081526004016111159061205f565b60405180910390fd5b600260008190555060006007600083815260200190815260200160002060040154905060006007600084815260200190815260200160002060020154905081341461119e576040517f08c379a00000000000000000000000000000000000000000000000000000000081526004016111959061207f565b60405180910390fd5b60006001600a346111af9190612296565b6111b991906122c7565b905060006009600a346111cc9190612296565b6111d691906122c7565b90506007600086815260200190815260200160002060030160009054906101000a900473ffffffffffffffffffffffffffffffffffffffff1673ffffffffffffffffffffffffffffffffffffffff166108fc839081150290604051600060405180830381858888f19350505050158015611254573d6000803e3d6000fd5b506007600086815260200190815260200160002060050160019054906101000a900473ffffffffffffffffffffffffffffffffffffffff1673ffffffffffffffffffffffffffffffffffffffff166108fc829081150290604051600060405180830381858888f193505050501580156112d1573d6000803e3d6000fd5b508573ffffffffffffffffffffffffffffffffffffffff166323b872dd3033866040518463ffffffff1660e01b815260040161130f93929190611f4d565b600060405180830381600087803b15801561132957600080fd5b505af115801561133d573d6000803e3d6000fd5b50505050336007600087815260200190815260200160002060030160006101000a81548173ffffffffffffffffffffffffffffffffffffffff021916908373ffffffffffffffffffffffffffffffffffffffff16021790555060016007600087815260200190815260200160002060050160006101000a81548160ff0219169083151502179055506113cf60036116dd565b5050505060016000819055505050565b606060006113ed60056116c7565b90506000808267ffffffffffffffff81111561140c5761140b612559565b5b60405190808252806020026020018201604052801561144557816020015b611432611900565b81526020019060019003908161142a5790505b50905060005b838110156115c557600060086000838152602001908152602001600020600001549050600060086000838152602001908152602001600020905080604051806060016040529081600082015481526020016001820160009054906101000a900473ffffffffffffffffffffffffffffffffffffffff1673ffffffffffffffffffffffffffffffffffffffff1673ffffffffffffffffffffffffffffffffffffffff168152602001600282018054611501906123f1565b80601f016020809104026020016040519081016040528092919081815260200182805461152d906123f1565b801561157a5780601f1061154f5761010080835404028352916020019161157a565b820191906000526020600020905b81548152906001019060200180831161155d57829003601f168201915b5050505050815250508486815181106115965761159561252a565b5b60200260200101819052506001856115ae9190612240565b9450505080806115bd90612454565b91505061144b565b5080935050505090565b6115d76116d5565b73ffffffffffffffffffffffffffffffffffffffff166115f5610be9565b73ffffffffffffffffffffffffffffffffffffffff161461164b576040517f08c379a00000000000000000000000000000000000000000000000000000000081526004016116429061203f565b60405180910390fd5b600073ffffffffffffffffffffffffffffffffffffffff168173ffffffffffffffffffffffffffffffffffffffff1614156116bb576040517f08c379a00000000000000000000000000000000000000000000000000000000081526004016116b290611fff565b60405180910390fd5b6116c4816116f3565b50565b600081600001549050919050565b600033905090565b6001816000016000828254019250508190555050565b6000600160009054906101000a900473ffffffffffffffffffffffffffffffffffffffff16905081600160006101000a81548173ffffffffffffffffffffffffffffffffffffffff021916908373ffffffffffffffffffffffffffffffffffffffff1602179055508173ffffffffffffffffffffffffffffffffffffffff168173ffffffffffffffffffffffffffffffffffffffff167f8be0079c531659141344cd1fd0a4f28419497f9722a3daafe3b4186f6b6457e060405160405180910390a35050565b6040518060e0016040528060008152602001600073ffffffffffffffffffffffffffffffffffffffff16815260200160008152602001600073ffffffffffffffffffffffffffffffffffffffff16815260200160008152602001600015158152602001600073ffffffffffffffffffffffffffffffffffffffff1681525090565b828054611846906123f1565b90600052602060002090601f01602090048101928261186857600085556118af565b82601f1061188157805160ff19168380011785556118af565b828001600101855582156118af579182015b828111156118ae578251825591602001919060010190611893565b5b5090506118bc9190611937565b5090565b5080546118cc906123f1565b6000825580601f106118de57506118fd565b601f0160209004906000526020600020908101906118fc9190611937565b5b50565b604051806060016040528060008152602001600073ffffffffffffffffffffffffffffffffffffffff168152602001606081525090565b5b80821115611950576000816000905550600101611938565b5090565b60006119676119628461215b565b612136565b9050828152602081018484840111156119835761198261258d565b5b61198e8482856123af565b509392505050565b6000813590506119a5816126a0565b92915050565b600082601f8301126119c0576119bf612588565b5b81356119d0848260208601611954565b91505092915050565b6000813590506119e8816126b7565b92915050565b600060208284031215611a0457611a03612597565b5b6000611a1284828501611996565b91505092915050565b60008060408385031215611a3257611a31612597565b5b6000611a4085828601611996565b925050602083013567ffffffffffffffff811115611a6157611a60612592565b5b611a6d858286016119ab565b9150509250929050565b60008060408385031215611a8e57611a8d612597565b5b6000611a9c85828601611996565b9250506020611aad858286016119d9565b9150509250929050565b60008060008060808587031215611ad157611ad0612597565b5b6000611adf87828801611996565b9450506020611af0878288016119d9565b9350506040611b01878288016119d9565b9250506060611b1287828801611996565b91505092959194509250565b600060208284031215611b3457611b33612597565b5b6000611b42848285016119d9565b91505092915050565b6000611b578383611e36565b60e08301905092915050565b6000611b6f8383611ec4565b905092915050565b611b8081612367565b82525050565b611b8f81612355565b82525050565b611b9e81612355565b82525050565b6000611baf826121c1565b611bb981856121fc565b9350611bc48361218c565b8060005b83811015611bf5578151611bdc8882611b4b565b9750611be7836121e2565b925050600181019050611bc8565b5085935050505092915050565b6000611c0d826121cc565b611c17818561220d565b935083602082028501611c298561219c565b8060005b85811015611c655784840389528151611c468582611b63565b9450611c51836121ef565b925060208a01995050600181019050611c2d565b50829750879550505050505092915050565b611c8081612379565b82525050565b611c8f81612379565b82525050565b6000611ca0826121d7565b611caa818561221e565b9350611cba8185602086016123be565b611cc38161259c565b840191505092915050565b6000611cd9826121d7565b611ce3818561222f565b9350611cf38185602086016123be565b611cfc8161259c565b840191505092915050565b60008154611d14816123f1565b611d1e818661222f565b94506001821660008114611d395760018114611d4b57611d7e565b60ff1983168652602086019350611d7e565b611d54856121ac565b60005b83811015611d7657815481890152600182019150602081019050611d57565b808801955050505b50505092915050565b6000611d9460268361222f565b9150611d9f826125ad565b604082019050919050565b6000611db7601f8361222f565b9150611dc2826125fc565b602082019050919050565b6000611dda60208361222f565b9150611de582612625565b602082019050919050565b6000611dfd601f8361222f565b9150611e088261264e565b602082019050919050565b6000611e2060178361222f565b9150611e2b82612677565b602082019050919050565b60e082016000820151611e4c6000850182611f14565b506020820151611e5f6020850182611b86565b506040820151611e726040850182611f14565b506060820151611e856060850182611b77565b506080820151611e986080850182611f14565b5060a0820151611eab60a0850182611c77565b5060c0820151611ebe60c0850182611b77565b50505050565b6000606083016000830151611edc6000860182611f14565b506020830151611eef6020860182611b86565b5060408301518482036040860152611f078282611c95565b9150508091505092915050565b611f1d816123a5565b82525050565b611f2c816123a5565b82525050565b6000602082019050611f476000830184611b95565b92915050565b6000606082019050611f626000830186611b95565b611f6f6020830185611b95565b611f7c6040830184611f23565b949350505050565b6000606082019050611f996000830186611b95565b611fa66020830185611f23565b611fb36040830184611c86565b949350505050565b60006020820190508181036000830152611fd58184611ba4565b905092915050565b60006020820190508181036000830152611ff78184611c02565b905092915050565b6000602082019050818103600083015261201881611d87565b9050919050565b6000602082019050818103600083015261203881611daa565b9050919050565b6000602082019050818103600083015261205881611dcd565b9050919050565b6000602082019050818103600083015261207881611df0565b9050919050565b6000602082019050818103600083015261209881611e13565b9050919050565b60006020820190506120b46000830184611f23565b92915050565b60006060820190506120cf6000830186611f23565b6120dc6020830185611b95565b81810360408301526120ee8184611cce565b9050949350505050565b600060608201905061210d6000830186611f23565b61211a6020830185611b95565b818103604083015261212c8184611d07565b9050949350505050565b6000612140612151565b905061214c8282612423565b919050565b6000604051905090565b600067ffffffffffffffff82111561217657612175612559565b5b61217f8261259c565b9050602081019050919050565b6000819050602082019050919050565b6000819050602082019050919050565b60008190508160005260206000209050919050565b600081519050919050565b600081519050919050565b600081519050919050565b6000602082019050919050565b6000602082019050919050565b600082825260208201905092915050565b600082825260208201905092915050565b600082825260208201905092915050565b600082825260208201905092915050565b600061224b826123a5565b9150612256836123a5565b9250827fffffffffffffffffffffffffffffffffffffffffffffffffffffffffffffffff0382111561228b5761228a61249d565b5b828201905092915050565b60006122a1826123a5565b91506122ac836123a5565b9250826122bc576122bb6124cc565b5b828204905092915050565b60006122d2826123a5565b91506122dd836123a5565b9250817fffffffffffffffffffffffffffffffffffffffffffffffffffffffffffffffff04831182151516156123165761231561249d565b5b828202905092915050565b600061232c826123a5565b9150612337836123a5565b92508282101561234a5761234961249d565b5b828203905092915050565b600061236082612385565b9050919050565b600061237282612385565b9050919050565b60008115159050919050565b600073ffffffffffffffffffffffffffffffffffffffff82169050919050565b6000819050919050565b82818337600083830152505050565b60005b838110156123dc5780820151818401526020810190506123c1565b838111156123eb576000848401525b50505050565b6000600282049050600182168061240957607f821691505b6020821081141561241d5761241c6124fb565b5b50919050565b61242c8261259c565b810181811067ffffffffffffffff8211171561244b5761244a612559565b5b80604052505050565b600061245f826123a5565b91507fffffffffffffffffffffffffffffffffffffffffffffffffffffffffffffffff8214156124925761249161249d565b5b600182019050919050565b7f4e487b7100000000000000000000000000000000000000000000000000000000600052601160045260246000fd5b7f4e487b7100000000000000000000000000000000000000000000000000000000600052601260045260246000fd5b7f4e487b7100000000000000000000000000000000000000000000000000000000600052602260045260246000fd5b7f4e487b7100000000000000000000000000000000000000000000000000000000600052603260045260246000fd5b7f4e487b7100000000000000000000000000000000000000000000000000000000600052604160045260246000fd5b600080fd5b600080fd5b600080fd5b600080fd5b6000601f19601f8301169050919050565b7f4f776e61626c653a206e6577206f776e657220697320746865207a65726f206160008201527f6464726573730000000000000000000000000000000000000000000000000000602082015250565b7f5072696365206d75737420626520686967686572207468616e20302077656900600082015250565b7f4f776e61626c653a2063616c6c6572206973206e6f7420746865206f776e6572600082015250565b7f5265656e7472616e637947756172643a207265656e7472616e742063616c6c00600082015250565b7f646f6573206e6f7420657175616c20746f207072696365000000000000000000600082015250565b6126a981612355565b81146126b457600080fd5b50565b6126c0816123a5565b81146126cb57600080fd5b5056fea26469706673582212206b772fc3727be04446f7aa3b9545951358642bb411ad3c2050ff4b63e4edbfde64736f6c63430008070033",
  "immutableReferences": {},
  "source": "// SPDX-License-Identifier: MIT\r\npragma solidity ^0.8.0;\r\n\r\nimport \"@openzeppelin/contracts/utils/Counters.sol\";\r\nimport \"@openzeppelin/contracts/security/ReentrancyGuard.sol\";\r\nimport \"@openzeppelin/contracts/token/ERC721/ERC721.sol\";\r\nimport \"@openzeppelin/contracts/access/Ownable.sol\";\r\n\r\ncontract NFTMarket is ReentrancyGuard, Ownable {\r\n    using Counters for Counters.Counter;\r\n    Counters.Counter private _itemIds;\r\n    Counters.Counter private _itemsSold;\r\n    Counters.Counter private _itemsOnSale;\r\n    Counters.Counter private _OrgIds;\r\n\r\n    uint256 private listingPrice = 0.005 ether;\r\n\r\n    // define DonationItem struct\r\n    struct MarketItem {\r\n        uint itemId;\r\n        address nftContract;\r\n        uint256 tokenId;\r\n        address payable owner;\r\n        uint256 price;\r\n        bool sold;\r\n        address payable donateTo;\r\n    }\r\n    // define Organization struct\r\n    struct Organization{\r\n        uint256 id;\r\n        address orgAddress;\r\n        string name;\r\n    }\r\n\r\n    // map item token id to Donation Item\r\n    mapping(uint256 => MarketItem) private idToMarketItem;\r\n    mapping(uint256 => Organization) private idToOrgainzations;\r\n\r\n    //event when New Dontation Item is created\r\n    event MarketItemCreated (\r\n        uint indexed itemId,\r\n        address indexed nftContract,\r\n        uint256 indexed tokenId,\r\n        address owner,\r\n        uint256 price,\r\n        bool sold\r\n    );\r\n    //event when new Organizaion is created\r\n    event newOrgCreated(\r\n        uint256 id, \r\n        address _orgAddress, \r\n        string _orgName\r\n        );\r\n    //event when exist organization is deleted\r\n    event orgDeleted(\r\n        uint256 id, \r\n        address _orgAddress, \r\n        string _orgName\r\n    );\r\n    // add an Organization \r\n    function addOrganization(address _orgAddress, string memory _orgName) public onlyOwner{\r\n        uint256 newTokenId = _OrgIds.current();\r\n        idToOrgainzations[newTokenId] = Organization(newTokenId, _orgAddress, _orgName);\r\n        emit newOrgCreated(newTokenId, _orgAddress, _orgName);\r\n        _OrgIds.increment();\r\n    }\r\n    //delete an Organization\r\n    function deleteOrgainzation(uint256 _tokenId) public onlyOwner{\r\n        //require(idToOrgainzations[_tokenId],\"This orgization does not exist\");\r\n        emit newOrgCreated(_tokenId, idToOrgainzations[_tokenId].orgAddress, idToOrgainzations[_tokenId].name);\r\n        delete idToOrgainzations[_tokenId];\r\n        \r\n    }\r\n    //get Organization address by id\r\n    function getOrgAddressById(uint256 _tokenId) public view returns(address){\r\n        return idToOrgainzations[_tokenId].orgAddress;\r\n    }\r\n    //fetch all organization\r\n    function fetchOrganization() public view returns(Organization[] memory){\r\n        uint totalNumOfOrg = _OrgIds.current();\r\n        uint currentIndex = 0;\r\n        Organization[] memory orgs = new Organization[](totalNumOfOrg);\r\n        \r\n        for(uint i=0; i<totalNumOfOrg; i++){\r\n            uint currentId = idToOrgainzations[i].id;\r\n            Organization storage currentOrg = idToOrgainzations [currentId];\r\n            orgs[currentIndex] = currentOrg;\r\n            currentIndex += 1;\r\n        }\r\n        return orgs;\r\n    }\r\n////////////////////////////////////////////////////////////////////////////////////////////////\r\n    /* Returns the listing price of the contract */\r\n    function getListingPrice() public view returns (uint256) {\r\n        return listingPrice;\r\n    }\r\n    // Setting New Listing Price around 1500 won\r\n    function setLIstingPrice(uint _newListingPrice) public onlyOwner {\r\n        listingPrice = _newListingPrice;\r\n    }\r\n    // Creating a new Donation Item\r\n    function createMarketItem(\r\n        address nftContract, \r\n        uint256 tokenId, \r\n        uint256 price,\r\n        address _donateToWho   \r\n    ) public payable nonReentrant {\r\n        require(price > 0, \"Price must be higher than 0 wei\");\r\n        //require(msg.value == listingPrice,\"Price mush be equal to list price\");\r\n        \r\n        uint256 itemId = _itemIds.current();\r\n        idToMarketItem[itemId] = MarketItem(\r\n            itemId,\r\n            nftContract,\r\n            tokenId,\r\n            payable(msg.sender),\r\n            price,\r\n            false,\r\n            payable(_donateToWho)\r\n        );\r\n\r\n        IERC721(nftContract).transferFrom(msg.sender, address(this), tokenId);\r\n        _itemIds.increment();\r\n        payable(owner()).transfer(msg.value);\r\n        emit MarketItemCreated(\r\n            itemId, \r\n            nftContract, \r\n            tokenId, \r\n            msg.sender, \r\n            price, \r\n            false\r\n        );\r\n    }\r\n\r\n    //Sell Item\r\n    function createMarketSale(\r\n        address nftContract, \r\n        uint256 _itemId\r\n    ) public payable nonReentrant {\r\n        //get item Price\r\n        uint price = idToMarketItem[_itemId].price;\r\n        //get item Id\r\n        uint tokenId = idToMarketItem[_itemId].tokenId;\r\n        //check Item price is equal to mag.value\r\n        require(msg.value == price,\"does not equal to price\");\r\n        //calculate ethers to owner\r\n        uint priceToOwner = (msg.value)/10 * 1;\r\n        //calculate ethers to Org\r\n        uint priceToOrg = ((msg.value)/10) * 9;\r\n        //send ethers to owner and donated Org\r\n        idToMarketItem[_itemId].owner.transfer(priceToOwner);\r\n        idToMarketItem[_itemId].donateTo.transfer(priceToOrg);\r\n        //change the ownership of token to buyer\r\n        IERC721(nftContract).transferFrom(address(this), msg.sender, tokenId);\r\n        idToMarketItem[_itemId].owner = payable(msg.sender);\r\n        idToMarketItem[_itemId].sold = true;\r\n        _itemsSold.increment();\r\n        //payable(owner).transfer(listingPrice);\r\n    }\r\n\r\n    //fetch marketItem for frontEnd\r\n    function fetchMarketItems() public view returns (MarketItem[] memory){\r\n        uint itemCount = _itemIds.current();\r\n        uint unsoldItemCount = _itemsOnSale.current() - _itemsSold.current();\r\n        uint currentIndex = 0;\r\n        \r\n        MarketItem[] memory items = new MarketItem[](unsoldItemCount);\r\n        for(uint i=0;i<itemCount;i++){\r\n            if(idToMarketItem[i].owner == msg.sender && idToMarketItem[i].sold == false){\r\n                uint currentId = idToMarketItem[i].itemId;\r\n                MarketItem storage currentItem = idToMarketItem [currentId];\r\n                items[currentIndex] = currentItem;\r\n                currentIndex += 1;\r\n            }\r\n        }\r\n        return items;\r\n    }\r\n\r\n    function fetchMyNFTs() public view returns (MarketItem[] memory){\r\n        uint totalItemCount = _itemIds.current();\r\n        uint itemCount = 0;\r\n        uint currentIndex = 0;\r\n        for(uint i = 0; i<totalItemCount; i++){\r\n            if(idToMarketItem[i].owner == msg.sender){\r\n                itemCount += 1;\r\n            }\r\n        }\r\n        MarketItem[] memory items = new MarketItem[](itemCount);\r\n        for(uint i = 0; i<totalItemCount; i++){\r\n            if(idToMarketItem[i].owner == msg.sender){\r\n                uint currentId = idToMarketItem[i].itemId;\r\n                MarketItem storage currentItem = idToMarketItem[currentId];\r\n                items[currentIndex] = currentItem;\r\n                currentIndex += 1;\r\n            }\r\n        }\r\n        return items;\r\n    }\r\n\r\n\r\n\r\n    \r\n}",
  "sourcePath": "C:\\Users\\holyh\\code\\projects_Dapp\\MilalNFTMarket\\contracts\\NFTMarket.sol",
  "compiler": {
    "name": "solc",
    "version": "0.8.7+commit.e28d00a7.Emscripten.clang"
  },
  "schemaVersion": "3.4.2",
  "updatedAt": "2021-08-18T06:54:39.667Z",
  "networkType": "ethereum",
  "devdoc": {
    "kind": "dev",
    "methods": {
      "owner()": {
        "details": "Returns the address of the current owner."
      },
      "renounceOwnership()": {
        "details": "Leaves the contract without owner. It will not be possible to call `onlyOwner` functions anymore. Can only be called by the current owner. NOTE: Renouncing ownership will leave the contract without an owner, thereby removing any functionality that is only available to the owner."
      },
      "transferOwnership(address)": {
        "details": "Transfers ownership of the contract to a new account (`newOwner`). Can only be called by the current owner."
      }
    },
    "version": 1
  },
  "userdoc": {
    "kind": "user",
    "methods": {},
    "version": 1
  }
}