{
  "contractName": "NFTMarket",
  "abi": [
    {
      "anonymous": false,
      "inputs": [
        {
          "indexed": true,
          "internalType": "uint256",
          "name": "itemId",
          "type": "uint256"
        },
        {
          "indexed": true,
          "internalType": "address",
          "name": "nftContract",
          "type": "address"
        },
        {
          "indexed": true,
          "internalType": "uint256",
          "name": "tokenId",
          "type": "uint256"
        },
        {
          "indexed": false,
          "internalType": "address",
          "name": "owner",
          "type": "address"
        },
        {
          "indexed": false,
          "internalType": "uint256",
          "name": "price",
          "type": "uint256"
        },
        {
          "indexed": false,
          "internalType": "bool",
          "name": "sold",
          "type": "bool"
        }
      ],
      "name": "MarketItemCreated",
      "type": "event"
    },
    {
      "anonymous": false,
      "inputs": [
        {
          "indexed": true,
          "internalType": "address",
          "name": "previousOwner",
          "type": "address"
        },
        {
          "indexed": true,
          "internalType": "address",
          "name": "newOwner",
          "type": "address"
        }
      ],
      "name": "OwnershipTransferred",
      "type": "event"
    },
    {
      "anonymous": false,
      "inputs": [
        {
          "indexed": false,
          "internalType": "uint256",
          "name": "id",
          "type": "uint256"
        },
        {
          "indexed": false,
          "internalType": "address",
          "name": "_orgAddress",
          "type": "address"
        },
        {
          "indexed": false,
          "internalType": "string",
          "name": "_orgName",
          "type": "string"
        }
      ],
      "name": "newOrgCreated",
      "type": "event"
    },
    {
      "anonymous": false,
      "inputs": [
        {
          "indexed": false,
          "internalType": "uint256",
          "name": "id",
          "type": "uint256"
        },
        {
          "indexed": false,
          "internalType": "address",
          "name": "_orgAddress",
          "type": "address"
        },
        {
          "indexed": false,
          "internalType": "string",
          "name": "_orgName",
          "type": "string"
        }
      ],
      "name": "orgDeleted",
      "type": "event"
    },
    {
      "inputs": [],
      "name": "owner",
      "outputs": [
        {
          "internalType": "address",
          "name": "",
          "type": "address"
        }
      ],
      "stateMutability": "view",
      "type": "function",
      "constant": true
    },
    {
      "inputs": [],
      "name": "renounceOwnership",
      "outputs": [],
      "stateMutability": "nonpayable",
      "type": "function"
    },
    {
      "inputs": [
        {
          "internalType": "address",
          "name": "newOwner",
          "type": "address"
        }
      ],
      "name": "transferOwnership",
      "outputs": [],
      "stateMutability": "nonpayable",
      "type": "function"
    },
    {
      "inputs": [
        {
          "internalType": "address",
          "name": "_orgAddress",
          "type": "address"
        },
        {
          "internalType": "string",
          "name": "_orgName",
          "type": "string"
        }
      ],
      "name": "addOrganization",
      "outputs": [
        {
          "internalType": "uint256",
          "name": "",
          "type": "uint256"
        }
      ],
      "stateMutability": "nonpayable",
      "type": "function"
    },
    {
      "inputs": [
        {
          "internalType": "uint256",
          "name": "_tokenId",
          "type": "uint256"
        }
      ],
      "name": "deleteOrgainzation",
      "outputs": [],
      "stateMutability": "nonpayable",
      "type": "function"
    },
    {
      "inputs": [
        {
          "internalType": "uint256",
          "name": "_tokenId",
          "type": "uint256"
        }
      ],
      "name": "getOrgAddressById",
      "outputs": [
        {
          "internalType": "address",
          "name": "",
          "type": "address"
        }
      ],
      "stateMutability": "view",
      "type": "function",
      "constant": true
    },
    {
      "inputs": [],
      "name": "fetchOrganization",
      "outputs": [
        {
          "components": [
            {
              "internalType": "uint256",
              "name": "id",
              "type": "uint256"
            },
            {
              "internalType": "address",
              "name": "orgAddress",
              "type": "address"
            },
            {
              "internalType": "string",
              "name": "name",
              "type": "string"
            }
          ],
          "internalType": "struct NFTMarket.Organization[]",
          "name": "",
          "type": "tuple[]"
        }
      ],
      "stateMutability": "view",
      "type": "function",
      "constant": true
    },
    {
      "inputs": [],
      "name": "getListingPrice",
      "outputs": [
        {
          "internalType": "uint256",
          "name": "",
          "type": "uint256"
        }
      ],
      "stateMutability": "view",
      "type": "function",
      "constant": true
    },
    {
      "inputs": [
        {
          "internalType": "uint256",
          "name": "_newListingPrice",
          "type": "uint256"
        }
      ],
      "name": "setListingPrice",
      "outputs": [],
      "stateMutability": "nonpayable",
      "type": "function"
    },
    {
      "inputs": [
        {
          "internalType": "address",
          "name": "nftContract",
          "type": "address"
        },
        {
          "internalType": "uint256",
          "name": "tokenId",
          "type": "uint256"
        },
        {
          "internalType": "uint256",
          "name": "price",
          "type": "uint256"
        },
        {
          "internalType": "address",
          "name": "_donateToWho",
          "type": "address"
        },
        {
          "internalType": "bool",
          "name": "_bid",
          "type": "bool"
        }
      ],
      "name": "createMarketItem",
      "outputs": [],
      "stateMutability": "payable",
      "type": "function",
      "payable": true
    },
    {
      "inputs": [
        {
          "internalType": "address",
          "name": "nftContract",
          "type": "address"
        },
        {
          "internalType": "uint256",
          "name": "_itemId",
          "type": "uint256"
        }
      ],
      "name": "createMarketSale",
      "outputs": [],
      "stateMutability": "payable",
      "type": "function",
      "payable": true
    },
    {
      "inputs": [
        {
          "internalType": "uint256",
          "name": "_itemId",
          "type": "uint256"
        }
      ],
      "name": "placeBid",
      "outputs": [
        {
          "internalType": "bool",
          "name": "success",
          "type": "bool"
        }
      ],
      "stateMutability": "nonpayable",
      "type": "function"
    },
    {
      "inputs": [],
      "name": "fetchMarketItems",
      "outputs": [
        {
          "components": [
            {
              "internalType": "uint256",
              "name": "itemId",
              "type": "uint256"
            },
            {
              "internalType": "address",
              "name": "nftContract",
              "type": "address"
            },
            {
              "internalType": "uint256",
              "name": "tokenId",
              "type": "uint256"
            },
            {
              "internalType": "address payable",
              "name": "owner",
              "type": "address"
            },
            {
              "internalType": "uint256",
              "name": "price",
              "type": "uint256"
            },
            {
              "internalType": "bool",
              "name": "bid",
              "type": "bool"
            },
            {
              "internalType": "bool",
              "name": "sold",
              "type": "bool"
            },
            {
              "internalType": "address payable",
              "name": "donateTo",
              "type": "address"
            }
          ],
          "internalType": "struct NFTMarket.MarketItem[]",
          "name": "",
          "type": "tuple[]"
        }
      ],
      "stateMutability": "view",
      "type": "function",
      "constant": true
    },
    {
      "inputs": [],
      "name": "fetchMyNFTs",
      "outputs": [
        {
          "components": [
            {
              "internalType": "uint256",
              "name": "itemId",
              "type": "uint256"
            },
            {
              "internalType": "address",
              "name": "nftContract",
              "type": "address"
            },
            {
              "internalType": "uint256",
              "name": "tokenId",
              "type": "uint256"
            },
            {
              "internalType": "address payable",
              "name": "owner",
              "type": "address"
            },
            {
              "internalType": "uint256",
              "name": "price",
              "type": "uint256"
            },
            {
              "internalType": "bool",
              "name": "bid",
              "type": "bool"
            },
            {
              "internalType": "bool",
              "name": "sold",
              "type": "bool"
            },
            {
              "internalType": "address payable",
              "name": "donateTo",
              "type": "address"
            }
          ],
          "internalType": "struct NFTMarket.MarketItem[]",
          "name": "",
          "type": "tuple[]"
        }
      ],
      "stateMutability": "view",
      "type": "function",
      "constant": true
    },
    {
      "inputs": [],
      "name": "fetchBidItems",
      "outputs": [
        {
          "components": [
            {
              "internalType": "uint256",
              "name": "itemId",
              "type": "uint256"
            },
            {
              "internalType": "address",
              "name": "nftContract",
              "type": "address"
            },
            {
              "internalType": "uint256",
              "name": "tokenId",
              "type": "uint256"
            },
            {
              "internalType": "address payable",
              "name": "owner",
              "type": "address"
            },
            {
              "internalType": "uint256",
              "name": "price",
              "type": "uint256"
            },
            {
              "internalType": "bool",
              "name": "bid",
              "type": "bool"
            },
            {
              "internalType": "bool",
              "name": "sold",
              "type": "bool"
            },
            {
              "internalType": "address payable",
              "name": "donateTo",
              "type": "address"
            }
          ],
          "internalType": "struct NFTMarket.MarketItem[]",
          "name": "",
          "type": "tuple[]"
        }
      ],
      "stateMutability": "view",
      "type": "function",
      "constant": true
    }
  ],
  "bytecode": "0x60806040526611c37937e080006006553480156200001c57600080fd5b50600160008190555062000045620000396200004b60201b60201c565b6200005360201b60201c565b62000119565b600033905090565b6000600160009054906101000a900473ffffffffffffffffffffffffffffffffffffffff16905081600160006101000a81548173ffffffffffffffffffffffffffffffffffffffff021916908373ffffffffffffffffffffffffffffffffffffffff1602179055508173ffffffffffffffffffffffffffffffffffffffff168173ffffffffffffffffffffffffffffffffffffffff167f8be0079c531659141344cd1fd0a4f28419497f9722a3daafe3b4186f6b6457e060405160405180910390a35050565b61296580620001296000396000f3fe6080604052600436106100e85760003560e01c80638da5cb5b1161008a578063b79f36a111610059578063b79f36a1146102e4578063c23b139e14610300578063c7f5a99b1461031c578063f2fde38b14610347576100e8565b80638da5cb5b146102285780639979ef4514610253578063b16c93c414610290578063b6cbb28f146102bb576100e8565b80635296598c116100c65780635296598c1461016e5780636867478a146101ab578063715018a6146101e85780637c726b69146101ff576100e8565b80630f08efe0146100ed57806312e8558514610118578063202e374014610143575b600080fd5b3480156100f957600080fd5b50610102610370565b60405161010f919061217b565b60405180910390f35b34801561012457600080fd5b5061012d61064c565b60405161013a919061229a565b60405180910390f35b34801561014f57600080fd5b50610158610656565b604051610165919061217b565b60405180910390f35b34801561017a57600080fd5b5061019560048036038101906101909190611ca6565b6109b2565b6040516101a291906120f2565b60405180910390f35b3480156101b757600080fd5b506101d260048036038101906101cd9190611b8f565b6109f2565b6040516101df919061229a565b60405180910390f35b3480156101f457600080fd5b506101fd610b82565b005b34801561020b57600080fd5b5061022660048036038101906102219190611ca6565b610c0a565b005b34801561023457600080fd5b5061023d610c90565b60405161024a91906120f2565b60405180910390f35b34801561025f57600080fd5b5061027a60048036038101906102759190611ca6565b610cba565b60405161028791906121bf565b60405180910390f35b34801561029c57600080fd5b506102a5610cf5565b6040516102b2919061217b565b60405180910390f35b3480156102c757600080fd5b506102e260048036038101906102dd9190611ca6565b610cfa565b005b6102fe60048036038101906102f99190611c2b565b610e54565b005b61031a60048036038101906103159190611beb565b61122d565b005b34801561032857600080fd5b50610331611534565b60405161033e919061219d565b60405180910390f35b34801561035357600080fd5b5061036e60048036038101906103699190611b62565b611724565b005b6060600061037e600261181c565b9050600061038c600361181c565b610396600461181c565b6103a0919061251c565b90506000808267ffffffffffffffff8111156103bf576103be612754565b5b6040519080825280602002602001820160405280156103f857816020015b6103e561190e565b8152602001906001900390816103dd5790505b50905060005b8481101561064157600015156007600083815260200190815260200160002060050160009054906101000a900460ff1615151480156104645750600015156007600083815260200190815260200160002060050160019054906101000a900460ff161515145b1561062e5760006007600083815260200190815260200160002060000154905060006007600083815260200190815260200160002090508060405180610100016040529081600082015481526020016001820160009054906101000a900473ffffffffffffffffffffffffffffffffffffffff1673ffffffffffffffffffffffffffffffffffffffff1673ffffffffffffffffffffffffffffffffffffffff168152602001600282015481526020016003820160009054906101000a900473ffffffffffffffffffffffffffffffffffffffff1673ffffffffffffffffffffffffffffffffffffffff1673ffffffffffffffffffffffffffffffffffffffff168152602001600482015481526020016005820160009054906101000a900460ff161515151581526020016005820160019054906101000a900460ff161515151581526020016005820160029054906101000a900473ffffffffffffffffffffffffffffffffffffffff1673ffffffffffffffffffffffffffffffffffffffff1673ffffffffffffffffffffffffffffffffffffffff168152505084868151811061061157610610612725565b5b6020026020010181905250600185610629919061243b565b945050505b80806106399061264f565b9150506103fe565b508094505050505090565b6000600654905090565b60606000610664600261181c565b905060008060005b83811015610701573373ffffffffffffffffffffffffffffffffffffffff166007600083815260200190815260200160002060030160009054906101000a900473ffffffffffffffffffffffffffffffffffffffff1673ffffffffffffffffffffffffffffffffffffffff1614156106ee576001836106eb919061243b565b92505b80806106f99061264f565b91505061066c565b5060008267ffffffffffffffff81111561071e5761071d612754565b5b60405190808252806020026020018201604052801561075757816020015b61074461190e565b81526020019060019003908161073c5790505b50905060005b848110156109a7573373ffffffffffffffffffffffffffffffffffffffff166007600083815260200190815260200160002060030160009054906101000a900473ffffffffffffffffffffffffffffffffffffffff1673ffffffffffffffffffffffffffffffffffffffff1614156109945760006007600083815260200190815260200160002060000154905060006007600083815260200190815260200160002090508060405180610100016040529081600082015481526020016001820160009054906101000a900473ffffffffffffffffffffffffffffffffffffffff1673ffffffffffffffffffffffffffffffffffffffff1673ffffffffffffffffffffffffffffffffffffffff168152602001600282015481526020016003820160009054906101000a900473ffffffffffffffffffffffffffffffffffffffff1673ffffffffffffffffffffffffffffffffffffffff1673ffffffffffffffffffffffffffffffffffffffff168152602001600482015481526020016005820160009054906101000a900460ff161515151581526020016005820160019054906101000a900460ff161515151581526020016005820160029054906101000a900473ffffffffffffffffffffffffffffffffffffffff1673ffffffffffffffffffffffffffffffffffffffff1673ffffffffffffffffffffffffffffffffffffffff168152505084868151811061097757610976612725565b5b602002602001018190525060018561098f919061243b565b945050505b808061099f9061264f565b91505061075d565b508094505050505090565b60006008600083815260200190815260200160002060010160009054906101000a900473ffffffffffffffffffffffffffffffffffffffff169050919050565b60006109fc61182a565b73ffffffffffffffffffffffffffffffffffffffff16610a1a610c90565b73ffffffffffffffffffffffffffffffffffffffff1614610a70576040517f08c379a0000000000000000000000000000000000000000000000000000000008152600401610a679061223a565b60405180910390fd5b6000610a7c600561181c565b905060405180606001604052808281526020018573ffffffffffffffffffffffffffffffffffffffff16815260200184815250600860008381526020019081526020016000206000820151816000015560208201518160010160006101000a81548173ffffffffffffffffffffffffffffffffffffffff021916908373ffffffffffffffffffffffffffffffffffffffff1602179055506040820151816002019080519060200190610b2f929190611999565b509050507f8e3149d65a2b302cac071680086a826a48959636bf6abecb36e151b419621f75818585604051610b66939291906122b5565b60405180910390a1610b786005611832565b8091505092915050565b610b8a61182a565b73ffffffffffffffffffffffffffffffffffffffff16610ba8610c90565b73ffffffffffffffffffffffffffffffffffffffff1614610bfe576040517f08c379a0000000000000000000000000000000000000000000000000000000008152600401610bf59061223a565b60405180910390fd5b610c086000611848565b565b610c1261182a565b73ffffffffffffffffffffffffffffffffffffffff16610c30610c90565b73ffffffffffffffffffffffffffffffffffffffff1614610c86576040517f08c379a0000000000000000000000000000000000000000000000000000000008152600401610c7d9061223a565b60405180910390fd5b8060068190555050565b6000600160009054906101000a900473ffffffffffffffffffffffffffffffffffffffff16905090565b6000600115156007600084815260200190815260200160002060050160009054906101000a900460ff16151514610cf057600080fd5b919050565b606090565b610d0261182a565b73ffffffffffffffffffffffffffffffffffffffff16610d20610c90565b73ffffffffffffffffffffffffffffffffffffffff1614610d76576040517f08c379a0000000000000000000000000000000000000000000000000000000008152600401610d6d9061223a565b60405180910390fd5b7f8e3149d65a2b302cac071680086a826a48959636bf6abecb36e151b419621f75816008600084815260200190815260200160002060010160009054906101000a900473ffffffffffffffffffffffffffffffffffffffff1660086000858152602001908152602001600020600201604051610df4939291906122f3565b60405180910390a1600860008281526020019081526020016000206000808201600090556001820160006101000a81549073ffffffffffffffffffffffffffffffffffffffff0219169055600282016000610e4f9190611a1f565b505050565b60026000541415610e9a576040517f08c379a0000000000000000000000000000000000000000000000000000000008152600401610e919061225a565b60405180910390fd5b600260008190555060008311610ee5576040517f08c379a0000000000000000000000000000000000000000000000000000000008152600401610edc9061221a565b60405180910390fd5b6006543414610f29576040517f08c379a0000000000000000000000000000000000000000000000000000000008152600401610f20906121fa565b60405180910390fd5b6000610f35600261181c565b90506040518061010001604052808281526020018773ffffffffffffffffffffffffffffffffffffffff1681526020018681526020013373ffffffffffffffffffffffffffffffffffffffff16815260200185815260200183151581526020016000151581526020018473ffffffffffffffffffffffffffffffffffffffff16815250600760008381526020019081526020016000206000820151816000015560208201518160010160006101000a81548173ffffffffffffffffffffffffffffffffffffffff021916908373ffffffffffffffffffffffffffffffffffffffff1602179055506040820151816002015560608201518160030160006101000a81548173ffffffffffffffffffffffffffffffffffffffff021916908373ffffffffffffffffffffffffffffffffffffffff1602179055506080820151816004015560a08201518160050160006101000a81548160ff02191690831515021790555060c08201518160050160016101000a81548160ff02191690831515021790555060e08201518160050160026101000a81548173ffffffffffffffffffffffffffffffffffffffff021916908373ffffffffffffffffffffffffffffffffffffffff1602179055509050508573ffffffffffffffffffffffffffffffffffffffff166323b872dd3330886040518463ffffffff1660e01b815260040161113e9392919061210d565b600060405180830381600087803b15801561115857600080fd5b505af115801561116c573d6000803e3d6000fd5b5050505061117a6002611832565b611182610c90565b73ffffffffffffffffffffffffffffffffffffffff166108fc349081150290604051600060405180830381858888f193505050501580156111c7573d6000803e3d6000fd5b50848673ffffffffffffffffffffffffffffffffffffffff16827f3a703684ac0e06cbc245a465cb3c43faf40a53aff175518595f6aac9d61afe633388600060405161121593929190612144565b60405180910390a45060016000819055505050505050565b60026000541415611273576040517f08c379a000000000000000000000000000000000000000000000000000000000815260040161126a9061225a565b60405180910390fd5b60026000819055506000600760008381526020019081526020016000206004015490506000600760008481526020019081526020016000206002015490508134146112f3576040517f08c379a00000000000000000000000000000000000000000000000000000000081526004016112ea9061227a565b60405180910390fd5b60006001600a346113049190612491565b61130e91906124c2565b905060006009600a346113219190612491565b61132b91906124c2565b90506007600086815260200190815260200160002060030160009054906101000a900473ffffffffffffffffffffffffffffffffffffffff1673ffffffffffffffffffffffffffffffffffffffff166108fc839081150290604051600060405180830381858888f193505050501580156113a9573d6000803e3d6000fd5b506007600086815260200190815260200160002060050160029054906101000a900473ffffffffffffffffffffffffffffffffffffffff1673ffffffffffffffffffffffffffffffffffffffff166108fc829081150290604051600060405180830381858888f19350505050158015611426573d6000803e3d6000fd5b508573ffffffffffffffffffffffffffffffffffffffff166323b872dd3033866040518463ffffffff1660e01b81526004016114649392919061210d565b600060405180830381600087803b15801561147e57600080fd5b505af1158015611492573d6000803e3d6000fd5b50505050336007600087815260200190815260200160002060030160006101000a81548173ffffffffffffffffffffffffffffffffffffffff021916908373ffffffffffffffffffffffffffffffffffffffff16021790555060016007600087815260200190815260200160002060050160016101000a81548160ff0219169083151502179055506115246003611832565b5050505060016000819055505050565b60606000611542600561181c565b90506000808267ffffffffffffffff81111561156157611560612754565b5b60405190808252806020026020018201604052801561159a57816020015b611587611a5f565b81526020019060019003908161157f5790505b50905060005b8381101561171a57600060086000838152602001908152602001600020600001549050600060086000838152602001908152602001600020905080604051806060016040529081600082015481526020016001820160009054906101000a900473ffffffffffffffffffffffffffffffffffffffff1673ffffffffffffffffffffffffffffffffffffffff1673ffffffffffffffffffffffffffffffffffffffff168152602001600282018054611656906125ec565b80601f0160208091040260200160405190810160405280929190818152602001828054611682906125ec565b80156116cf5780601f106116a4576101008083540402835291602001916116cf565b820191906000526020600020905b8154815290600101906020018083116116b257829003601f168201915b5050505050815250508486815181106116eb576116ea612725565b5b6020026020010181905250600185611703919061243b565b9450505080806117129061264f565b9150506115a0565b5080935050505090565b61172c61182a565b73ffffffffffffffffffffffffffffffffffffffff1661174a610c90565b73ffffffffffffffffffffffffffffffffffffffff16146117a0576040517f08c379a00000000000000000000000000000000000000000000000000000000081526004016117979061223a565b60405180910390fd5b600073ffffffffffffffffffffffffffffffffffffffff168173ffffffffffffffffffffffffffffffffffffffff161415611810576040517f08c379a0000000000000000000000000000000000000000000000000000000008152600401611807906121da565b60405180910390fd5b61181981611848565b50565b600081600001549050919050565b600033905090565b6001816000016000828254019250508190555050565b6000600160009054906101000a900473ffffffffffffffffffffffffffffffffffffffff16905081600160006101000a81548173ffffffffffffffffffffffffffffffffffffffff021916908373ffffffffffffffffffffffffffffffffffffffff1602179055508173ffffffffffffffffffffffffffffffffffffffff168173ffffffffffffffffffffffffffffffffffffffff167f8be0079c531659141344cd1fd0a4f28419497f9722a3daafe3b4186f6b6457e060405160405180910390a35050565b60405180610100016040528060008152602001600073ffffffffffffffffffffffffffffffffffffffff16815260200160008152602001600073ffffffffffffffffffffffffffffffffffffffff16815260200160008152602001600015158152602001600015158152602001600073ffffffffffffffffffffffffffffffffffffffff1681525090565b8280546119a5906125ec565b90600052602060002090601f0160209004810192826119c75760008555611a0e565b82601f106119e057805160ff1916838001178555611a0e565b82800160010185558215611a0e579182015b82811115611a0d5782518255916020019190600101906119f2565b5b509050611a1b9190611a96565b5090565b508054611a2b906125ec565b6000825580601f10611a3d5750611a5c565b601f016020900490600052602060002090810190611a5b9190611a96565b5b50565b604051806060016040528060008152602001600073ffffffffffffffffffffffffffffffffffffffff168152602001606081525090565b5b80821115611aaf576000816000905550600101611a97565b5090565b6000611ac6611ac184612356565b612331565b905082815260208101848484011115611ae257611ae1612788565b5b611aed8482856125aa565b509392505050565b600081359050611b04816128ea565b92915050565b600081359050611b1981612901565b92915050565b600082601f830112611b3457611b33612783565b5b8135611b44848260208601611ab3565b91505092915050565b600081359050611b5c81612918565b92915050565b600060208284031215611b7857611b77612792565b5b6000611b8684828501611af5565b91505092915050565b60008060408385031215611ba657611ba5612792565b5b6000611bb485828601611af5565b925050602083013567ffffffffffffffff811115611bd557611bd461278d565b5b611be185828601611b1f565b9150509250929050565b60008060408385031215611c0257611c01612792565b5b6000611c1085828601611af5565b9250506020611c2185828601611b4d565b9150509250929050565b600080600080600060a08688031215611c4757611c46612792565b5b6000611c5588828901611af5565b9550506020611c6688828901611b4d565b9450506040611c7788828901611b4d565b9350506060611c8888828901611af5565b9250506080611c9988828901611b0a565b9150509295509295909350565b600060208284031215611cbc57611cbb612792565b5b6000611cca84828501611b4d565b91505092915050565b6000611cdf8383611fe2565b6101008301905092915050565b6000611cf88383612084565b905092915050565b611d0981612562565b82525050565b611d1881612550565b82525050565b611d2781612550565b82525050565b6000611d38826123bc565b611d4281856123f7565b9350611d4d83612387565b8060005b83811015611d7e578151611d658882611cd3565b9750611d70836123dd565b925050600181019050611d51565b5085935050505092915050565b6000611d96826123c7565b611da08185612408565b935083602082028501611db285612397565b8060005b85811015611dee5784840389528151611dcf8582611cec565b9450611dda836123ea565b925060208a01995050600181019050611db6565b50829750879550505050505092915050565b611e0981612574565b82525050565b611e1881612574565b82525050565b6000611e29826123d2565b611e338185612419565b9350611e438185602086016125b9565b611e4c81612797565b840191505092915050565b6000611e62826123d2565b611e6c818561242a565b9350611e7c8185602086016125b9565b611e8581612797565b840191505092915050565b60008154611e9d816125ec565b611ea7818661242a565b94506001821660008114611ec25760018114611ed457611f07565b60ff1983168652602086019350611f07565b611edd856123a7565b60005b83811015611eff57815481890152600182019150602081019050611ee0565b808801955050505b50505092915050565b6000611f1d60268361242a565b9150611f28826127a8565b604082019050919050565b6000611f4060218361242a565b9150611f4b826127f7565b604082019050919050565b6000611f63601f8361242a565b9150611f6e82612846565b602082019050919050565b6000611f8660208361242a565b9150611f918261286f565b602082019050919050565b6000611fa9601f8361242a565b9150611fb482612898565b602082019050919050565b6000611fcc60178361242a565b9150611fd7826128c1565b602082019050919050565b61010082016000820151611ff960008501826120d4565b50602082015161200c6020850182611d0f565b50604082015161201f60408501826120d4565b5060608201516120326060850182611d00565b50608082015161204560808501826120d4565b5060a082015161205860a0850182611e00565b5060c082015161206b60c0850182611e00565b5060e082015161207e60e0850182611d00565b50505050565b600060608301600083015161209c60008601826120d4565b5060208301516120af6020860182611d0f565b50604083015184820360408601526120c78282611e1e565b9150508091505092915050565b6120dd816125a0565b82525050565b6120ec816125a0565b82525050565b60006020820190506121076000830184611d1e565b92915050565b60006060820190506121226000830186611d1e565b61212f6020830185611d1e565b61213c60408301846120e3565b949350505050565b60006060820190506121596000830186611d1e565b61216660208301856120e3565b6121736040830184611e0f565b949350505050565b600060208201905081810360008301526121958184611d2d565b905092915050565b600060208201905081810360008301526121b78184611d8b565b905092915050565b60006020820190506121d46000830184611e0f565b92915050565b600060208201905081810360008301526121f381611f10565b9050919050565b6000602082019050818103600083015261221381611f33565b9050919050565b6000602082019050818103600083015261223381611f56565b9050919050565b6000602082019050818103600083015261225381611f79565b9050919050565b6000602082019050818103600083015261227381611f9c565b9050919050565b6000602082019050818103600083015261229381611fbf565b9050919050565b60006020820190506122af60008301846120e3565b92915050565b60006060820190506122ca60008301866120e3565b6122d76020830185611d1e565b81810360408301526122e98184611e57565b9050949350505050565b600060608201905061230860008301866120e3565b6123156020830185611d1e565b81810360408301526123278184611e90565b9050949350505050565b600061233b61234c565b9050612347828261261e565b919050565b6000604051905090565b600067ffffffffffffffff82111561237157612370612754565b5b61237a82612797565b9050602081019050919050565b6000819050602082019050919050565b6000819050602082019050919050565b60008190508160005260206000209050919050565b600081519050919050565b600081519050919050565b600081519050919050565b6000602082019050919050565b6000602082019050919050565b600082825260208201905092915050565b600082825260208201905092915050565b600082825260208201905092915050565b600082825260208201905092915050565b6000612446826125a0565b9150612451836125a0565b9250827fffffffffffffffffffffffffffffffffffffffffffffffffffffffffffffffff0382111561248657612485612698565b5b828201905092915050565b600061249c826125a0565b91506124a7836125a0565b9250826124b7576124b66126c7565b5b828204905092915050565b60006124cd826125a0565b91506124d8836125a0565b9250817fffffffffffffffffffffffffffffffffffffffffffffffffffffffffffffffff048311821515161561251157612510612698565b5b828202905092915050565b6000612527826125a0565b9150612532836125a0565b92508282101561254557612544612698565b5b828203905092915050565b600061255b82612580565b9050919050565b600061256d82612580565b9050919050565b60008115159050919050565b600073ffffffffffffffffffffffffffffffffffffffff82169050919050565b6000819050919050565b82818337600083830152505050565b60005b838110156125d75780820151818401526020810190506125bc565b838111156125e6576000848401525b50505050565b6000600282049050600182168061260457607f821691505b60208210811415612618576126176126f6565b5b50919050565b61262782612797565b810181811067ffffffffffffffff8211171561264657612645612754565b5b80604052505050565b600061265a826125a0565b91507fffffffffffffffffffffffffffffffffffffffffffffffffffffffffffffffff82141561268d5761268c612698565b5b600182019050919050565b7f4e487b7100000000000000000000000000000000000000000000000000000000600052601160045260246000fd5b7f4e487b7100000000000000000000000000000000000000000000000000000000600052601260045260246000fd5b7f4e487b7100000000000000000000000000000000000000000000000000000000600052602260045260246000fd5b7f4e487b7100000000000000000000000000000000000000000000000000000000600052603260045260246000fd5b7f4e487b7100000000000000000000000000000000000000000000000000000000600052604160045260246000fd5b600080fd5b600080fd5b600080fd5b600080fd5b6000601f19601f8301169050919050565b7f4f776e61626c653a206e6577206f776e657220697320746865207a65726f206160008201527f6464726573730000000000000000000000000000000000000000000000000000602082015250565b7f5072696365206d75737420626520657175616c20746f206c697374207072696360008201527f6500000000000000000000000000000000000000000000000000000000000000602082015250565b7f5072696365206d75737420626520686967686572207468616e20302077656900600082015250565b7f4f776e61626c653a2063616c6c6572206973206e6f7420746865206f776e6572600082015250565b7f5265656e7472616e637947756172643a207265656e7472616e742063616c6c00600082015250565b7f646f6573206e6f7420657175616c20746f207072696365000000000000000000600082015250565b6128f381612550565b81146128fe57600080fd5b50565b61290a81612574565b811461291557600080fd5b50565b612921816125a0565b811461292c57600080fd5b5056fea26469706673582212201a7835cb8b30e6d6da75d4c3cdcd0e8f063e8e6d54b3a12faced70f8ff49a27964736f6c63430008070033",
  "immutableReferences": {},
  "source": "// SPDX-License-Identifier: MIT\r\npragma solidity ^0.8.0;\r\n\r\nimport \"@openzeppelin/contracts/utils/Counters.sol\";\r\nimport \"@openzeppelin/contracts/security/ReentrancyGuard.sol\";\r\nimport \"@openzeppelin/contracts/token/ERC721/ERC721.sol\";\r\nimport \"@openzeppelin/contracts/access/Ownable.sol\";\r\n\r\ncontract NFTMarket is ReentrancyGuard, Ownable {\r\n    using Counters for Counters.Counter;\r\n    Counters.Counter private _itemIds;\r\n    Counters.Counter private _itemsSold;\r\n    Counters.Counter private _itemsOnSale;\r\n    Counters.Counter private _OrgIds;\r\n\r\n    uint256 private listingPrice = 0.005 ether;\r\n\r\n    // define DonationItem struct\r\n    struct MarketItem {\r\n        uint itemId;\r\n        address nftContract;\r\n        uint256 tokenId;\r\n        address payable owner;\r\n        uint256 price;\r\n        bool bid;\r\n        bool sold;\r\n        address payable donateTo;\r\n    }\r\n    // define Organization struct\r\n    struct Organization{\r\n        uint256 id;\r\n        address orgAddress;\r\n        string name;\r\n    }\r\n\r\n    // map item token id to Donation Item\r\n    mapping(uint256 => MarketItem) private idToMarketItem;\r\n    mapping(uint256 => Organization) private idToOrgainzations;\r\n\r\n    //event when New Dontation Item is created\r\n    event MarketItemCreated (\r\n        uint indexed itemId,\r\n        address indexed nftContract,\r\n        uint256 indexed tokenId,\r\n        address owner,\r\n        uint256 price,\r\n        bool sold\r\n    );\r\n    //event when new Organizaion is created\r\n    event newOrgCreated(\r\n        uint256 id, \r\n        address _orgAddress, \r\n        string _orgName\r\n        );\r\n    //event when exist organization is deleted\r\n    event orgDeleted(\r\n        uint256 id, \r\n        address _orgAddress, \r\n        string _orgName\r\n    );\r\n    // add an Organization \r\n    function addOrganization(address _orgAddress, string memory _orgName) public onlyOwner returns(uint256){\r\n        //get orgId of current\r\n        uint256 newTokenId = _OrgIds.current();\r\n        //set if to Organization\r\n        idToOrgainzations[newTokenId] = Organization(newTokenId, _orgAddress, _orgName);\r\n        //emit newOrgCreated event\r\n        emit newOrgCreated(newTokenId, _orgAddress, _orgName);\r\n        //increase orgId \r\n        _OrgIds.increment();\r\n        //return for front-end\r\n        return newTokenId;\r\n    }\r\n    //delete an Organization\r\n    function deleteOrgainzation(uint256 _tokenId) public onlyOwner{\r\n        //require(idToOrgainzations[_tokenId],\"This orgization does not exist\");\r\n        emit newOrgCreated(_tokenId, idToOrgainzations[_tokenId].orgAddress, idToOrgainzations[_tokenId].name);\r\n        delete idToOrgainzations[_tokenId];\r\n    }\r\n    //get Organization address by id\r\n    function getOrgAddressById(uint256 _tokenId) public view returns(address){\r\n        return idToOrgainzations[_tokenId].orgAddress;\r\n    }\r\n\r\n    //fetch all organization\r\n    function fetchOrganization() public view returns(Organization[] memory){\r\n        uint totalNumOfOrg = _OrgIds.current();\r\n        uint currentIndex = 0;\r\n        Organization[] memory orgs = new Organization[](totalNumOfOrg);\r\n        \r\n        for(uint i=0; i<totalNumOfOrg; i++){\r\n            uint currentId = idToOrgainzations[i].id;\r\n            Organization storage currentOrg = idToOrgainzations [currentId];\r\n            orgs[currentIndex] = currentOrg;\r\n            currentIndex += 1;\r\n        }\r\n        return orgs;\r\n    }\r\n////////////////////////////////////////////////////////////////////////////////////////////////\r\n    /* Returns the listing price of the contract */\r\n    function getListingPrice() public view returns (uint256) {\r\n        return listingPrice;\r\n    }\r\n    // Setting New Listing Price around 1500 won\r\n    function setListingPrice(uint _newListingPrice) public onlyOwner {\r\n        listingPrice = _newListingPrice;\r\n    }\r\n    // Creating a new Donation Item\r\n    function createMarketItem(\r\n        address nftContract, \r\n        uint256 tokenId, \r\n        uint256 price,\r\n        address _donateToWho,\r\n        bool _bid   \r\n    ) public payable nonReentrant {\r\n        require(price > 0, \"Price must be higher than 0 wei\");\r\n        require(msg.value == listingPrice,\"Price must be equal to list price\");\r\n        \r\n        uint256 itemId = _itemIds.current();\r\n        idToMarketItem[itemId] = MarketItem(\r\n            itemId,\r\n            nftContract,\r\n            tokenId,\r\n            payable(msg.sender),\r\n            price,\r\n            _bid,\r\n            false,\r\n            payable(_donateToWho)\r\n        );\r\n\r\n        IERC721(nftContract).transferFrom(msg.sender, address(this), tokenId);\r\n        _itemIds.increment();\r\n        payable(owner()).transfer(msg.value);\r\n        emit MarketItemCreated(\r\n            itemId, \r\n            nftContract, \r\n            tokenId, \r\n            msg.sender, \r\n            price, \r\n            false\r\n        );\r\n    }\r\n\r\n    //Sell Item\r\n    function createMarketSale(\r\n        address nftContract, \r\n        uint256 _itemId\r\n    ) public payable nonReentrant {\r\n        //get item Price\r\n        uint price = idToMarketItem[_itemId].price;\r\n        //get item Id\r\n        uint tokenId = idToMarketItem[_itemId].tokenId;\r\n        //check Item price is equal to mag.value\r\n        require(msg.value == price,\"does not equal to price\");\r\n        \r\n        //calculate ethers to owner\r\n        uint priceToOwner = (msg.value)/10 * 1;\r\n        //calculate ethers to Org\r\n        uint priceToOrg = ((msg.value)/10) * 9;\r\n        //send ethers to owner and donated Org\r\n        idToMarketItem[_itemId].owner.transfer(priceToOwner);\r\n        idToMarketItem[_itemId].donateTo.transfer(priceToOrg);\r\n        //change the ownership of token to buyer\r\n        IERC721(nftContract).transferFrom(address(this), msg.sender, tokenId);\r\n        idToMarketItem[_itemId].owner = payable(msg.sender);\r\n        idToMarketItem[_itemId].sold = true;\r\n        _itemsSold.increment();\r\n        //payable(owner).transfer(listingPrice);\r\n    }\r\n////////////////////////////////////////////////////////////////////////////////////////////////\r\n    function placeBid(uint256 _itemId) public returns (bool success){\r\n        require(idToMarketItem[_itemId].bid == true);\r\n        \r\n    }\r\n////////////////////////////////////////////////////////////////////////////////////////////////\r\n    //fetch marketItem for frontEnd\r\n    function fetchMarketItems() public view returns (MarketItem[] memory){\r\n        uint itemCount = _itemIds.current();\r\n        uint unsoldItemCount = _itemsOnSale.current() - _itemsSold.current();\r\n        uint currentIndex = 0;\r\n        \r\n        MarketItem[] memory items = new MarketItem[](unsoldItemCount);\r\n        for(uint i=0;i<itemCount;i++){\r\n            if(idToMarketItem[i].bid == false && idToMarketItem[i].sold == false){\r\n                uint currentId = idToMarketItem[i].itemId;\r\n                MarketItem storage currentItem = idToMarketItem [currentId];\r\n                items[currentIndex] = currentItem;\r\n                currentIndex += 1;\r\n            }\r\n        }\r\n        return items;\r\n    }\r\n\r\n    //fetch NFTs that msg.sender owns\r\n    function fetchMyNFTs() public view returns (MarketItem[] memory){\r\n        uint totalItemCount = _itemIds.current();\r\n        uint itemCount = 0;\r\n        uint currentIndex = 0;\r\n        for(uint i = 0; i<totalItemCount; i++){\r\n            if(idToMarketItem[i].owner == msg.sender){\r\n                itemCount += 1;\r\n            }\r\n        }\r\n        MarketItem[] memory items = new MarketItem[](itemCount);\r\n        for(uint i = 0; i<totalItemCount; i++){\r\n            if(idToMarketItem[i].owner == msg.sender){\r\n                uint currentId = idToMarketItem[i].itemId;\r\n                MarketItem storage currentItem = idToMarketItem[currentId];\r\n                items[currentIndex] = currentItem;\r\n                currentIndex += 1;\r\n            }\r\n        }\r\n        return items;\r\n    }\r\n    function fetchBidItems() public view returns(MarketItem[] memory) {\r\n        \r\n    }\r\n\r\n\r\n    \r\n}",
  "sourcePath": "C:\\Users\\holyh\\code\\projects_Dapp\\MilalNFTMarket\\contracts\\NFTMarket.sol",
  "compiler": {
    "name": "solc",
    "version": "0.8.7+commit.e28d00a7.Emscripten.clang"
  },
  "schemaVersion": "3.4.2",
  "updatedAt": "2021-09-10T10:56:26.793Z",
  "networkType": "ethereum",
  "devdoc": {
    "kind": "dev",
    "methods": {
      "owner()": {
        "details": "Returns the address of the current owner."
      },
      "renounceOwnership()": {
        "details": "Leaves the contract without owner. It will not be possible to call `onlyOwner` functions anymore. Can only be called by the current owner. NOTE: Renouncing ownership will leave the contract without an owner, thereby removing any functionality that is only available to the owner."
      },
      "transferOwnership(address)": {
        "details": "Transfers ownership of the contract to a new account (`newOwner`). Can only be called by the current owner."
      }
    },
    "version": 1
  },
  "userdoc": {
    "kind": "user",
    "methods": {},
    "version": 1
  }
}