{
  "contractName": "NFTMarket",
  "abi": [
    {
      "inputs": [],
      "stateMutability": "nonpayable",
      "type": "constructor"
    },
    {
      "anonymous": false,
      "inputs": [
        {
          "indexed": true,
          "internalType": "uint256",
          "name": "itemId",
          "type": "uint256"
        },
        {
          "indexed": true,
          "internalType": "address",
          "name": "nftContract",
          "type": "address"
        },
        {
          "indexed": true,
          "internalType": "uint256",
          "name": "tokenId",
          "type": "uint256"
        },
        {
          "indexed": false,
          "internalType": "address",
          "name": "owner",
          "type": "address"
        },
        {
          "indexed": false,
          "internalType": "uint256",
          "name": "price",
          "type": "uint256"
        },
        {
          "indexed": false,
          "internalType": "bool",
          "name": "sold",
          "type": "bool"
        }
      ],
      "name": "MarketItemCreated",
      "type": "event"
    },
    {
      "inputs": [],
      "name": "getListingPrice",
      "outputs": [
        {
          "internalType": "uint256",
          "name": "",
          "type": "uint256"
        }
      ],
      "stateMutability": "view",
      "type": "function"
    },
    {
      "inputs": [
        {
          "internalType": "address",
          "name": "nftContract",
          "type": "address"
        },
        {
          "internalType": "uint256",
          "name": "tokenId",
          "type": "uint256"
        },
        {
          "internalType": "uint256",
          "name": "price",
          "type": "uint256"
        }
      ],
      "name": "createMarketItem",
      "outputs": [],
      "stateMutability": "payable",
      "type": "function"
    },
    {
      "inputs": [
        {
          "internalType": "address",
          "name": "nftContract",
          "type": "address"
        },
        {
          "internalType": "uint256",
          "name": "itemId",
          "type": "uint256"
        }
      ],
      "name": "createMarketSale",
      "outputs": [],
      "stateMutability": "payable",
      "type": "function"
    },
    {
      "inputs": [],
      "name": "fetchMarketItems",
      "outputs": [
        {
          "components": [
            {
              "internalType": "uint256",
              "name": "itemId",
              "type": "uint256"
            },
            {
              "internalType": "address",
              "name": "nftContract",
              "type": "address"
            },
            {
              "internalType": "uint256",
              "name": "tokenId",
              "type": "uint256"
            },
            {
              "internalType": "address payable",
              "name": "owner",
              "type": "address"
            },
            {
              "internalType": "uint256",
              "name": "price",
              "type": "uint256"
            },
            {
              "internalType": "bool",
              "name": "sold",
              "type": "bool"
            }
          ],
          "internalType": "struct NFTMarket.MarketItem[]",
          "name": "",
          "type": "tuple[]"
        }
      ],
      "stateMutability": "view",
      "type": "function"
    },
    {
      "inputs": [],
      "name": "fetchMyNFTs",
      "outputs": [
        {
          "components": [
            {
              "internalType": "uint256",
              "name": "itemId",
              "type": "uint256"
            },
            {
              "internalType": "address",
              "name": "nftContract",
              "type": "address"
            },
            {
              "internalType": "uint256",
              "name": "tokenId",
              "type": "uint256"
            },
            {
              "internalType": "address payable",
              "name": "owner",
              "type": "address"
            },
            {
              "internalType": "uint256",
              "name": "price",
              "type": "uint256"
            },
            {
              "internalType": "bool",
              "name": "sold",
              "type": "bool"
            }
          ],
          "internalType": "struct NFTMarket.MarketItem[]",
          "name": "",
          "type": "tuple[]"
        }
      ],
      "stateMutability": "view",
      "type": "function"
    }
  ],
  "bytecode": "0x60806040526658d15e1762800060055534801561001b57600080fd5b50600160008190555033600460006101000a81548173ffffffffffffffffffffffffffffffffffffffff021916908373ffffffffffffffffffffffffffffffffffffffff1602179055506112a2806100746000396000f3fe60806040526004361061004a5760003560e01c80630f08efe01461004f57806312e855851461007a578063202e3740146100a557806358eb2df5146100d0578063c23b139e146100ec575b600080fd5b34801561005b57600080fd5b50610064610108565b6040516100719190610f1d565b60405180910390f35b34801561008657600080fd5b5061008f6103ac565b60405161009c9190610f9f565b60405180910390f35b3480156100b157600080fd5b506100ba6103b6565b6040516100c79190610f1d565b60405180910390f35b6100ea60048036038101906100e59190610c99565b6106a0565b005b61010660048036038101906101019190610c59565b610959565b005b606060006101166001610ba7565b905060006101246002610ba7565b61012e6003610ba7565b610138919061105a565b90506000808267ffffffffffffffff8111156101575761015661118f565b5b60405190808252806020026020018201604052801561019057816020015b61017d610bcb565b8152602001906001900390816101755790505b50905060005b848110156103a1573373ffffffffffffffffffffffffffffffffffffffff166006600083815260200190815260200160002060030160009054906101000a900473ffffffffffffffffffffffffffffffffffffffff1673ffffffffffffffffffffffffffffffffffffffff161480156102365750600015156006600083815260200190815260200160002060050160009054906101000a900460ff161515145b1561038e576000600660008381526020019081526020016000206000015490506000600660008381526020019081526020016000209050806040518060c0016040529081600082015481526020016001820160009054906101000a900473ffffffffffffffffffffffffffffffffffffffff1673ffffffffffffffffffffffffffffffffffffffff1673ffffffffffffffffffffffffffffffffffffffff168152602001600282015481526020016003820160009054906101000a900473ffffffffffffffffffffffffffffffffffffffff1673ffffffffffffffffffffffffffffffffffffffff1673ffffffffffffffffffffffffffffffffffffffff168152602001600482015481526020016005820160009054906101000a900460ff16151515158152505084868151811061037157610370611160565b5b60200260200101819052506001856103899190611004565b945050505b8080610399906110e8565b915050610196565b508094505050505090565b6000600554905090565b606060006103c46001610ba7565b905060008060005b83811015610461573373ffffffffffffffffffffffffffffffffffffffff166006600083815260200190815260200160002060030160009054906101000a900473ffffffffffffffffffffffffffffffffffffffff1673ffffffffffffffffffffffffffffffffffffffff16141561044e5760018361044b9190611004565b92505b8080610459906110e8565b9150506103cc565b5060008267ffffffffffffffff81111561047e5761047d61118f565b5b6040519080825280602002602001820160405280156104b757816020015b6104a4610bcb565b81526020019060019003908161049c5790505b50905060005b84811015610695573373ffffffffffffffffffffffffffffffffffffffff166006600083815260200190815260200160002060030160009054906101000a900473ffffffffffffffffffffffffffffffffffffffff1673ffffffffffffffffffffffffffffffffffffffff161415610682576000600660008381526020019081526020016000206000015490506000600660008381526020019081526020016000209050806040518060c0016040529081600082015481526020016001820160009054906101000a900473ffffffffffffffffffffffffffffffffffffffff1673ffffffffffffffffffffffffffffffffffffffff1673ffffffffffffffffffffffffffffffffffffffff168152602001600282015481526020016003820160009054906101000a900473ffffffffffffffffffffffffffffffffffffffff1673ffffffffffffffffffffffffffffffffffffffff1673ffffffffffffffffffffffffffffffffffffffff168152602001600482015481526020016005820160009054906101000a900460ff16151515158152505084868151811061066557610664611160565b5b602002602001018190525060018561067d9190611004565b945050505b808061068d906110e8565b9150506104bd565b508094505050505090565b600260005414156106e6576040517f08c379a00000000000000000000000000000000000000000000000000000000081526004016106dd90610f5f565b60405180910390fd5b600260008190555060008111610731576040517f08c379a000000000000000000000000000000000000000000000000000000000815260040161072890610f3f565b60405180910390fd5b600061073d6001610ba7565b90506040518060c001604052808281526020018573ffffffffffffffffffffffffffffffffffffffff1681526020018481526020013373ffffffffffffffffffffffffffffffffffffffff16815260200183815260200160001515815250600660008381526020019081526020016000206000820151816000015560208201518160010160006101000a81548173ffffffffffffffffffffffffffffffffffffffff021916908373ffffffffffffffffffffffffffffffffffffffff1602179055506040820151816002015560608201518160030160006101000a81548173ffffffffffffffffffffffffffffffffffffffff021916908373ffffffffffffffffffffffffffffffffffffffff1602179055506080820151816004015560a08201518160050160006101000a81548160ff0219169083151502179055509050508373ffffffffffffffffffffffffffffffffffffffff166323b872dd3330866040518463ffffffff1660e01b81526004016108ba93929190610eaf565b600060405180830381600087803b1580156108d457600080fd5b505af11580156108e8573d6000803e3d6000fd5b505050506108f66001610bb5565b828473ffffffffffffffffffffffffffffffffffffffff16827f3a703684ac0e06cbc245a465cb3c43faf40a53aff175518595f6aac9d61afe633386600060405161094393929190610ee6565b60405180910390a4506001600081905550505050565b6002600054141561099f576040517f08c379a000000000000000000000000000000000000000000000000000000000815260040161099690610f5f565b60405180910390fd5b6002600081905550600060066000838152602001908152602001600020600401549050600060066000848152602001908152602001600020600201549050813414610a1f576040517f08c379a0000000000000000000000000000000000000000000000000000000008152600401610a1690610f7f565b60405180910390fd5b6006600084815260200190815260200160002060030160009054906101000a900473ffffffffffffffffffffffffffffffffffffffff1673ffffffffffffffffffffffffffffffffffffffff166108fc349081150290604051600060405180830381858888f19350505050158015610a9b573d6000803e3d6000fd5b508373ffffffffffffffffffffffffffffffffffffffff166323b872dd3033846040518463ffffffff1660e01b8152600401610ad993929190610eaf565b600060405180830381600087803b158015610af357600080fd5b505af1158015610b07573d6000803e3d6000fd5b50505050336006600085815260200190815260200160002060030160006101000a81548173ffffffffffffffffffffffffffffffffffffffff021916908373ffffffffffffffffffffffffffffffffffffffff16021790555060016006600085815260200190815260200160002060050160006101000a81548160ff021916908315150217905550610b996002610bb5565b505060016000819055505050565b600081600001549050919050565b6001816000016000828254019250508190555050565b6040518060c0016040528060008152602001600073ffffffffffffffffffffffffffffffffffffffff16815260200160008152602001600073ffffffffffffffffffffffffffffffffffffffff168152602001600081526020016000151581525090565b600081359050610c3e8161123e565b92915050565b600081359050610c5381611255565b92915050565b60008060408385031215610c7057610c6f6111be565b5b6000610c7e85828601610c2f565b9250506020610c8f85828601610c44565b9150509250929050565b600080600060608486031215610cb257610cb16111be565b5b6000610cc086828701610c2f565b9350506020610cd186828701610c44565b9250506040610ce286828701610c44565b9150509250925092565b6000610cf88383610e16565b60c08301905092915050565b610d0d816110a0565b82525050565b610d1c8161108e565b82525050565b610d2b8161108e565b82525050565b6000610d3c82610fca565b610d468185610fe2565b9350610d5183610fba565b8060005b83811015610d82578151610d698882610cec565b9750610d7483610fd5565b925050600181019050610d55565b5085935050505092915050565b610d98816110b2565b82525050565b610da7816110b2565b82525050565b6000610dba601f83610ff3565b9150610dc5826111c3565b602082019050919050565b6000610ddd601f83610ff3565b9150610de8826111ec565b602082019050919050565b6000610e00601783610ff3565b9150610e0b82611215565b602082019050919050565b60c082016000820151610e2c6000850182610e91565b506020820151610e3f6020850182610d13565b506040820151610e526040850182610e91565b506060820151610e656060850182610d04565b506080820151610e786080850182610e91565b5060a0820151610e8b60a0850182610d8f565b50505050565b610e9a816110de565b82525050565b610ea9816110de565b82525050565b6000606082019050610ec46000830186610d22565b610ed16020830185610d22565b610ede6040830184610ea0565b949350505050565b6000606082019050610efb6000830186610d22565b610f086020830185610ea0565b610f156040830184610d9e565b949350505050565b60006020820190508181036000830152610f378184610d31565b905092915050565b60006020820190508181036000830152610f5881610dad565b9050919050565b60006020820190508181036000830152610f7881610dd0565b9050919050565b60006020820190508181036000830152610f9881610df3565b9050919050565b6000602082019050610fb46000830184610ea0565b92915050565b6000819050602082019050919050565b600081519050919050565b6000602082019050919050565b600082825260208201905092915050565b600082825260208201905092915050565b600061100f826110de565b915061101a836110de565b9250827fffffffffffffffffffffffffffffffffffffffffffffffffffffffffffffffff0382111561104f5761104e611131565b5b828201905092915050565b6000611065826110de565b9150611070836110de565b92508282101561108357611082611131565b5b828203905092915050565b6000611099826110be565b9050919050565b60006110ab826110be565b9050919050565b60008115159050919050565b600073ffffffffffffffffffffffffffffffffffffffff82169050919050565b6000819050919050565b60006110f3826110de565b91507fffffffffffffffffffffffffffffffffffffffffffffffffffffffffffffffff82141561112657611125611131565b5b600182019050919050565b7f4e487b7100000000000000000000000000000000000000000000000000000000600052601160045260246000fd5b7f4e487b7100000000000000000000000000000000000000000000000000000000600052603260045260246000fd5b7f4e487b7100000000000000000000000000000000000000000000000000000000600052604160045260246000fd5b600080fd5b7f5072696365206d75737420626520686967686572207468616e20302077656900600082015250565b7f5265656e7472616e637947756172643a207265656e7472616e742063616c6c00600082015250565b7f646f6573206e6f7420657175616c20746f207072696365000000000000000000600082015250565b6112478161108e565b811461125257600080fd5b50565b61125e816110de565b811461126957600080fd5b5056fea2646970667358221220b035ec2a70538741bc13bd2006cfd1dfe5a94c61c21240279eab5d5abe67c07a64736f6c63430008070033",
  "immutableReferences": {},
  "source": "// SPDX-License-Identifier: MIT\r\npragma solidity ^0.8.0;\r\n\r\nimport \"@openzeppelin/contracts/utils/Counters.sol\";\r\nimport \"@openzeppelin/contracts/security/ReentrancyGuard.sol\";\r\nimport \"@openzeppelin/contracts/token/ERC721/ERC721.sol\";\r\n\r\ncontract NFTMarket is ReentrancyGuard {\r\n    using Counters for Counters.Counter;\r\n    Counters.Counter private _itemIds;\r\n    Counters.Counter private _itemsSold;\r\n    Counters.Counter private _itemsOnSale;\r\n\r\n    address payable owner;\r\n    uint256 listingPrice = 0.025 ether;\r\n\r\n    constructor() {\r\n        owner = payable(msg.sender);\r\n    }\r\n\r\n    struct MarketItem {\r\n        uint itemId;\r\n        address nftContract;\r\n        uint256 tokenId;\r\n        address payable owner;\r\n        uint256 price;\r\n        bool sold;\r\n    }\r\n\r\n    mapping(uint256 => MarketItem) private idToMarketItem;\r\n\r\n    event MarketItemCreated (\r\n        uint indexed itemId,\r\n        address indexed nftContract,\r\n        uint256 indexed tokenId,\r\n        address owner,\r\n        uint256 price,\r\n        bool sold\r\n    );\r\n\r\n    /* Returns the listing price of the contract */\r\n    function getListingPrice() public view returns (uint256) {\r\n        return listingPrice;\r\n    }\r\n\r\n    function createMarketItem(\r\n        address nftContract, \r\n        uint256 tokenId, \r\n        uint256 price        \r\n    ) public payable nonReentrant {\r\n        require(price > 0, \"Price must be higher than 0 wei\");\r\n        //require(msg.value == listingPrice,\"Price mush be equal to list price\");\r\n        \r\n        uint256 itemId = _itemIds.current();\r\n        idToMarketItem[itemId] = MarketItem(\r\n            itemId,\r\n            nftContract,\r\n            tokenId,\r\n            payable(msg.sender),\r\n            price,\r\n            false\r\n        );\r\n\r\n        IERC721(nftContract).transferFrom(msg.sender, address(this), tokenId);\r\n        _itemIds.increment();\r\n\r\n        emit MarketItemCreated(\r\n            itemId, \r\n            nftContract, \r\n            tokenId, \r\n            msg.sender, \r\n            price, \r\n            false\r\n        );\r\n    }\r\n\r\n    /*function sellNFT(uint256 itemId) public{\r\n        require(msg.sender == idToMarketItem[itemId].seller, \"only onwer can sell this NFT\");\r\n        idToMarketItem[itemId].onSale == true;\r\n        _itemsOnSale.increment();\r\n    }*/\r\n\r\n    function createMarketSale(\r\n        address nftContract, \r\n        uint256 itemId\r\n    ) public payable nonReentrant {\r\n        uint price = idToMarketItem[itemId].price;\r\n        uint tokenId = idToMarketItem[itemId].tokenId;\r\n        require(msg.value == price,\"does not equal to price\");\r\n\r\n        idToMarketItem[itemId].owner.transfer(msg.value);\r\n        IERC721(nftContract).transferFrom(address(this), msg.sender, tokenId);\r\n        idToMarketItem[itemId].owner = payable(msg.sender);\r\n        idToMarketItem[itemId].sold = true;\r\n        _itemsSold.increment();\r\n        //payable(owner).transfer(listingPrice);\r\n    }\r\n\r\n    //fetch marketItem for frontEnd\r\n    function fetchMarketItems() public view returns (MarketItem[] memory){\r\n        uint itemCount = _itemIds.current();\r\n        uint unsoldItemCount = _itemsOnSale.current() - _itemsSold.current();\r\n        uint currentIndex = 0;\r\n        \r\n        MarketItem[] memory items = new MarketItem[](unsoldItemCount);\r\n        for(uint i=0;i<itemCount;i++){\r\n            if(idToMarketItem[i].owner == msg.sender && idToMarketItem[i].sold == false){\r\n                uint currentId = idToMarketItem[i].itemId;\r\n                MarketItem storage currentItem = idToMarketItem [currentId];\r\n                items[currentIndex] = currentItem;\r\n                currentIndex += 1;\r\n            }\r\n        }\r\n        return items;\r\n    }\r\n\r\n    function fetchMyNFTs() public view returns (MarketItem[] memory){\r\n        uint totalItemCount = _itemIds.current();\r\n        uint itemCount = 0;\r\n        uint currentIndex = 0;\r\n        for(uint i = 0; i<totalItemCount; i++){\r\n            if(idToMarketItem[i].owner == msg.sender){\r\n                itemCount += 1;\r\n            }\r\n        }\r\n        MarketItem[] memory items = new MarketItem[](itemCount);\r\n        for(uint i = 0; i<totalItemCount; i++){\r\n            if(idToMarketItem[i].owner == msg.sender){\r\n                uint currentId = idToMarketItem[i].itemId;\r\n                MarketItem storage currentItem = idToMarketItem[currentId];\r\n                items[currentIndex] = currentItem;\r\n                currentIndex += 1;\r\n            }\r\n        }\r\n        return items;\r\n    }\r\n\r\n    /*function fetchItemsCreated() public view returns (MarketItem[] memory){\r\n        uint totalItemCount = _itemIds.current();\r\n        uint itemCount = 0;\r\n        uint currentIndex = 0;\r\n        \r\n        for(uint i=0; i<totalItemCount;i++){\r\n            if(idToMarketItem[i].seller == msg.sender) {\r\n                itemCount++;\r\n            }\r\n        }\r\n\r\n        MarketItem[] memory items = new MarketItem[](itemCount);\r\n        for(uint i=0;i<totalItemCount;i++){\r\n            uint currentId = idToMarketItem[i].itemId;\r\n            MarketItem storage currentItem = idToMarketItem[currentId];\r\n            items[currentIndex] = currentItem;\r\n            currentIndex += 1;\r\n        }\r\n        return items;\r\n    }*/\r\n\r\n\r\n    \r\n}",
  "sourcePath": "C:\\Users\\holyh\\code\\projects_Dapp\\MilalNFTMarket\\contracts\\NFTMarket.sol",
  "compiler": {
    "name": "solc",
    "version": "0.8.7+commit.e28d00a7.Emscripten.clang"
  },
  "schemaVersion": "3.4.2",
  "updatedAt": "2021-08-16T09:47:49.876Z",
  "devdoc": {
    "kind": "dev",
    "methods": {},
    "version": 1
  },
  "userdoc": {
    "kind": "user",
    "methods": {},
    "version": 1
  }
}