{
  "contractName": "NFTMarket",
  "abi": [
    {
      "anonymous": false,
      "inputs": [
        {
          "indexed": true,
          "internalType": "uint256",
          "name": "itemId",
          "type": "uint256"
        },
        {
          "indexed": true,
          "internalType": "address",
          "name": "nftContract",
          "type": "address"
        },
        {
          "indexed": true,
          "internalType": "uint256",
          "name": "tokenId",
          "type": "uint256"
        },
        {
          "indexed": false,
          "internalType": "address",
          "name": "owner",
          "type": "address"
        },
        {
          "indexed": false,
          "internalType": "uint256",
          "name": "price",
          "type": "uint256"
        },
        {
          "indexed": false,
          "internalType": "bool",
          "name": "sold",
          "type": "bool"
        }
      ],
      "name": "MarketItemCreated",
      "type": "event"
    },
    {
      "anonymous": false,
      "inputs": [
        {
          "indexed": true,
          "internalType": "address",
          "name": "previousOwner",
          "type": "address"
        },
        {
          "indexed": true,
          "internalType": "address",
          "name": "newOwner",
          "type": "address"
        }
      ],
      "name": "OwnershipTransferred",
      "type": "event"
    },
    {
      "anonymous": false,
      "inputs": [
        {
          "indexed": false,
          "internalType": "uint256",
          "name": "id",
          "type": "uint256"
        },
        {
          "indexed": false,
          "internalType": "address",
          "name": "_orgAddress",
          "type": "address"
        },
        {
          "indexed": false,
          "internalType": "string",
          "name": "_orgName",
          "type": "string"
        }
      ],
      "name": "newOrgCreated",
      "type": "event"
    },
    {
      "anonymous": false,
      "inputs": [
        {
          "indexed": false,
          "internalType": "uint256",
          "name": "id",
          "type": "uint256"
        },
        {
          "indexed": false,
          "internalType": "address",
          "name": "_orgAddress",
          "type": "address"
        },
        {
          "indexed": false,
          "internalType": "string",
          "name": "_orgName",
          "type": "string"
        }
      ],
      "name": "orgDeleted",
      "type": "event"
    },
    {
      "inputs": [],
      "name": "owner",
      "outputs": [
        {
          "internalType": "address",
          "name": "",
          "type": "address"
        }
      ],
      "stateMutability": "view",
      "type": "function"
    },
    {
      "inputs": [],
      "name": "renounceOwnership",
      "outputs": [],
      "stateMutability": "nonpayable",
      "type": "function"
    },
    {
      "inputs": [
        {
          "internalType": "address",
          "name": "newOwner",
          "type": "address"
        }
      ],
      "name": "transferOwnership",
      "outputs": [],
      "stateMutability": "nonpayable",
      "type": "function"
    },
    {
      "inputs": [
        {
          "internalType": "address",
          "name": "_orgAddress",
          "type": "address"
        },
        {
          "internalType": "string",
          "name": "_orgName",
          "type": "string"
        }
      ],
      "name": "addOrganization",
      "outputs": [],
      "stateMutability": "nonpayable",
      "type": "function"
    },
    {
      "inputs": [
        {
          "internalType": "uint256",
          "name": "_tokenId",
          "type": "uint256"
        }
      ],
      "name": "deleteOrgainzation",
      "outputs": [],
      "stateMutability": "nonpayable",
      "type": "function"
    },
    {
      "inputs": [
        {
          "internalType": "uint256",
          "name": "_tokenId",
          "type": "uint256"
        }
      ],
      "name": "getOrgAddressById",
      "outputs": [
        {
          "internalType": "address",
          "name": "",
          "type": "address"
        }
      ],
      "stateMutability": "view",
      "type": "function"
    },
    {
      "inputs": [],
      "name": "getListingPrice",
      "outputs": [
        {
          "internalType": "uint256",
          "name": "",
          "type": "uint256"
        }
      ],
      "stateMutability": "view",
      "type": "function"
    },
    {
      "inputs": [
        {
          "internalType": "uint256",
          "name": "_newListingPrice",
          "type": "uint256"
        }
      ],
      "name": "setLIstingPrice",
      "outputs": [],
      "stateMutability": "nonpayable",
      "type": "function"
    },
    {
      "inputs": [
        {
          "internalType": "address",
          "name": "nftContract",
          "type": "address"
        },
        {
          "internalType": "uint256",
          "name": "tokenId",
          "type": "uint256"
        },
        {
          "internalType": "uint256",
          "name": "price",
          "type": "uint256"
        },
        {
          "internalType": "address",
          "name": "_donateToWho",
          "type": "address"
        }
      ],
      "name": "createMarketItem",
      "outputs": [],
      "stateMutability": "payable",
      "type": "function"
    },
    {
      "inputs": [
        {
          "internalType": "address",
          "name": "nftContract",
          "type": "address"
        },
        {
          "internalType": "uint256",
          "name": "_itemId",
          "type": "uint256"
        }
      ],
      "name": "createMarketSale",
      "outputs": [],
      "stateMutability": "payable",
      "type": "function"
    },
    {
      "inputs": [],
      "name": "fetchMarketItems",
      "outputs": [
        {
          "components": [
            {
              "internalType": "uint256",
              "name": "itemId",
              "type": "uint256"
            },
            {
              "internalType": "address",
              "name": "nftContract",
              "type": "address"
            },
            {
              "internalType": "uint256",
              "name": "tokenId",
              "type": "uint256"
            },
            {
              "internalType": "address payable",
              "name": "owner",
              "type": "address"
            },
            {
              "internalType": "uint256",
              "name": "price",
              "type": "uint256"
            },
            {
              "internalType": "bool",
              "name": "sold",
              "type": "bool"
            },
            {
              "internalType": "address payable",
              "name": "donateTo",
              "type": "address"
            }
          ],
          "internalType": "struct NFTMarket.MarketItem[]",
          "name": "",
          "type": "tuple[]"
        }
      ],
      "stateMutability": "view",
      "type": "function"
    },
    {
      "inputs": [],
      "name": "fetchMyNFTs",
      "outputs": [
        {
          "components": [
            {
              "internalType": "uint256",
              "name": "itemId",
              "type": "uint256"
            },
            {
              "internalType": "address",
              "name": "nftContract",
              "type": "address"
            },
            {
              "internalType": "uint256",
              "name": "tokenId",
              "type": "uint256"
            },
            {
              "internalType": "address payable",
              "name": "owner",
              "type": "address"
            },
            {
              "internalType": "uint256",
              "name": "price",
              "type": "uint256"
            },
            {
              "internalType": "bool",
              "name": "sold",
              "type": "bool"
            },
            {
              "internalType": "address payable",
              "name": "donateTo",
              "type": "address"
            }
          ],
          "internalType": "struct NFTMarket.MarketItem[]",
          "name": "",
          "type": "tuple[]"
        }
      ],
      "stateMutability": "view",
      "type": "function"
    }
  ],
  "bytecode": "0x60806040526611c37937e0800060065534801561001b57600080fd5b50600160008190555061004061003561004560201b60201c565b61004d60201b60201c565b610113565b600033905090565b6000600160009054906101000a900473ffffffffffffffffffffffffffffffffffffffff16905081600160006101000a81548173ffffffffffffffffffffffffffffffffffffffff021916908373ffffffffffffffffffffffffffffffffffffffff1602179055508173ffffffffffffffffffffffffffffffffffffffff168173ffffffffffffffffffffffffffffffffffffffff167f8be0079c531659141344cd1fd0a4f28419497f9722a3daafe3b4186f6b6457e060405160405180910390a35050565b61231980620001236000396000f3fe6080604052600436106100a75760003560e01c8063715018a611610064578063715018a6146101bc5780638da5cb5b146101d3578063b37654a7146101fe578063b6cbb28f1461021a578063c23b139e14610243578063f2fde38b1461025f576100a7565b80630f08efe0146100ac57806312e85585146100d7578063202e3740146101025780635296598c1461012d578063534363ea1461016a5780636867478a14610193575b600080fd5b3480156100b857600080fd5b506100c1610288565b6040516100ce9190611c3c565b60405180910390f35b3480156100e357600080fd5b506100ec610582565b6040516100f99190611cfe565b60405180910390f35b34801561010e57600080fd5b5061011761058c565b6040516101249190611c3c565b60405180910390f35b34801561013957600080fd5b50610154600480360381019061014f91906118b1565b6108cc565b6040516101619190611bb3565b60405180910390f35b34801561017657600080fd5b50610191600480360381019061018c91906118b1565b61090c565b005b34801561019f57600080fd5b506101ba60048036038101906101b591906117ae565b610992565b005b3480156101c857600080fd5b506101d1610b1b565b005b3480156101df57600080fd5b506101e8610ba3565b6040516101f59190611bb3565b60405180910390f35b6102186004803603810190610213919061184a565b610bcd565b005b34801561022657600080fd5b50610241600480360381019061023c91906118b1565b610f38565b005b61025d6004803603810190610258919061180a565b611092565b005b34801561026b57600080fd5b5061028660048036038101906102819190611781565b611399565b005b606060006102966002611491565b905060006102a46003611491565b6102ae6004611491565b6102b89190611f36565b90506000808267ffffffffffffffff8111156102d7576102d661216e565b5b60405190808252806020026020018201604052801561031057816020015b6102fd611583565b8152602001906001900390816102f55790505b50905060005b84811015610577573373ffffffffffffffffffffffffffffffffffffffff166007600083815260200190815260200160002060030160009054906101000a900473ffffffffffffffffffffffffffffffffffffffff1673ffffffffffffffffffffffffffffffffffffffff161480156103b65750600015156007600083815260200190815260200160002060050160009054906101000a900460ff161515145b15610564576000600760008381526020019081526020016000206000015490506000600760008381526020019081526020016000209050806040518060e0016040529081600082015481526020016001820160009054906101000a900473ffffffffffffffffffffffffffffffffffffffff1673ffffffffffffffffffffffffffffffffffffffff1673ffffffffffffffffffffffffffffffffffffffff168152602001600282015481526020016003820160009054906101000a900473ffffffffffffffffffffffffffffffffffffffff1673ffffffffffffffffffffffffffffffffffffffff1673ffffffffffffffffffffffffffffffffffffffff168152602001600482015481526020016005820160009054906101000a900460ff161515151581526020016005820160019054906101000a900473ffffffffffffffffffffffffffffffffffffffff1673ffffffffffffffffffffffffffffffffffffffff1673ffffffffffffffffffffffffffffffffffffffff16815250508486815181106105475761054661213f565b5b602002602001018190525060018561055f9190611e55565b945050505b808061056f90612069565b915050610316565b508094505050505090565b6000600654905090565b6060600061059a6002611491565b905060008060005b83811015610637573373ffffffffffffffffffffffffffffffffffffffff166007600083815260200190815260200160002060030160009054906101000a900473ffffffffffffffffffffffffffffffffffffffff1673ffffffffffffffffffffffffffffffffffffffff161415610624576001836106219190611e55565b92505b808061062f90612069565b9150506105a2565b5060008267ffffffffffffffff8111156106545761065361216e565b5b60405190808252806020026020018201604052801561068d57816020015b61067a611583565b8152602001906001900390816106725790505b50905060005b848110156108c1573373ffffffffffffffffffffffffffffffffffffffff166007600083815260200190815260200160002060030160009054906101000a900473ffffffffffffffffffffffffffffffffffffffff1673ffffffffffffffffffffffffffffffffffffffff1614156108ae576000600760008381526020019081526020016000206000015490506000600760008381526020019081526020016000209050806040518060e0016040529081600082015481526020016001820160009054906101000a900473ffffffffffffffffffffffffffffffffffffffff1673ffffffffffffffffffffffffffffffffffffffff1673ffffffffffffffffffffffffffffffffffffffff168152602001600282015481526020016003820160009054906101000a900473ffffffffffffffffffffffffffffffffffffffff1673ffffffffffffffffffffffffffffffffffffffff1673ffffffffffffffffffffffffffffffffffffffff168152602001600482015481526020016005820160009054906101000a900460ff161515151581526020016005820160019054906101000a900473ffffffffffffffffffffffffffffffffffffffff1673ffffffffffffffffffffffffffffffffffffffff1673ffffffffffffffffffffffffffffffffffffffff16815250508486815181106108915761089061213f565b5b60200260200101819052506001856108a99190611e55565b945050505b80806108b990612069565b915050610693565b508094505050505090565b60006008600083815260200190815260200160002060010160009054906101000a900473ffffffffffffffffffffffffffffffffffffffff169050919050565b61091461149f565b73ffffffffffffffffffffffffffffffffffffffff16610932610ba3565b73ffffffffffffffffffffffffffffffffffffffff1614610988576040517f08c379a000000000000000000000000000000000000000000000000000000000815260040161097f90611c9e565b60405180910390fd5b8060068190555050565b61099a61149f565b73ffffffffffffffffffffffffffffffffffffffff166109b8610ba3565b73ffffffffffffffffffffffffffffffffffffffff1614610a0e576040517f08c379a0000000000000000000000000000000000000000000000000000000008152600401610a0590611c9e565b60405180910390fd5b6000610a1a6005611491565b905060405180606001604052808281526020018473ffffffffffffffffffffffffffffffffffffffff16815260200183815250600860008381526020019081526020016000206000820151816000015560208201518160010160006101000a81548173ffffffffffffffffffffffffffffffffffffffff021916908373ffffffffffffffffffffffffffffffffffffffff1602179055506040820151816002019080519060200190610acd929190611604565b509050507f8e3149d65a2b302cac071680086a826a48959636bf6abecb36e151b419621f75818484604051610b0493929190611d19565b60405180910390a1610b1660056114a7565b505050565b610b2361149f565b73ffffffffffffffffffffffffffffffffffffffff16610b41610ba3565b73ffffffffffffffffffffffffffffffffffffffff1614610b97576040517f08c379a0000000000000000000000000000000000000000000000000000000008152600401610b8e90611c9e565b60405180910390fd5b610ba160006114bd565b565b6000600160009054906101000a900473ffffffffffffffffffffffffffffffffffffffff16905090565b60026000541415610c13576040517f08c379a0000000000000000000000000000000000000000000000000000000008152600401610c0a90611cbe565b60405180910390fd5b600260008190555060008211610c5e576040517f08c379a0000000000000000000000000000000000000000000000000000000008152600401610c5590611c7e565b60405180910390fd5b6000610c6a6002611491565b90506040518060e001604052808281526020018673ffffffffffffffffffffffffffffffffffffffff1681526020018581526020013373ffffffffffffffffffffffffffffffffffffffff1681526020018481526020016000151581526020018373ffffffffffffffffffffffffffffffffffffffff16815250600760008381526020019081526020016000206000820151816000015560208201518160010160006101000a81548173ffffffffffffffffffffffffffffffffffffffff021916908373ffffffffffffffffffffffffffffffffffffffff1602179055506040820151816002015560608201518160030160006101000a81548173ffffffffffffffffffffffffffffffffffffffff021916908373ffffffffffffffffffffffffffffffffffffffff1602179055506080820151816004015560a08201518160050160006101000a81548160ff02191690831515021790555060c08201518160050160016101000a81548173ffffffffffffffffffffffffffffffffffffffff021916908373ffffffffffffffffffffffffffffffffffffffff1602179055509050508473ffffffffffffffffffffffffffffffffffffffff166323b872dd3330876040518463ffffffff1660e01b8152600401610e4a93929190611bce565b600060405180830381600087803b158015610e6457600080fd5b505af1158015610e78573d6000803e3d6000fd5b50505050610e8660026114a7565b610e8e610ba3565b73ffffffffffffffffffffffffffffffffffffffff166108fc349081150290604051600060405180830381858888f19350505050158015610ed3573d6000803e3d6000fd5b50838573ffffffffffffffffffffffffffffffffffffffff16827f3a703684ac0e06cbc245a465cb3c43faf40a53aff175518595f6aac9d61afe6333876000604051610f2193929190611c05565b60405180910390a450600160008190555050505050565b610f4061149f565b73ffffffffffffffffffffffffffffffffffffffff16610f5e610ba3565b73ffffffffffffffffffffffffffffffffffffffff1614610fb4576040517f08c379a0000000000000000000000000000000000000000000000000000000008152600401610fab90611c9e565b60405180910390fd5b7f8e3149d65a2b302cac071680086a826a48959636bf6abecb36e151b419621f75816008600084815260200190815260200160002060010160009054906101000a900473ffffffffffffffffffffffffffffffffffffffff166008600085815260200190815260200160002060020160405161103293929190611d57565b60405180910390a1600860008281526020019081526020016000206000808201600090556001820160006101000a81549073ffffffffffffffffffffffffffffffffffffffff021916905560028201600061108d919061168a565b505050565b600260005414156110d8576040517f08c379a00000000000000000000000000000000000000000000000000000000081526004016110cf90611cbe565b60405180910390fd5b6002600081905550600060076000838152602001908152602001600020600401549050600060076000848152602001908152602001600020600201549050813414611158576040517f08c379a000000000000000000000000000000000000000000000000000000000815260040161114f90611cde565b60405180910390fd5b60006001600a346111699190611eab565b6111739190611edc565b905060006009600a346111869190611eab565b6111909190611edc565b90506007600086815260200190815260200160002060030160009054906101000a900473ffffffffffffffffffffffffffffffffffffffff1673ffffffffffffffffffffffffffffffffffffffff166108fc839081150290604051600060405180830381858888f1935050505015801561120e573d6000803e3d6000fd5b506007600086815260200190815260200160002060050160019054906101000a900473ffffffffffffffffffffffffffffffffffffffff1673ffffffffffffffffffffffffffffffffffffffff166108fc829081150290604051600060405180830381858888f1935050505015801561128b573d6000803e3d6000fd5b508573ffffffffffffffffffffffffffffffffffffffff166323b872dd3033866040518463ffffffff1660e01b81526004016112c993929190611bce565b600060405180830381600087803b1580156112e357600080fd5b505af11580156112f7573d6000803e3d6000fd5b50505050336007600087815260200190815260200160002060030160006101000a81548173ffffffffffffffffffffffffffffffffffffffff021916908373ffffffffffffffffffffffffffffffffffffffff16021790555060016007600087815260200190815260200160002060050160006101000a81548160ff02191690831515021790555061138960036114a7565b5050505060016000819055505050565b6113a161149f565b73ffffffffffffffffffffffffffffffffffffffff166113bf610ba3565b73ffffffffffffffffffffffffffffffffffffffff1614611415576040517f08c379a000000000000000000000000000000000000000000000000000000000815260040161140c90611c9e565b60405180910390fd5b600073ffffffffffffffffffffffffffffffffffffffff168173ffffffffffffffffffffffffffffffffffffffff161415611485576040517f08c379a000000000000000000000000000000000000000000000000000000000815260040161147c90611c5e565b60405180910390fd5b61148e816114bd565b50565b600081600001549050919050565b600033905090565b6001816000016000828254019250508190555050565b6000600160009054906101000a900473ffffffffffffffffffffffffffffffffffffffff16905081600160006101000a81548173ffffffffffffffffffffffffffffffffffffffff021916908373ffffffffffffffffffffffffffffffffffffffff1602179055508173ffffffffffffffffffffffffffffffffffffffff168173ffffffffffffffffffffffffffffffffffffffff167f8be0079c531659141344cd1fd0a4f28419497f9722a3daafe3b4186f6b6457e060405160405180910390a35050565b6040518060e0016040528060008152602001600073ffffffffffffffffffffffffffffffffffffffff16815260200160008152602001600073ffffffffffffffffffffffffffffffffffffffff16815260200160008152602001600015158152602001600073ffffffffffffffffffffffffffffffffffffffff1681525090565b82805461161090612006565b90600052602060002090601f0160209004810192826116325760008555611679565b82601f1061164b57805160ff1916838001178555611679565b82800160010185558215611679579182015b8281111561167857825182559160200191906001019061165d565b5b50905061168691906116ca565b5090565b50805461169690612006565b6000825580601f106116a857506116c7565b601f0160209004906000526020600020908101906116c691906116ca565b5b50565b5b808211156116e35760008160009055506001016116cb565b5090565b60006116fa6116f584611dba565b611d95565b905082815260208101848484011115611716576117156121a2565b5b611721848285611fc4565b509392505050565b600081359050611738816122b5565b92915050565b600082601f8301126117535761175261219d565b5b81356117638482602086016116e7565b91505092915050565b60008135905061177b816122cc565b92915050565b600060208284031215611797576117966121ac565b5b60006117a584828501611729565b91505092915050565b600080604083850312156117c5576117c46121ac565b5b60006117d385828601611729565b925050602083013567ffffffffffffffff8111156117f4576117f36121a7565b5b6118008582860161173e565b9150509250929050565b60008060408385031215611821576118206121ac565b5b600061182f85828601611729565b92505060206118408582860161176c565b9150509250929050565b60008060008060808587031215611864576118636121ac565b5b600061187287828801611729565b94505060206118838782880161176c565b93505060406118948782880161176c565b92505060606118a587828801611729565b91505092959194509250565b6000602082840312156118c7576118c66121ac565b5b60006118d58482850161176c565b91505092915050565b60006118ea8383611b07565b60e08301905092915050565b6118ff81611f7c565b82525050565b61190e81611f6a565b82525050565b61191d81611f6a565b82525050565b600061192e82611e10565b6119388185611e33565b935061194383611deb565b8060005b8381101561197457815161195b88826118de565b975061196683611e26565b925050600181019050611947565b5085935050505092915050565b61198a81611f8e565b82525050565b61199981611f8e565b82525050565b60006119aa82611e1b565b6119b48185611e44565b93506119c4818560208601611fd3565b6119cd816121b1565b840191505092915050565b600081546119e581612006565b6119ef8186611e44565b94506001821660008114611a0a5760018114611a1c57611a4f565b60ff1983168652602086019350611a4f565b611a2585611dfb565b60005b83811015611a4757815481890152600182019150602081019050611a28565b808801955050505b50505092915050565b6000611a65602683611e44565b9150611a70826121c2565b604082019050919050565b6000611a88601f83611e44565b9150611a9382612211565b602082019050919050565b6000611aab602083611e44565b9150611ab68261223a565b602082019050919050565b6000611ace601f83611e44565b9150611ad982612263565b602082019050919050565b6000611af1601783611e44565b9150611afc8261228c565b602082019050919050565b60e082016000820151611b1d6000850182611b95565b506020820151611b306020850182611905565b506040820151611b436040850182611b95565b506060820151611b5660608501826118f6565b506080820151611b696080850182611b95565b5060a0820151611b7c60a0850182611981565b5060c0820151611b8f60c08501826118f6565b50505050565b611b9e81611fba565b82525050565b611bad81611fba565b82525050565b6000602082019050611bc86000830184611914565b92915050565b6000606082019050611be36000830186611914565b611bf06020830185611914565b611bfd6040830184611ba4565b949350505050565b6000606082019050611c1a6000830186611914565b611c276020830185611ba4565b611c346040830184611990565b949350505050565b60006020820190508181036000830152611c568184611923565b905092915050565b60006020820190508181036000830152611c7781611a58565b9050919050565b60006020820190508181036000830152611c9781611a7b565b9050919050565b60006020820190508181036000830152611cb781611a9e565b9050919050565b60006020820190508181036000830152611cd781611ac1565b9050919050565b60006020820190508181036000830152611cf781611ae4565b9050919050565b6000602082019050611d136000830184611ba4565b92915050565b6000606082019050611d2e6000830186611ba4565b611d3b6020830185611914565b8181036040830152611d4d818461199f565b9050949350505050565b6000606082019050611d6c6000830186611ba4565b611d796020830185611914565b8181036040830152611d8b81846119d8565b9050949350505050565b6000611d9f611db0565b9050611dab8282612038565b919050565b6000604051905090565b600067ffffffffffffffff821115611dd557611dd461216e565b5b611dde826121b1565b9050602081019050919050565b6000819050602082019050919050565b60008190508160005260206000209050919050565b600081519050919050565b600081519050919050565b6000602082019050919050565b600082825260208201905092915050565b600082825260208201905092915050565b6000611e6082611fba565b9150611e6b83611fba565b9250827fffffffffffffffffffffffffffffffffffffffffffffffffffffffffffffffff03821115611ea057611e9f6120b2565b5b828201905092915050565b6000611eb682611fba565b9150611ec183611fba565b925082611ed157611ed06120e1565b5b828204905092915050565b6000611ee782611fba565b9150611ef283611fba565b9250817fffffffffffffffffffffffffffffffffffffffffffffffffffffffffffffffff0483118215151615611f2b57611f2a6120b2565b5b828202905092915050565b6000611f4182611fba565b9150611f4c83611fba565b925082821015611f5f57611f5e6120b2565b5b828203905092915050565b6000611f7582611f9a565b9050919050565b6000611f8782611f9a565b9050919050565b60008115159050919050565b600073ffffffffffffffffffffffffffffffffffffffff82169050919050565b6000819050919050565b82818337600083830152505050565b60005b83811015611ff1578082015181840152602081019050611fd6565b83811115612000576000848401525b50505050565b6000600282049050600182168061201e57607f821691505b6020821081141561203257612031612110565b5b50919050565b612041826121b1565b810181811067ffffffffffffffff821117156120605761205f61216e565b5b80604052505050565b600061207482611fba565b91507fffffffffffffffffffffffffffffffffffffffffffffffffffffffffffffffff8214156120a7576120a66120b2565b5b600182019050919050565b7f4e487b7100000000000000000000000000000000000000000000000000000000600052601160045260246000fd5b7f4e487b7100000000000000000000000000000000000000000000000000000000600052601260045260246000fd5b7f4e487b7100000000000000000000000000000000000000000000000000000000600052602260045260246000fd5b7f4e487b7100000000000000000000000000000000000000000000000000000000600052603260045260246000fd5b7f4e487b7100000000000000000000000000000000000000000000000000000000600052604160045260246000fd5b600080fd5b600080fd5b600080fd5b600080fd5b6000601f19601f8301169050919050565b7f4f776e61626c653a206e6577206f776e657220697320746865207a65726f206160008201527f6464726573730000000000000000000000000000000000000000000000000000602082015250565b7f5072696365206d75737420626520686967686572207468616e20302077656900600082015250565b7f4f776e61626c653a2063616c6c6572206973206e6f7420746865206f776e6572600082015250565b7f5265656e7472616e637947756172643a207265656e7472616e742063616c6c00600082015250565b7f646f6573206e6f7420657175616c20746f207072696365000000000000000000600082015250565b6122be81611f6a565b81146122c957600080fd5b50565b6122d581611fba565b81146122e057600080fd5b5056fea264697066735822122085b6faa18c02b571e3651435e02e852477f6e7461639ee830ef97ef2ccd26d6864736f6c63430008070033",
  "immutableReferences": {},
  "source": "// SPDX-License-Identifier: MIT\r\npragma solidity ^0.8.0;\r\n\r\nimport \"@openzeppelin/contracts/utils/Counters.sol\";\r\nimport \"@openzeppelin/contracts/security/ReentrancyGuard.sol\";\r\nimport \"@openzeppelin/contracts/token/ERC721/ERC721.sol\";\r\nimport \"@openzeppelin/contracts/access/Ownable.sol\";\r\n\r\ncontract NFTMarket is ReentrancyGuard, Ownable {\r\n    using Counters for Counters.Counter;\r\n    Counters.Counter private _itemIds;\r\n    Counters.Counter private _itemsSold;\r\n    Counters.Counter private _itemsOnSale;\r\n    Counters.Counter private _OrgIds;\r\n\r\n    uint256 private listingPrice = 0.005 ether;\r\n\r\n    // define DonationItem struct\r\n    struct MarketItem {\r\n        uint itemId;\r\n        address nftContract;\r\n        uint256 tokenId;\r\n        address payable owner;\r\n        uint256 price;\r\n        bool sold;\r\n        address payable donateTo;\r\n    }\r\n    // define Organization struct\r\n    struct Organization{\r\n        uint256 id;\r\n        address orgAddress;\r\n        string name;\r\n    }\r\n\r\n    // map item token id to Donation Item\r\n    mapping(uint256 => MarketItem) private idToMarketItem;\r\n    mapping(uint256 => Organization) private idToOrgainzations;\r\n\r\n    //event when New Dontation Item is created\r\n    event MarketItemCreated (\r\n        uint indexed itemId,\r\n        address indexed nftContract,\r\n        uint256 indexed tokenId,\r\n        address owner,\r\n        uint256 price,\r\n        bool sold\r\n    );\r\n    //event when new Organizaion is created\r\n    event newOrgCreated(\r\n        uint256 id, \r\n        address _orgAddress, \r\n        string _orgName\r\n        );\r\n    //event when exist organization is deleted\r\n    event orgDeleted(\r\n        uint256 id, \r\n        address _orgAddress, \r\n        string _orgName\r\n    );\r\n    // add an Organization \r\n    function addOrganization(address _orgAddress, string memory _orgName) public onlyOwner{\r\n        uint256 newTokenId = _OrgIds.current();\r\n        idToOrgainzations[newTokenId] = Organization(newTokenId, _orgAddress, _orgName);\r\n        emit newOrgCreated(newTokenId, _orgAddress, _orgName);\r\n        _OrgIds.increment();\r\n    }\r\n    //delete an Organization\r\n    function deleteOrgainzation(uint256 _tokenId) public onlyOwner{\r\n        //require(idToOrgainzations[_tokenId],\"This orgization does not exist\");\r\n        emit newOrgCreated(_tokenId, idToOrgainzations[_tokenId].orgAddress, idToOrgainzations[_tokenId].name);\r\n        delete idToOrgainzations[_tokenId];\r\n        \r\n    }\r\n    //get Organization address by id\r\n    function getOrgAddressById(uint256 _tokenId) public view returns(address){\r\n        return idToOrgainzations[_tokenId].orgAddress;\r\n    }\r\n////////////////////////////////////////////////////////////////////////////////////////////////\r\n    /* Returns the listing price of the contract */\r\n    function getListingPrice() public view returns (uint256) {\r\n        return listingPrice;\r\n    }\r\n    // Setting New Listing Price around 1500 won\r\n    function setLIstingPrice(uint _newListingPrice) public onlyOwner {\r\n        listingPrice = _newListingPrice;\r\n    }\r\n    // Creating a new Donation Item\r\n    function createMarketItem(\r\n        address nftContract, \r\n        uint256 tokenId, \r\n        uint256 price,\r\n        address _donateToWho   \r\n    ) public payable nonReentrant {\r\n        require(price > 0, \"Price must be higher than 0 wei\");\r\n        //require(msg.value == listingPrice,\"Price mush be equal to list price\");\r\n        \r\n        uint256 itemId = _itemIds.current();\r\n        idToMarketItem[itemId] = MarketItem(\r\n            itemId,\r\n            nftContract,\r\n            tokenId,\r\n            payable(msg.sender),\r\n            price,\r\n            false,\r\n            payable(_donateToWho)\r\n        );\r\n\r\n        IERC721(nftContract).transferFrom(msg.sender, address(this), tokenId);\r\n        _itemIds.increment();\r\n        payable(owner()).transfer(msg.value);\r\n        emit MarketItemCreated(\r\n            itemId, \r\n            nftContract, \r\n            tokenId, \r\n            msg.sender, \r\n            price, \r\n            false\r\n        );\r\n    }\r\n\r\n    //Sell Item\r\n    function createMarketSale(\r\n        address nftContract, \r\n        uint256 _itemId\r\n    ) public payable nonReentrant {\r\n        //get item Price\r\n        uint price = idToMarketItem[_itemId].price;\r\n        //get item Id\r\n        uint tokenId = idToMarketItem[_itemId].tokenId;\r\n        //check Item price is equal to mag.value\r\n        require(msg.value == price,\"does not equal to price\");\r\n        //calculate ethers to owner\r\n        uint priceToOwner = (msg.value)/10 * 1;\r\n        //calculate ethers to Org\r\n        uint priceToOrg = ((msg.value)/10) * 9;\r\n        //send ethers to owner and donated Org\r\n        idToMarketItem[_itemId].owner.transfer(priceToOwner);\r\n        idToMarketItem[_itemId].donateTo.transfer(priceToOrg);\r\n        //change the ownership of token to buyer\r\n        IERC721(nftContract).transferFrom(address(this), msg.sender, tokenId);\r\n        idToMarketItem[_itemId].owner = payable(msg.sender);\r\n        idToMarketItem[_itemId].sold = true;\r\n        _itemsSold.increment();\r\n        //payable(owner).transfer(listingPrice);\r\n    }\r\n\r\n    //fetch marketItem for frontEnd\r\n    function fetchMarketItems() public view returns (MarketItem[] memory){\r\n        uint itemCount = _itemIds.current();\r\n        uint unsoldItemCount = _itemsOnSale.current() - _itemsSold.current();\r\n        uint currentIndex = 0;\r\n        \r\n        MarketItem[] memory items = new MarketItem[](unsoldItemCount);\r\n        for(uint i=0;i<itemCount;i++){\r\n            if(idToMarketItem[i].owner == msg.sender && idToMarketItem[i].sold == false){\r\n                uint currentId = idToMarketItem[i].itemId;\r\n                MarketItem storage currentItem = idToMarketItem [currentId];\r\n                items[currentIndex] = currentItem;\r\n                currentIndex += 1;\r\n            }\r\n        }\r\n        return items;\r\n    }\r\n\r\n    function fetchMyNFTs() public view returns (MarketItem[] memory){\r\n        uint totalItemCount = _itemIds.current();\r\n        uint itemCount = 0;\r\n        uint currentIndex = 0;\r\n        for(uint i = 0; i<totalItemCount; i++){\r\n            if(idToMarketItem[i].owner == msg.sender){\r\n                itemCount += 1;\r\n            }\r\n        }\r\n        MarketItem[] memory items = new MarketItem[](itemCount);\r\n        for(uint i = 0; i<totalItemCount; i++){\r\n            if(idToMarketItem[i].owner == msg.sender){\r\n                uint currentId = idToMarketItem[i].itemId;\r\n                MarketItem storage currentItem = idToMarketItem[currentId];\r\n                items[currentIndex] = currentItem;\r\n                currentIndex += 1;\r\n            }\r\n        }\r\n        return items;\r\n    }\r\n\r\n\r\n\r\n    \r\n}",
  "sourcePath": "C:\\Users\\holyh\\code\\projects_Dapp\\MilalNFTMarket\\contracts\\NFTMarket.sol",
  "compiler": {
    "name": "solc",
    "version": "0.8.7+commit.e28d00a7.Emscripten.clang"
  },
  "schemaVersion": "3.4.2",
  "updatedAt": "2021-08-18T06:41:04.540Z",
  "devdoc": {
    "kind": "dev",
    "methods": {
      "owner()": {
        "details": "Returns the address of the current owner."
      },
      "renounceOwnership()": {
        "details": "Leaves the contract without owner. It will not be possible to call `onlyOwner` functions anymore. Can only be called by the current owner. NOTE: Renouncing ownership will leave the contract without an owner, thereby removing any functionality that is only available to the owner."
      },
      "transferOwnership(address)": {
        "details": "Transfers ownership of the contract to a new account (`newOwner`). Can only be called by the current owner."
      }
    },
    "version": 1
  },
  "userdoc": {
    "kind": "user",
    "methods": {},
    "version": 1
  }
}