{
  "contractName": "NFTMarket",
  "abi": [
    {
      "anonymous": false,
      "inputs": [
        {
          "indexed": true,
          "internalType": "uint256",
          "name": "itemId",
          "type": "uint256"
        },
        {
          "indexed": true,
          "internalType": "address",
          "name": "nftContract",
          "type": "address"
        },
        {
          "indexed": true,
          "internalType": "uint256",
          "name": "tokenId",
          "type": "uint256"
        },
        {
          "indexed": false,
          "internalType": "address",
          "name": "owner",
          "type": "address"
        },
        {
          "indexed": false,
          "internalType": "uint256",
          "name": "price",
          "type": "uint256"
        },
        {
          "indexed": false,
          "internalType": "bool",
          "name": "sold",
          "type": "bool"
        }
      ],
      "name": "MarketItemCreated",
      "type": "event"
    },
    {
      "anonymous": false,
      "inputs": [
        {
          "indexed": true,
          "internalType": "address",
          "name": "previousOwner",
          "type": "address"
        },
        {
          "indexed": true,
          "internalType": "address",
          "name": "newOwner",
          "type": "address"
        }
      ],
      "name": "OwnershipTransferred",
      "type": "event"
    },
    {
      "anonymous": false,
      "inputs": [
        {
          "indexed": false,
          "internalType": "uint256",
          "name": "id",
          "type": "uint256"
        },
        {
          "indexed": false,
          "internalType": "address",
          "name": "_orgAddress",
          "type": "address"
        },
        {
          "indexed": false,
          "internalType": "string",
          "name": "_orgName",
          "type": "string"
        }
      ],
      "name": "newOrgCreated",
      "type": "event"
    },
    {
      "anonymous": false,
      "inputs": [
        {
          "indexed": false,
          "internalType": "uint256",
          "name": "id",
          "type": "uint256"
        },
        {
          "indexed": false,
          "internalType": "address",
          "name": "_orgAddress",
          "type": "address"
        },
        {
          "indexed": false,
          "internalType": "string",
          "name": "_orgName",
          "type": "string"
        }
      ],
      "name": "orgDeleted",
      "type": "event"
    },
    {
      "inputs": [],
      "name": "owner",
      "outputs": [
        {
          "internalType": "address",
          "name": "",
          "type": "address"
        }
      ],
      "stateMutability": "view",
      "type": "function",
      "constant": true
    },
    {
      "inputs": [],
      "name": "renounceOwnership",
      "outputs": [],
      "stateMutability": "nonpayable",
      "type": "function"
    },
    {
      "inputs": [
        {
          "internalType": "address",
          "name": "newOwner",
          "type": "address"
        }
      ],
      "name": "transferOwnership",
      "outputs": [],
      "stateMutability": "nonpayable",
      "type": "function"
    },
    {
      "inputs": [
        {
          "internalType": "address",
          "name": "_orgAddress",
          "type": "address"
        },
        {
          "internalType": "string",
          "name": "_orgName",
          "type": "string"
        }
      ],
      "name": "addOrganization",
      "outputs": [
        {
          "internalType": "uint256",
          "name": "",
          "type": "uint256"
        }
      ],
      "stateMutability": "nonpayable",
      "type": "function"
    },
    {
      "inputs": [
        {
          "internalType": "uint256",
          "name": "_tokenId",
          "type": "uint256"
        }
      ],
      "name": "deleteOrgainzation",
      "outputs": [],
      "stateMutability": "nonpayable",
      "type": "function"
    },
    {
      "inputs": [
        {
          "internalType": "uint256",
          "name": "_tokenId",
          "type": "uint256"
        }
      ],
      "name": "getOrgAddressById",
      "outputs": [
        {
          "internalType": "address",
          "name": "",
          "type": "address"
        }
      ],
      "stateMutability": "view",
      "type": "function",
      "constant": true
    },
    {
      "inputs": [],
      "name": "fetchOrganization",
      "outputs": [
        {
          "components": [
            {
              "internalType": "uint256",
              "name": "id",
              "type": "uint256"
            },
            {
              "internalType": "address",
              "name": "orgAddress",
              "type": "address"
            },
            {
              "internalType": "string",
              "name": "name",
              "type": "string"
            }
          ],
          "internalType": "struct NFTMarket.Organization[]",
          "name": "",
          "type": "tuple[]"
        }
      ],
      "stateMutability": "view",
      "type": "function",
      "constant": true
    },
    {
      "inputs": [],
      "name": "getListingPrice",
      "outputs": [
        {
          "internalType": "uint256",
          "name": "",
          "type": "uint256"
        }
      ],
      "stateMutability": "view",
      "type": "function",
      "constant": true
    },
    {
      "inputs": [
        {
          "internalType": "uint256",
          "name": "_newListingPrice",
          "type": "uint256"
        }
      ],
      "name": "setListingPrice",
      "outputs": [],
      "stateMutability": "nonpayable",
      "type": "function"
    },
    {
      "inputs": [
        {
          "internalType": "address",
          "name": "nftContract",
          "type": "address"
        },
        {
          "internalType": "uint256",
          "name": "tokenId",
          "type": "uint256"
        },
        {
          "internalType": "uint256",
          "name": "price",
          "type": "uint256"
        },
        {
          "internalType": "address",
          "name": "_donateToWho",
          "type": "address"
        },
        {
          "internalType": "bool",
          "name": "_bid",
          "type": "bool"
        }
      ],
      "name": "createMarketItem",
      "outputs": [],
      "stateMutability": "payable",
      "type": "function",
      "payable": true
    },
    {
      "inputs": [
        {
          "internalType": "address",
          "name": "nftContract",
          "type": "address"
        },
        {
          "internalType": "uint256",
          "name": "_itemId",
          "type": "uint256"
        }
      ],
      "name": "createMarketSale",
      "outputs": [],
      "stateMutability": "payable",
      "type": "function",
      "payable": true
    },
    {
      "inputs": [
        {
          "internalType": "uint256",
          "name": "_itemId",
          "type": "uint256"
        }
      ],
      "name": "placeBid",
      "outputs": [
        {
          "internalType": "bool",
          "name": "success",
          "type": "bool"
        }
      ],
      "stateMutability": "nonpayable",
      "type": "function"
    },
    {
      "inputs": [],
      "name": "fetchMarketItems",
      "outputs": [
        {
          "components": [
            {
              "internalType": "uint256",
              "name": "itemId",
              "type": "uint256"
            },
            {
              "internalType": "address",
              "name": "nftContract",
              "type": "address"
            },
            {
              "internalType": "uint256",
              "name": "tokenId",
              "type": "uint256"
            },
            {
              "internalType": "address payable",
              "name": "owner",
              "type": "address"
            },
            {
              "internalType": "uint256",
              "name": "price",
              "type": "uint256"
            },
            {
              "internalType": "bool",
              "name": "bid",
              "type": "bool"
            },
            {
              "internalType": "bool",
              "name": "sold",
              "type": "bool"
            },
            {
              "internalType": "address payable",
              "name": "donateTo",
              "type": "address"
            }
          ],
          "internalType": "struct NFTMarket.MarketItem[]",
          "name": "",
          "type": "tuple[]"
        }
      ],
      "stateMutability": "view",
      "type": "function",
      "constant": true
    },
    {
      "inputs": [],
      "name": "fetchMyNFTs",
      "outputs": [
        {
          "components": [
            {
              "internalType": "uint256",
              "name": "itemId",
              "type": "uint256"
            },
            {
              "internalType": "address",
              "name": "nftContract",
              "type": "address"
            },
            {
              "internalType": "uint256",
              "name": "tokenId",
              "type": "uint256"
            },
            {
              "internalType": "address payable",
              "name": "owner",
              "type": "address"
            },
            {
              "internalType": "uint256",
              "name": "price",
              "type": "uint256"
            },
            {
              "internalType": "bool",
              "name": "bid",
              "type": "bool"
            },
            {
              "internalType": "bool",
              "name": "sold",
              "type": "bool"
            },
            {
              "internalType": "address payable",
              "name": "donateTo",
              "type": "address"
            }
          ],
          "internalType": "struct NFTMarket.MarketItem[]",
          "name": "",
          "type": "tuple[]"
        }
      ],
      "stateMutability": "view",
      "type": "function",
      "constant": true
    },
    {
      "inputs": [],
      "name": "fetchBidItems",
      "outputs": [
        {
          "components": [
            {
              "internalType": "uint256",
              "name": "itemId",
              "type": "uint256"
            },
            {
              "internalType": "address",
              "name": "nftContract",
              "type": "address"
            },
            {
              "internalType": "uint256",
              "name": "tokenId",
              "type": "uint256"
            },
            {
              "internalType": "address payable",
              "name": "owner",
              "type": "address"
            },
            {
              "internalType": "uint256",
              "name": "price",
              "type": "uint256"
            },
            {
              "internalType": "bool",
              "name": "bid",
              "type": "bool"
            },
            {
              "internalType": "bool",
              "name": "sold",
              "type": "bool"
            },
            {
              "internalType": "address payable",
              "name": "donateTo",
              "type": "address"
            }
          ],
          "internalType": "struct NFTMarket.MarketItem[]",
          "name": "",
          "type": "tuple[]"
        }
      ],
      "stateMutability": "view",
      "type": "function",
      "constant": true
    }
  ],
  "bytecode": "0x60806040526611c37937e080006006553480156200001c57600080fd5b50600160008190555062000045620000396200004b60201b60201c565b6200005360201b60201c565b62000119565b600033905090565b6000600160009054906101000a900473ffffffffffffffffffffffffffffffffffffffff16905081600160006101000a81548173ffffffffffffffffffffffffffffffffffffffff021916908373ffffffffffffffffffffffffffffffffffffffff1602179055508173ffffffffffffffffffffffffffffffffffffffff168173ffffffffffffffffffffffffffffffffffffffff167f8be0079c531659141344cd1fd0a4f28419497f9722a3daafe3b4186f6b6457e060405160405180910390a35050565b612c1580620001296000396000f3fe6080604052600436106100e85760003560e01c80638da5cb5b1161008a578063b79f36a111610059578063b79f36a1146102e4578063c23b139e14610300578063c7f5a99b1461031c578063f2fde38b14610347576100e8565b80638da5cb5b146102285780639979ef4514610253578063b16c93c414610290578063b6cbb28f146102bb576100e8565b80635296598c116100c65780635296598c1461016e5780636867478a146101ab578063715018a6146101e85780637c726b69146101ff576100e8565b80630f08efe0146100ed57806312e8558514610118578063202e374014610143575b600080fd5b3480156100f957600080fd5b50610102610370565b60405161010f919061242b565b60405180910390f35b34801561012457600080fd5b5061012d610619565b60405161013a919061254a565b60405180910390f35b34801561014f57600080fd5b50610158610623565b604051610165919061242b565b60405180910390f35b34801561017a57600080fd5b5061019560048036038101906101909190611f56565b61097f565b6040516101a291906123a2565b60405180910390f35b3480156101b757600080fd5b506101d260048036038101906101cd9190611e3f565b6109bf565b6040516101df919061254a565b60405180910390f35b3480156101f457600080fd5b506101fd610b4f565b005b34801561020b57600080fd5b5061022660048036038101906102219190611f56565b610bd7565b005b34801561023457600080fd5b5061023d610c5d565b60405161024a91906123a2565b60405180910390f35b34801561025f57600080fd5b5061027a60048036038101906102759190611f56565b610c87565b604051610287919061246f565b60405180910390f35b34801561029c57600080fd5b506102a5610cc2565b6040516102b2919061242b565b60405180910390f35b3480156102c757600080fd5b506102e260048036038101906102dd9190611f56565b610faa565b005b6102fe60048036038101906102f99190611edb565b611104565b005b61031a60048036038101906103159190611e9b565b6114dd565b005b34801561032857600080fd5b506103316117e4565b60405161033e919061244d565b60405180910390f35b34801561035357600080fd5b5061036e60048036038101906103699190611e12565b6119d4565b005b6060600061037e6002611acc565b9050600061038c6003611acc565b6103966004611acc565b6103a091906127cc565b90506000808267ffffffffffffffff8111156103bf576103be612a04565b5b6040519080825280602002602001820160405280156103f857816020015b6103e5611bbe565b8152602001906001900390816103dd5790505b50905060005b8481101561060e57600015156007600083815260200190815260200160002060050160019054906101000a900460ff16151514156105fb5760006007600083815260200190815260200160002060000154905060006007600083815260200190815260200160002090508060405180610100016040529081600082015481526020016001820160009054906101000a900473ffffffffffffffffffffffffffffffffffffffff1673ffffffffffffffffffffffffffffffffffffffff1673ffffffffffffffffffffffffffffffffffffffff168152602001600282015481526020016003820160009054906101000a900473ffffffffffffffffffffffffffffffffffffffff1673ffffffffffffffffffffffffffffffffffffffff1673ffffffffffffffffffffffffffffffffffffffff168152602001600482015481526020016005820160009054906101000a900460ff161515151581526020016005820160019054906101000a900460ff161515151581526020016005820160029054906101000a900473ffffffffffffffffffffffffffffffffffffffff1673ffffffffffffffffffffffffffffffffffffffff1673ffffffffffffffffffffffffffffffffffffffff16815250508486815181106105de576105dd6129d5565b5b60200260200101819052506001856105f691906126eb565b945050505b8080610606906128ff565b9150506103fe565b508094505050505090565b6000600654905090565b606060006106316002611acc565b905060008060005b838110156106ce573373ffffffffffffffffffffffffffffffffffffffff166007600083815260200190815260200160002060030160009054906101000a900473ffffffffffffffffffffffffffffffffffffffff1673ffffffffffffffffffffffffffffffffffffffff1614156106bb576001836106b891906126eb565b92505b80806106c6906128ff565b915050610639565b5060008267ffffffffffffffff8111156106eb576106ea612a04565b5b60405190808252806020026020018201604052801561072457816020015b610711611bbe565b8152602001906001900390816107095790505b50905060005b84811015610974573373ffffffffffffffffffffffffffffffffffffffff166007600083815260200190815260200160002060030160009054906101000a900473ffffffffffffffffffffffffffffffffffffffff1673ffffffffffffffffffffffffffffffffffffffff1614156109615760006007600083815260200190815260200160002060000154905060006007600083815260200190815260200160002090508060405180610100016040529081600082015481526020016001820160009054906101000a900473ffffffffffffffffffffffffffffffffffffffff1673ffffffffffffffffffffffffffffffffffffffff1673ffffffffffffffffffffffffffffffffffffffff168152602001600282015481526020016003820160009054906101000a900473ffffffffffffffffffffffffffffffffffffffff1673ffffffffffffffffffffffffffffffffffffffff1673ffffffffffffffffffffffffffffffffffffffff168152602001600482015481526020016005820160009054906101000a900460ff161515151581526020016005820160019054906101000a900460ff161515151581526020016005820160029054906101000a900473ffffffffffffffffffffffffffffffffffffffff1673ffffffffffffffffffffffffffffffffffffffff1673ffffffffffffffffffffffffffffffffffffffff1681525050848681518110610944576109436129d5565b5b602002602001018190525060018561095c91906126eb565b945050505b808061096c906128ff565b91505061072a565b508094505050505090565b60006008600083815260200190815260200160002060010160009054906101000a900473ffffffffffffffffffffffffffffffffffffffff169050919050565b60006109c9611ada565b73ffffffffffffffffffffffffffffffffffffffff166109e7610c5d565b73ffffffffffffffffffffffffffffffffffffffff1614610a3d576040517f08c379a0000000000000000000000000000000000000000000000000000000008152600401610a34906124ea565b60405180910390fd5b6000610a496005611acc565b905060405180606001604052808281526020018573ffffffffffffffffffffffffffffffffffffffff16815260200184815250600860008381526020019081526020016000206000820151816000015560208201518160010160006101000a81548173ffffffffffffffffffffffffffffffffffffffff021916908373ffffffffffffffffffffffffffffffffffffffff1602179055506040820151816002019080519060200190610afc929190611c49565b509050507f8e3149d65a2b302cac071680086a826a48959636bf6abecb36e151b419621f75818585604051610b3393929190612565565b60405180910390a1610b456005611ae2565b8091505092915050565b610b57611ada565b73ffffffffffffffffffffffffffffffffffffffff16610b75610c5d565b73ffffffffffffffffffffffffffffffffffffffff1614610bcb576040517f08c379a0000000000000000000000000000000000000000000000000000000008152600401610bc2906124ea565b60405180910390fd5b610bd56000611af8565b565b610bdf611ada565b73ffffffffffffffffffffffffffffffffffffffff16610bfd610c5d565b73ffffffffffffffffffffffffffffffffffffffff1614610c53576040517f08c379a0000000000000000000000000000000000000000000000000000000008152600401610c4a906124ea565b60405180910390fd5b8060068190555050565b6000600160009054906101000a900473ffffffffffffffffffffffffffffffffffffffff16905090565b6000600115156007600084815260200190815260200160002060050160009054906101000a900460ff16151514610cbd57600080fd5b919050565b60606000610cd06002611acc565b905060008060005b83811015610d3357600115156007600083815260200190815260200160002060050160009054906101000a900460ff1615151415610d2057600183610d1d91906126eb565b92505b8080610d2b906128ff565b915050610cd8565b5060008267ffffffffffffffff811115610d5057610d4f612a04565b5b604051908082528060200260200182016040528015610d8957816020015b610d76611bbe565b815260200190600190039081610d6e5790505b50905060005b84811015610f9f57600115156007600083815260200190815260200160002060050160009054906101000a900460ff1615151415610f8c5760006007600083815260200190815260200160002060000154905060006007600083815260200190815260200160002090508060405180610100016040529081600082015481526020016001820160009054906101000a900473ffffffffffffffffffffffffffffffffffffffff1673ffffffffffffffffffffffffffffffffffffffff1673ffffffffffffffffffffffffffffffffffffffff168152602001600282015481526020016003820160009054906101000a900473ffffffffffffffffffffffffffffffffffffffff1673ffffffffffffffffffffffffffffffffffffffff1673ffffffffffffffffffffffffffffffffffffffff168152602001600482015481526020016005820160009054906101000a900460ff161515151581526020016005820160019054906101000a900460ff161515151581526020016005820160029054906101000a900473ffffffffffffffffffffffffffffffffffffffff1673ffffffffffffffffffffffffffffffffffffffff1673ffffffffffffffffffffffffffffffffffffffff1681525050848681518110610f6f57610f6e6129d5565b5b6020026020010181905250600185610f8791906126eb565b945050505b8080610f97906128ff565b915050610d8f565b508094505050505090565b610fb2611ada565b73ffffffffffffffffffffffffffffffffffffffff16610fd0610c5d565b73ffffffffffffffffffffffffffffffffffffffff1614611026576040517f08c379a000000000000000000000000000000000000000000000000000000000815260040161101d906124ea565b60405180910390fd5b7f8e3149d65a2b302cac071680086a826a48959636bf6abecb36e151b419621f75816008600084815260200190815260200160002060010160009054906101000a900473ffffffffffffffffffffffffffffffffffffffff16600860008581526020019081526020016000206002016040516110a4939291906125a3565b60405180910390a1600860008281526020019081526020016000206000808201600090556001820160006101000a81549073ffffffffffffffffffffffffffffffffffffffff02191690556002820160006110ff9190611ccf565b505050565b6002600054141561114a576040517f08c379a00000000000000000000000000000000000000000000000000000000081526004016111419061250a565b60405180910390fd5b600260008190555060008311611195576040517f08c379a000000000000000000000000000000000000000000000000000000000815260040161118c906124ca565b60405180910390fd5b60065434146111d9576040517f08c379a00000000000000000000000000000000000000000000000000000000081526004016111d0906124aa565b60405180910390fd5b60006111e56002611acc565b90506040518061010001604052808281526020018773ffffffffffffffffffffffffffffffffffffffff1681526020018681526020013373ffffffffffffffffffffffffffffffffffffffff16815260200185815260200183151581526020016000151581526020018473ffffffffffffffffffffffffffffffffffffffff16815250600760008381526020019081526020016000206000820151816000015560208201518160010160006101000a81548173ffffffffffffffffffffffffffffffffffffffff021916908373ffffffffffffffffffffffffffffffffffffffff1602179055506040820151816002015560608201518160030160006101000a81548173ffffffffffffffffffffffffffffffffffffffff021916908373ffffffffffffffffffffffffffffffffffffffff1602179055506080820151816004015560a08201518160050160006101000a81548160ff02191690831515021790555060c08201518160050160016101000a81548160ff02191690831515021790555060e08201518160050160026101000a81548173ffffffffffffffffffffffffffffffffffffffff021916908373ffffffffffffffffffffffffffffffffffffffff1602179055509050508573ffffffffffffffffffffffffffffffffffffffff166323b872dd3330886040518463ffffffff1660e01b81526004016113ee939291906123bd565b600060405180830381600087803b15801561140857600080fd5b505af115801561141c573d6000803e3d6000fd5b5050505061142a6002611ae2565b611432610c5d565b73ffffffffffffffffffffffffffffffffffffffff166108fc349081150290604051600060405180830381858888f19350505050158015611477573d6000803e3d6000fd5b50848673ffffffffffffffffffffffffffffffffffffffff16827f3a703684ac0e06cbc245a465cb3c43faf40a53aff175518595f6aac9d61afe63338860006040516114c5939291906123f4565b60405180910390a45060016000819055505050505050565b60026000541415611523576040517f08c379a000000000000000000000000000000000000000000000000000000000815260040161151a9061250a565b60405180910390fd5b60026000819055506000600760008381526020019081526020016000206004015490506000600760008481526020019081526020016000206002015490508134146115a3576040517f08c379a000000000000000000000000000000000000000000000000000000000815260040161159a9061252a565b60405180910390fd5b60006001600a346115b49190612741565b6115be9190612772565b905060006009600a346115d19190612741565b6115db9190612772565b90506007600086815260200190815260200160002060030160009054906101000a900473ffffffffffffffffffffffffffffffffffffffff1673ffffffffffffffffffffffffffffffffffffffff166108fc839081150290604051600060405180830381858888f19350505050158015611659573d6000803e3d6000fd5b506007600086815260200190815260200160002060050160029054906101000a900473ffffffffffffffffffffffffffffffffffffffff1673ffffffffffffffffffffffffffffffffffffffff166108fc829081150290604051600060405180830381858888f193505050501580156116d6573d6000803e3d6000fd5b508573ffffffffffffffffffffffffffffffffffffffff166323b872dd3033866040518463ffffffff1660e01b8152600401611714939291906123bd565b600060405180830381600087803b15801561172e57600080fd5b505af1158015611742573d6000803e3d6000fd5b50505050336007600087815260200190815260200160002060030160006101000a81548173ffffffffffffffffffffffffffffffffffffffff021916908373ffffffffffffffffffffffffffffffffffffffff16021790555060016007600087815260200190815260200160002060050160016101000a81548160ff0219169083151502179055506117d46003611ae2565b5050505060016000819055505050565b606060006117f26005611acc565b90506000808267ffffffffffffffff81111561181157611810612a04565b5b60405190808252806020026020018201604052801561184a57816020015b611837611d0f565b81526020019060019003908161182f5790505b50905060005b838110156119ca57600060086000838152602001908152602001600020600001549050600060086000838152602001908152602001600020905080604051806060016040529081600082015481526020016001820160009054906101000a900473ffffffffffffffffffffffffffffffffffffffff1673ffffffffffffffffffffffffffffffffffffffff1673ffffffffffffffffffffffffffffffffffffffff1681526020016002820180546119069061289c565b80601f01602080910402602001604051908101604052809291908181526020018280546119329061289c565b801561197f5780601f106119545761010080835404028352916020019161197f565b820191906000526020600020905b81548152906001019060200180831161196257829003601f168201915b50505050508152505084868151811061199b5761199a6129d5565b5b60200260200101819052506001856119b391906126eb565b9450505080806119c2906128ff565b915050611850565b5080935050505090565b6119dc611ada565b73ffffffffffffffffffffffffffffffffffffffff166119fa610c5d565b73ffffffffffffffffffffffffffffffffffffffff1614611a50576040517f08c379a0000000000000000000000000000000000000000000000000000000008152600401611a47906124ea565b60405180910390fd5b600073ffffffffffffffffffffffffffffffffffffffff168173ffffffffffffffffffffffffffffffffffffffff161415611ac0576040517f08c379a0000000000000000000000000000000000000000000000000000000008152600401611ab79061248a565b60405180910390fd5b611ac981611af8565b50565b600081600001549050919050565b600033905090565b6001816000016000828254019250508190555050565b6000600160009054906101000a900473ffffffffffffffffffffffffffffffffffffffff16905081600160006101000a81548173ffffffffffffffffffffffffffffffffffffffff021916908373ffffffffffffffffffffffffffffffffffffffff1602179055508173ffffffffffffffffffffffffffffffffffffffff168173ffffffffffffffffffffffffffffffffffffffff167f8be0079c531659141344cd1fd0a4f28419497f9722a3daafe3b4186f6b6457e060405160405180910390a35050565b60405180610100016040528060008152602001600073ffffffffffffffffffffffffffffffffffffffff16815260200160008152602001600073ffffffffffffffffffffffffffffffffffffffff16815260200160008152602001600015158152602001600015158152602001600073ffffffffffffffffffffffffffffffffffffffff1681525090565b828054611c559061289c565b90600052602060002090601f016020900481019282611c775760008555611cbe565b82601f10611c9057805160ff1916838001178555611cbe565b82800160010185558215611cbe579182015b82811115611cbd578251825591602001919060010190611ca2565b5b509050611ccb9190611d46565b5090565b508054611cdb9061289c565b6000825580601f10611ced5750611d0c565b601f016020900490600052602060002090810190611d0b9190611d46565b5b50565b604051806060016040528060008152602001600073ffffffffffffffffffffffffffffffffffffffff168152602001606081525090565b5b80821115611d5f576000816000905550600101611d47565b5090565b6000611d76611d7184612606565b6125e1565b905082815260208101848484011115611d9257611d91612a38565b5b611d9d84828561285a565b509392505050565b600081359050611db481612b9a565b92915050565b600081359050611dc981612bb1565b92915050565b600082601f830112611de457611de3612a33565b5b8135611df4848260208601611d63565b91505092915050565b600081359050611e0c81612bc8565b92915050565b600060208284031215611e2857611e27612a42565b5b6000611e3684828501611da5565b91505092915050565b60008060408385031215611e5657611e55612a42565b5b6000611e6485828601611da5565b925050602083013567ffffffffffffffff811115611e8557611e84612a3d565b5b611e9185828601611dcf565b9150509250929050565b60008060408385031215611eb257611eb1612a42565b5b6000611ec085828601611da5565b9250506020611ed185828601611dfd565b9150509250929050565b600080600080600060a08688031215611ef757611ef6612a42565b5b6000611f0588828901611da5565b9550506020611f1688828901611dfd565b9450506040611f2788828901611dfd565b9350506060611f3888828901611da5565b9250506080611f4988828901611dba565b9150509295509295909350565b600060208284031215611f6c57611f6b612a42565b5b6000611f7a84828501611dfd565b91505092915050565b6000611f8f8383612292565b6101008301905092915050565b6000611fa88383612334565b905092915050565b611fb981612812565b82525050565b611fc881612800565b82525050565b611fd781612800565b82525050565b6000611fe88261266c565b611ff281856126a7565b9350611ffd83612637565b8060005b8381101561202e5781516120158882611f83565b97506120208361268d565b925050600181019050612001565b5085935050505092915050565b600061204682612677565b61205081856126b8565b93508360208202850161206285612647565b8060005b8581101561209e578484038952815161207f8582611f9c565b945061208a8361269a565b925060208a01995050600181019050612066565b50829750879550505050505092915050565b6120b981612824565b82525050565b6120c881612824565b82525050565b60006120d982612682565b6120e381856126c9565b93506120f3818560208601612869565b6120fc81612a47565b840191505092915050565b600061211282612682565b61211c81856126da565b935061212c818560208601612869565b61213581612a47565b840191505092915050565b6000815461214d8161289c565b61215781866126da565b945060018216600081146121725760018114612184576121b7565b60ff19831686526020860193506121b7565b61218d85612657565b60005b838110156121af57815481890152600182019150602081019050612190565b808801955050505b50505092915050565b60006121cd6026836126da565b91506121d882612a58565b604082019050919050565b60006121f06021836126da565b91506121fb82612aa7565b604082019050919050565b6000612213601f836126da565b915061221e82612af6565b602082019050919050565b60006122366020836126da565b915061224182612b1f565b602082019050919050565b6000612259601f836126da565b915061226482612b48565b602082019050919050565b600061227c6017836126da565b915061228782612b71565b602082019050919050565b610100820160008201516122a96000850182612384565b5060208201516122bc6020850182611fbf565b5060408201516122cf6040850182612384565b5060608201516122e26060850182611fb0565b5060808201516122f56080850182612384565b5060a082015161230860a08501826120b0565b5060c082015161231b60c08501826120b0565b5060e082015161232e60e0850182611fb0565b50505050565b600060608301600083015161234c6000860182612384565b50602083015161235f6020860182611fbf565b506040830151848203604086015261237782826120ce565b9150508091505092915050565b61238d81612850565b82525050565b61239c81612850565b82525050565b60006020820190506123b76000830184611fce565b92915050565b60006060820190506123d26000830186611fce565b6123df6020830185611fce565b6123ec6040830184612393565b949350505050565b60006060820190506124096000830186611fce565b6124166020830185612393565b61242360408301846120bf565b949350505050565b600060208201905081810360008301526124458184611fdd565b905092915050565b60006020820190508181036000830152612467818461203b565b905092915050565b600060208201905061248460008301846120bf565b92915050565b600060208201905081810360008301526124a3816121c0565b9050919050565b600060208201905081810360008301526124c3816121e3565b9050919050565b600060208201905081810360008301526124e381612206565b9050919050565b6000602082019050818103600083015261250381612229565b9050919050565b600060208201905081810360008301526125238161224c565b9050919050565b600060208201905081810360008301526125438161226f565b9050919050565b600060208201905061255f6000830184612393565b92915050565b600060608201905061257a6000830186612393565b6125876020830185611fce565b81810360408301526125998184612107565b9050949350505050565b60006060820190506125b86000830186612393565b6125c56020830185611fce565b81810360408301526125d78184612140565b9050949350505050565b60006125eb6125fc565b90506125f782826128ce565b919050565b6000604051905090565b600067ffffffffffffffff82111561262157612620612a04565b5b61262a82612a47565b9050602081019050919050565b6000819050602082019050919050565b6000819050602082019050919050565b60008190508160005260206000209050919050565b600081519050919050565b600081519050919050565b600081519050919050565b6000602082019050919050565b6000602082019050919050565b600082825260208201905092915050565b600082825260208201905092915050565b600082825260208201905092915050565b600082825260208201905092915050565b60006126f682612850565b915061270183612850565b9250827fffffffffffffffffffffffffffffffffffffffffffffffffffffffffffffffff0382111561273657612735612948565b5b828201905092915050565b600061274c82612850565b915061275783612850565b92508261276757612766612977565b5b828204905092915050565b600061277d82612850565b915061278883612850565b9250817fffffffffffffffffffffffffffffffffffffffffffffffffffffffffffffffff04831182151516156127c1576127c0612948565b5b828202905092915050565b60006127d782612850565b91506127e283612850565b9250828210156127f5576127f4612948565b5b828203905092915050565b600061280b82612830565b9050919050565b600061281d82612830565b9050919050565b60008115159050919050565b600073ffffffffffffffffffffffffffffffffffffffff82169050919050565b6000819050919050565b82818337600083830152505050565b60005b8381101561288757808201518184015260208101905061286c565b83811115612896576000848401525b50505050565b600060028204905060018216806128b457607f821691505b602082108114156128c8576128c76129a6565b5b50919050565b6128d782612a47565b810181811067ffffffffffffffff821117156128f6576128f5612a04565b5b80604052505050565b600061290a82612850565b91507fffffffffffffffffffffffffffffffffffffffffffffffffffffffffffffffff82141561293d5761293c612948565b5b600182019050919050565b7f4e487b7100000000000000000000000000000000000000000000000000000000600052601160045260246000fd5b7f4e487b7100000000000000000000000000000000000000000000000000000000600052601260045260246000fd5b7f4e487b7100000000000000000000000000000000000000000000000000000000600052602260045260246000fd5b7f4e487b7100000000000000000000000000000000000000000000000000000000600052603260045260246000fd5b7f4e487b7100000000000000000000000000000000000000000000000000000000600052604160045260246000fd5b600080fd5b600080fd5b600080fd5b600080fd5b6000601f19601f8301169050919050565b7f4f776e61626c653a206e6577206f776e657220697320746865207a65726f206160008201527f6464726573730000000000000000000000000000000000000000000000000000602082015250565b7f5072696365206d75737420626520657175616c20746f206c697374207072696360008201527f6500000000000000000000000000000000000000000000000000000000000000602082015250565b7f5072696365206d75737420626520686967686572207468616e20302077656900600082015250565b7f4f776e61626c653a2063616c6c6572206973206e6f7420746865206f776e6572600082015250565b7f5265656e7472616e637947756172643a207265656e7472616e742063616c6c00600082015250565b7f646f6573206e6f7420657175616c20746f207072696365000000000000000000600082015250565b612ba381612800565b8114612bae57600080fd5b50565b612bba81612824565b8114612bc557600080fd5b50565b612bd181612850565b8114612bdc57600080fd5b5056fea264697066735822122052ac87f0e2ff159e5381a21a9be206c5e1a48aabf12356abb202b33d8a9155ad64736f6c63430008070033",
  "immutableReferences": {},
  "source": "// SPDX-License-Identifier: MIT\r\npragma solidity ^0.8.0;\r\n\r\nimport \"@openzeppelin/contracts/utils/Counters.sol\";\r\nimport \"@openzeppelin/contracts/security/ReentrancyGuard.sol\";\r\nimport \"@openzeppelin/contracts/token/ERC721/ERC721.sol\";\r\nimport \"@openzeppelin/contracts/access/Ownable.sol\";\r\n\r\ncontract NFTMarket is ReentrancyGuard, Ownable {\r\n    using Counters for Counters.Counter;\r\n    Counters.Counter private _itemIds;\r\n    Counters.Counter private _itemsSold;\r\n    Counters.Counter private _itemsOnSale;\r\n    Counters.Counter private _OrgIds;\r\n\r\n    uint256 private listingPrice = 0.005 ether;\r\n\r\n    // define DonationItem struct\r\n    struct MarketItem {\r\n        uint itemId;\r\n        address nftContract;\r\n        uint256 tokenId;\r\n        address payable owner;\r\n        uint256 price;\r\n        bool bid;\r\n        bool sold;\r\n        address payable donateTo;\r\n    }\r\n    // define Organization struct\r\n    struct Organization{\r\n        uint256 id;\r\n        address orgAddress;\r\n        string name;\r\n    }\r\n\r\n    // map item token id to Donation Item\r\n    mapping(uint256 => MarketItem) private idToMarketItem;\r\n    mapping(uint256 => Organization) private idToOrgainzations;\r\n\r\n    //event when New Dontation Item is created\r\n    event MarketItemCreated (\r\n        uint indexed itemId,\r\n        address indexed nftContract,\r\n        uint256 indexed tokenId,\r\n        address owner,\r\n        uint256 price,\r\n        bool sold\r\n    );\r\n    //event when new Organizaion is created\r\n    event newOrgCreated(\r\n        uint256 id, \r\n        address _orgAddress, \r\n        string _orgName\r\n        );\r\n    //event when exist organization is deleted\r\n    event orgDeleted(\r\n        uint256 id, \r\n        address _orgAddress, \r\n        string _orgName\r\n    );\r\n    // add an Organization \r\n    function addOrganization(address _orgAddress, string memory _orgName) public onlyOwner returns(uint256){\r\n        //get orgId of current\r\n        uint256 newTokenId = _OrgIds.current();\r\n        //set if to Organization\r\n        idToOrgainzations[newTokenId] = Organization(newTokenId, _orgAddress, _orgName);\r\n        //emit newOrgCreated event\r\n        emit newOrgCreated(newTokenId, _orgAddress, _orgName);\r\n        //increase orgId \r\n        _OrgIds.increment();\r\n        //return for front-end\r\n        return newTokenId;\r\n    }\r\n    //delete an Organization\r\n    function deleteOrgainzation(uint256 _tokenId) public onlyOwner{\r\n        //require(idToOrgainzations[_tokenId],\"This orgization does not exist\");\r\n        emit newOrgCreated(_tokenId, idToOrgainzations[_tokenId].orgAddress, idToOrgainzations[_tokenId].name);\r\n        delete idToOrgainzations[_tokenId];\r\n    }\r\n    //get Organization address by id\r\n    function getOrgAddressById(uint256 _tokenId) public view returns(address){\r\n        return idToOrgainzations[_tokenId].orgAddress;\r\n    }\r\n\r\n    //fetch all organization\r\n    function fetchOrganization() public view returns(Organization[] memory){\r\n        uint totalNumOfOrg = _OrgIds.current();\r\n        uint currentIndex = 0;\r\n        Organization[] memory orgs = new Organization[](totalNumOfOrg);\r\n        \r\n        for(uint i=0; i<totalNumOfOrg; i++){\r\n            uint currentId = idToOrgainzations[i].id;\r\n            Organization storage currentOrg = idToOrgainzations [currentId];\r\n            orgs[currentIndex] = currentOrg;\r\n            currentIndex += 1;\r\n        }\r\n        return orgs;\r\n    }\r\n////////////////////////////////////////////////////////////////////////////////////////////////\r\n    /* Returns the listing price of the contract */\r\n    function getListingPrice() public view returns (uint256) {\r\n        return listingPrice;\r\n    }\r\n    // Setting New Listing Price around 1500 won\r\n    function setListingPrice(uint _newListingPrice) public onlyOwner {\r\n        listingPrice = _newListingPrice;\r\n    }\r\n    // Creating a new Donation Item\r\n    function createMarketItem(\r\n        address nftContract, \r\n        uint256 tokenId, \r\n        uint256 price,\r\n        address _donateToWho,\r\n        bool _bid   \r\n    ) public payable nonReentrant {\r\n        require(price > 0, \"Price must be higher than 0 wei\");\r\n        require(msg.value == listingPrice,\"Price must be equal to list price\");\r\n        \r\n        uint256 itemId = _itemIds.current();\r\n        idToMarketItem[itemId] = MarketItem(\r\n            itemId,\r\n            nftContract,\r\n            tokenId,\r\n            payable(msg.sender),\r\n            price,\r\n            _bid,\r\n            false,\r\n            payable(_donateToWho)\r\n        );\r\n\r\n        IERC721(nftContract).transferFrom(msg.sender, address(this), tokenId);\r\n        _itemIds.increment();\r\n        payable(owner()).transfer(msg.value);\r\n        emit MarketItemCreated(\r\n            itemId, \r\n            nftContract, \r\n            tokenId, \r\n            msg.sender, \r\n            price, \r\n            false\r\n        );\r\n    }\r\n\r\n    //Sell Item\r\n    function createMarketSale(\r\n        address nftContract, \r\n        uint256 _itemId\r\n    ) public payable nonReentrant {\r\n        //get item Price\r\n        uint price = idToMarketItem[_itemId].price;\r\n        //get item Id\r\n        uint tokenId = idToMarketItem[_itemId].tokenId;\r\n        //check Item price is equal to mag.value\r\n        require(msg.value == price,\"does not equal to price\");\r\n        \r\n        //calculate ethers to owner\r\n        uint priceToOwner = (msg.value)/10 * 1;\r\n        //calculate ethers to Org\r\n        uint priceToOrg = ((msg.value)/10) * 9;\r\n        //send ethers to owner and donated Org\r\n        idToMarketItem[_itemId].owner.transfer(priceToOwner);\r\n        idToMarketItem[_itemId].donateTo.transfer(priceToOrg);\r\n        //change the ownership of token to buyer\r\n        IERC721(nftContract).transferFrom(address(this), msg.sender, tokenId);\r\n        idToMarketItem[_itemId].owner = payable(msg.sender);\r\n        idToMarketItem[_itemId].sold = true;\r\n        _itemsSold.increment();\r\n        //payable(owner).transfer(listingPrice);\r\n    }\r\n////////////////////////////////////////////////////////////////////////////////////////////////\r\n    function placeBid(uint256 _itemId) public returns (bool success){\r\n        require(idToMarketItem[_itemId].bid == true);\r\n        \r\n    }\r\n////////////////////////////////////////////////////////////////////////////////////////////////\r\n    //fetch marketItem for frontEnd\r\n    function fetchMarketItems() public view returns (MarketItem[] memory){\r\n        uint itemCount = _itemIds.current();\r\n        uint unsoldItemCount = _itemsOnSale.current() - _itemsSold.current();\r\n        uint currentIndex = 0;\r\n        \r\n        MarketItem[] memory items = new MarketItem[](unsoldItemCount);\r\n        for(uint i=0;i<itemCount;i++){\r\n            if(idToMarketItem[i].sold == false){\r\n                uint currentId = idToMarketItem[i].itemId;\r\n                MarketItem storage currentItem = idToMarketItem [currentId];\r\n                items[currentIndex] = currentItem;\r\n                currentIndex += 1;\r\n            }\r\n        }\r\n        return items;\r\n    }\r\n\r\n    //fetch NFTs that msg.sender owns\r\n    function fetchMyNFTs() public view returns (MarketItem[] memory){\r\n        uint totalItemCount = _itemIds.current();\r\n        uint itemCount = 0;\r\n        uint currentIndex = 0;\r\n        for(uint i = 0; i<totalItemCount; i++){\r\n            if(idToMarketItem[i].owner == msg.sender){\r\n                itemCount += 1;\r\n            }\r\n        }\r\n        MarketItem[] memory items = new MarketItem[](itemCount);\r\n        for(uint i = 0; i<totalItemCount; i++){\r\n            if(idToMarketItem[i].owner == msg.sender){\r\n                uint currentId = idToMarketItem[i].itemId;\r\n                MarketItem storage currentItem = idToMarketItem[currentId];\r\n                items[currentIndex] = currentItem;\r\n                currentIndex += 1;\r\n            }\r\n        }\r\n        return items;\r\n    }\r\n    \r\n    function fetchBidItems() public view returns(MarketItem[] memory) {\r\n        uint totalItemCount = _itemIds.current();\r\n        uint itemCount = 0;\r\n        uint currentIndex = 0;\r\n        for(uint i = 0; i<totalItemCount; i++){\r\n            if(idToMarketItem[i].bid == true){\r\n                itemCount += 1;\r\n            }\r\n        }\r\n        MarketItem[] memory items = new MarketItem[](itemCount);\r\n        for(uint i = 0; i<totalItemCount; i++){\r\n            if(idToMarketItem[i].bid == true){\r\n                uint currentId = idToMarketItem[i].itemId;\r\n                MarketItem storage currentItem = idToMarketItem[currentId];\r\n                items[currentIndex] = currentItem;\r\n                currentIndex += 1;\r\n            }\r\n        }\r\n        return items;\r\n    }\r\n\r\n\r\n    \r\n}",
  "sourcePath": "C:\\Users\\holyh\\code\\projects_Dapp\\MilalNFTMarket\\contracts\\NFTMarket.sol",
  "compiler": {
    "name": "solc",
    "version": "0.8.7+commit.e28d00a7.Emscripten.clang"
  },
  "schemaVersion": "3.4.2",
  "updatedAt": "2021-09-23T12:39:03.874Z",
  "networkType": "ethereum",
  "devdoc": {
    "kind": "dev",
    "methods": {
      "owner()": {
        "details": "Returns the address of the current owner."
      },
      "renounceOwnership()": {
        "details": "Leaves the contract without owner. It will not be possible to call `onlyOwner` functions anymore. Can only be called by the current owner. NOTE: Renouncing ownership will leave the contract without an owner, thereby removing any functionality that is only available to the owner."
      },
      "transferOwnership(address)": {
        "details": "Transfers ownership of the contract to a new account (`newOwner`). Can only be called by the current owner."
      }
    },
    "version": 1
  },
  "userdoc": {
    "kind": "user",
    "methods": {},
    "version": 1
  }
}