{
  "contractName": "NFTMarket",
  "abi": [
    {
      "inputs": [],
      "stateMutability": "nonpayable",
      "type": "constructor"
    },
    {
      "anonymous": false,
      "inputs": [
        {
          "indexed": true,
          "internalType": "uint256",
          "name": "itemId",
          "type": "uint256"
        },
        {
          "indexed": true,
          "internalType": "address",
          "name": "nftContract",
          "type": "address"
        },
        {
          "indexed": true,
          "internalType": "uint256",
          "name": "tokenId",
          "type": "uint256"
        },
        {
          "indexed": false,
          "internalType": "address",
          "name": "seller",
          "type": "address"
        },
        {
          "indexed": false,
          "internalType": "address",
          "name": "owner",
          "type": "address"
        },
        {
          "indexed": false,
          "internalType": "uint256",
          "name": "price",
          "type": "uint256"
        },
        {
          "indexed": false,
          "internalType": "bool",
          "name": "onSale",
          "type": "bool"
        },
        {
          "indexed": false,
          "internalType": "bool",
          "name": "sold",
          "type": "bool"
        }
      ],
      "name": "MarketItemCreated",
      "type": "event"
    },
    {
      "inputs": [],
      "name": "getListingPrice",
      "outputs": [
        {
          "internalType": "uint256",
          "name": "",
          "type": "uint256"
        }
      ],
      "stateMutability": "view",
      "type": "function",
      "constant": true
    },
    {
      "inputs": [
        {
          "internalType": "address",
          "name": "nftContract",
          "type": "address"
        },
        {
          "internalType": "uint256",
          "name": "tokenId",
          "type": "uint256"
        },
        {
          "internalType": "uint256",
          "name": "price",
          "type": "uint256"
        },
        {
          "internalType": "bool",
          "name": "onSale",
          "type": "bool"
        }
      ],
      "name": "createMarketItem",
      "outputs": [],
      "stateMutability": "payable",
      "type": "function",
      "payable": true
    },
    {
      "inputs": [
        {
          "internalType": "uint256",
          "name": "itemId",
          "type": "uint256"
        }
      ],
      "name": "sellNFT",
      "outputs": [],
      "stateMutability": "nonpayable",
      "type": "function"
    },
    {
      "inputs": [
        {
          "internalType": "address",
          "name": "nftContract",
          "type": "address"
        },
        {
          "internalType": "uint256",
          "name": "itemId",
          "type": "uint256"
        }
      ],
      "name": "createMarketSale",
      "outputs": [],
      "stateMutability": "payable",
      "type": "function",
      "payable": true
    },
    {
      "inputs": [],
      "name": "fetchMarketItems",
      "outputs": [
        {
          "components": [
            {
              "internalType": "uint256",
              "name": "itemId",
              "type": "uint256"
            },
            {
              "internalType": "address",
              "name": "nftContract",
              "type": "address"
            },
            {
              "internalType": "uint256",
              "name": "tokenId",
              "type": "uint256"
            },
            {
              "internalType": "address payable",
              "name": "seller",
              "type": "address"
            },
            {
              "internalType": "address payable",
              "name": "owner",
              "type": "address"
            },
            {
              "internalType": "uint256",
              "name": "price",
              "type": "uint256"
            },
            {
              "internalType": "bool",
              "name": "onSale",
              "type": "bool"
            },
            {
              "internalType": "bool",
              "name": "sold",
              "type": "bool"
            }
          ],
          "internalType": "struct NFTMarket.MarketItem[]",
          "name": "",
          "type": "tuple[]"
        }
      ],
      "stateMutability": "view",
      "type": "function",
      "constant": true
    },
    {
      "inputs": [],
      "name": "fetchMyNFTs",
      "outputs": [
        {
          "components": [
            {
              "internalType": "uint256",
              "name": "itemId",
              "type": "uint256"
            },
            {
              "internalType": "address",
              "name": "nftContract",
              "type": "address"
            },
            {
              "internalType": "uint256",
              "name": "tokenId",
              "type": "uint256"
            },
            {
              "internalType": "address payable",
              "name": "seller",
              "type": "address"
            },
            {
              "internalType": "address payable",
              "name": "owner",
              "type": "address"
            },
            {
              "internalType": "uint256",
              "name": "price",
              "type": "uint256"
            },
            {
              "internalType": "bool",
              "name": "onSale",
              "type": "bool"
            },
            {
              "internalType": "bool",
              "name": "sold",
              "type": "bool"
            }
          ],
          "internalType": "struct NFTMarket.MarketItem[]",
          "name": "",
          "type": "tuple[]"
        }
      ],
      "stateMutability": "view",
      "type": "function",
      "constant": true
    },
    {
      "inputs": [],
      "name": "fetchItemsCreated",
      "outputs": [
        {
          "components": [
            {
              "internalType": "uint256",
              "name": "itemId",
              "type": "uint256"
            },
            {
              "internalType": "address",
              "name": "nftContract",
              "type": "address"
            },
            {
              "internalType": "uint256",
              "name": "tokenId",
              "type": "uint256"
            },
            {
              "internalType": "address payable",
              "name": "seller",
              "type": "address"
            },
            {
              "internalType": "address payable",
              "name": "owner",
              "type": "address"
            },
            {
              "internalType": "uint256",
              "name": "price",
              "type": "uint256"
            },
            {
              "internalType": "bool",
              "name": "onSale",
              "type": "bool"
            },
            {
              "internalType": "bool",
              "name": "sold",
              "type": "bool"
            }
          ],
          "internalType": "struct NFTMarket.MarketItem[]",
          "name": "",
          "type": "tuple[]"
        }
      ],
      "stateMutability": "view",
      "type": "function",
      "constant": true
    }
  ],
  "bytecode": "0x60806040526658d15e1762800060055534801561001b57600080fd5b50600160008190555033600460006101000a81548173ffffffffffffffffffffffffffffffffffffffff021916908373ffffffffffffffffffffffffffffffffffffffff1602179055506119b1806100746000396000f3fe6080604052600436106100705760003560e01c8063c23b139e1161004e578063c23b139e146100f6578063e814ce7814610112578063ee9cdfb31461012e578063f064c32e1461015757610070565b80630f08efe01461007557806312e85585146100a0578063202e3740146100cb575b600080fd5b34801561008157600080fd5b5061008a610182565b60405161009791906115cc565b60405180910390f35b3480156100ac57600080fd5b506100b5610492565b6040516100c2919061166e565b60405180910390f35b3480156100d757600080fd5b506100e061049c565b6040516100ed91906115cc565b60405180910390f35b610110600480360381019061010b9190611260565b6107f8565b005b61012c600480360381019061012791906112a0565b610a46565b005b34801561013a57600080fd5b5061015560048036038101906101509190611307565b610daa565b005b34801561016357600080fd5b5061016c610e82565b60405161017991906115cc565b60405180910390f35b606060006101906001611172565b9050600061019e6002611172565b6101a86003611172565b6101b29190611729565b90506000808267ffffffffffffffff8111156101d1576101d061185e565b5b60405190808252806020026020018201604052801561020a57816020015b6101f7611196565b8152602001906001900390816101ef5790505b50905060005b8481101561048757600073ffffffffffffffffffffffffffffffffffffffff166006600083815260200190815260200160002060040160009054906101000a900473ffffffffffffffffffffffffffffffffffffffff1673ffffffffffffffffffffffffffffffffffffffff161480156102aa57506006600082815260200190815260200160002060060160009054906101000a900460ff165b156104745760006006600083815260200190815260200160002060000154905060006006600083815260200190815260200160002090508060405180610100016040529081600082015481526020016001820160009054906101000a900473ffffffffffffffffffffffffffffffffffffffff1673ffffffffffffffffffffffffffffffffffffffff1673ffffffffffffffffffffffffffffffffffffffff168152602001600282015481526020016003820160009054906101000a900473ffffffffffffffffffffffffffffffffffffffff1673ffffffffffffffffffffffffffffffffffffffff1673ffffffffffffffffffffffffffffffffffffffff1681526020016004820160009054906101000a900473ffffffffffffffffffffffffffffffffffffffff1673ffffffffffffffffffffffffffffffffffffffff1673ffffffffffffffffffffffffffffffffffffffff168152602001600582015481526020016006820160009054906101000a900460ff161515151581526020016006820160019054906101000a900460ff1615151515815250508486815181106104575761045661182f565b5b602002602001018190525060018561046f91906116d3565b945050505b808061047f906117b7565b915050610210565b508094505050505090565b6000600554905090565b606060006104aa6001611172565b905060008060005b83811015610547573373ffffffffffffffffffffffffffffffffffffffff166006600083815260200190815260200160002060030160009054906101000a900473ffffffffffffffffffffffffffffffffffffffff1673ffffffffffffffffffffffffffffffffffffffff1614156105345760018361053191906116d3565b92505b808061053f906117b7565b9150506104b2565b5060008267ffffffffffffffff8111156105645761056361185e565b5b60405190808252806020026020018201604052801561059d57816020015b61058a611196565b8152602001906001900390816105825790505b50905060005b848110156107ed573373ffffffffffffffffffffffffffffffffffffffff166006600083815260200190815260200160002060030160009054906101000a900473ffffffffffffffffffffffffffffffffffffffff1673ffffffffffffffffffffffffffffffffffffffff1614156107da5760006006600083815260200190815260200160002060000154905060006006600083815260200190815260200160002090508060405180610100016040529081600082015481526020016001820160009054906101000a900473ffffffffffffffffffffffffffffffffffffffff1673ffffffffffffffffffffffffffffffffffffffff1673ffffffffffffffffffffffffffffffffffffffff168152602001600282015481526020016003820160009054906101000a900473ffffffffffffffffffffffffffffffffffffffff1673ffffffffffffffffffffffffffffffffffffffff1673ffffffffffffffffffffffffffffffffffffffff1681526020016004820160009054906101000a900473ffffffffffffffffffffffffffffffffffffffff1673ffffffffffffffffffffffffffffffffffffffff1673ffffffffffffffffffffffffffffffffffffffff168152602001600582015481526020016006820160009054906101000a900460ff161515151581526020016006820160019054906101000a900460ff1615151515815250508486815181106107bd576107bc61182f565b5b60200260200101819052506001856107d591906116d3565b945050505b80806107e5906117b7565b9150506105a3565b508094505050505090565b6002600054141561083e576040517f08c379a00000000000000000000000000000000000000000000000000000000081526004016108359061162e565b60405180910390fd5b60026000819055506000600660008381526020019081526020016000206005015490506000600660008481526020019081526020016000206002015490508134146108be576040517f08c379a00000000000000000000000000000000000000000000000000000000081526004016108b59061164e565b60405180910390fd5b6006600084815260200190815260200160002060030160009054906101000a900473ffffffffffffffffffffffffffffffffffffffff1673ffffffffffffffffffffffffffffffffffffffff166108fc349081150290604051600060405180830381858888f1935050505015801561093a573d6000803e3d6000fd5b508373ffffffffffffffffffffffffffffffffffffffff166323b872dd3033846040518463ffffffff1660e01b815260040161097893929190611542565b600060405180830381600087803b15801561099257600080fd5b505af11580156109a6573d6000803e3d6000fd5b50505050336006600085815260200190815260200160002060040160006101000a81548173ffffffffffffffffffffffffffffffffffffffff021916908373ffffffffffffffffffffffffffffffffffffffff16021790555060016006600085815260200190815260200160002060060160016101000a81548160ff021916908315150217905550610a386002611180565b505060016000819055505050565b60026000541415610a8c576040517f08c379a0000000000000000000000000000000000000000000000000000000008152600401610a839061162e565b60405180910390fd5b600260008190555060008211610ad7576040517f08c379a0000000000000000000000000000000000000000000000000000000008152600401610ace906115ee565b60405180910390fd5b600115158115151415610aef57610aee6003611180565b5b6000610afb6001611172565b90506040518061010001604052808281526020018673ffffffffffffffffffffffffffffffffffffffff1681526020018581526020013373ffffffffffffffffffffffffffffffffffffffff168152602001600073ffffffffffffffffffffffffffffffffffffffff168152602001848152602001831515815260200160001515815250600660008381526020019081526020016000206000820151816000015560208201518160010160006101000a81548173ffffffffffffffffffffffffffffffffffffffff021916908373ffffffffffffffffffffffffffffffffffffffff1602179055506040820151816002015560608201518160030160006101000a81548173ffffffffffffffffffffffffffffffffffffffff021916908373ffffffffffffffffffffffffffffffffffffffff16021790555060808201518160040160006101000a81548173ffffffffffffffffffffffffffffffffffffffff021916908373ffffffffffffffffffffffffffffffffffffffff16021790555060a0820151816005015560c08201518160060160006101000a81548160ff02191690831515021790555060e08201518160060160016101000a81548160ff0219169083151502179055509050508473ffffffffffffffffffffffffffffffffffffffff166323b872dd3330876040518463ffffffff1660e01b8152600401610d0593929190611542565b600060405180830381600087803b158015610d1f57600080fd5b505af1158015610d33573d6000803e3d6000fd5b50505050610d416001611180565b838573ffffffffffffffffffffffffffffffffffffffff16827fc99151f4453170a67bc7441775fde1a3bc3220c06645df1121e703aab5e7da5d33600088600080604051610d93959493929190611579565b60405180910390a450600160008190555050505050565b6006600082815260200190815260200160002060030160009054906101000a900473ffffffffffffffffffffffffffffffffffffffff1673ffffffffffffffffffffffffffffffffffffffff163373ffffffffffffffffffffffffffffffffffffffff1614610e4e576040517f08c379a0000000000000000000000000000000000000000000000000000000008152600401610e459061160e565b60405180910390fd5b600115156006600083815260200190815260200160002060060160009054906101000a90505050610e7f6003611180565b50565b60606000610e906001611172565b905060008060005b83811015610f2c573373ffffffffffffffffffffffffffffffffffffffff166006600083815260200190815260200160002060030160009054906101000a900473ffffffffffffffffffffffffffffffffffffffff1673ffffffffffffffffffffffffffffffffffffffff161415610f19578280610f15906117b7565b9350505b8080610f24906117b7565b915050610e98565b5060008267ffffffffffffffff811115610f4957610f4861185e565b5b604051908082528060200260200182016040528015610f8257816020015b610f6f611196565b815260200190600190039081610f675790505b50905060005b848110156111675760006006600083815260200190815260200160002060000154905060006006600083815260200190815260200160002090508060405180610100016040529081600082015481526020016001820160009054906101000a900473ffffffffffffffffffffffffffffffffffffffff1673ffffffffffffffffffffffffffffffffffffffff1673ffffffffffffffffffffffffffffffffffffffff168152602001600282015481526020016003820160009054906101000a900473ffffffffffffffffffffffffffffffffffffffff1673ffffffffffffffffffffffffffffffffffffffff1673ffffffffffffffffffffffffffffffffffffffff1681526020016004820160009054906101000a900473ffffffffffffffffffffffffffffffffffffffff1673ffffffffffffffffffffffffffffffffffffffff1673ffffffffffffffffffffffffffffffffffffffff168152602001600582015481526020016006820160009054906101000a900460ff161515151581526020016006820160019054906101000a900460ff1615151515815250508486815181106111385761113761182f565b5b602002602001018190525060018561115091906116d3565b94505050808061115f906117b7565b915050610f88565b508094505050505090565b600081600001549050919050565b6001816000016000828254019250508190555050565b60405180610100016040528060008152602001600073ffffffffffffffffffffffffffffffffffffffff16815260200160008152602001600073ffffffffffffffffffffffffffffffffffffffff168152602001600073ffffffffffffffffffffffffffffffffffffffff168152602001600081526020016000151581526020016000151581525090565b60008135905061123081611936565b92915050565b6000813590506112458161194d565b92915050565b60008135905061125a81611964565b92915050565b600080604083850312156112775761127661188d565b5b600061128585828601611221565b92505060206112968582860161124b565b9150509250929050565b600080600080608085870312156112ba576112b961188d565b5b60006112c887828801611221565b94505060206112d98782880161124b565b93505060406112ea8782880161124b565b92505060606112fb87828801611236565b91505092959194509250565b60006020828403121561131d5761131c61188d565b5b600061132b8482850161124b565b91505092915050565b60006113408383611482565b6101008301905092915050565b6113568161176f565b82525050565b6113658161175d565b82525050565b6113748161175d565b82525050565b600061138582611699565b61138f81856116b1565b935061139a83611689565b8060005b838110156113cb5781516113b28882611334565b97506113bd836116a4565b92505060018101905061139e565b5085935050505092915050565b6113e181611781565b82525050565b6113f081611781565b82525050565b6000611403601f836116c2565b915061140e82611892565b602082019050919050565b6000611426601c836116c2565b9150611431826118bb565b602082019050919050565b6000611449601f836116c2565b9150611454826118e4565b602082019050919050565b600061146c6017836116c2565b91506114778261190d565b602082019050919050565b610100820160008201516114996000850182611524565b5060208201516114ac602085018261135c565b5060408201516114bf6040850182611524565b5060608201516114d2606085018261134d565b5060808201516114e5608085018261134d565b5060a08201516114f860a0850182611524565b5060c082015161150b60c08501826113d8565b5060e082015161151e60e08501826113d8565b50505050565b61152d816117ad565b82525050565b61153c816117ad565b82525050565b6000606082019050611557600083018661136b565b611564602083018561136b565b6115716040830184611533565b949350505050565b600060a08201905061158e600083018861136b565b61159b602083018761136b565b6115a86040830186611533565b6115b560608301856113e7565b6115c260808301846113e7565b9695505050505050565b600060208201905081810360008301526115e6818461137a565b905092915050565b60006020820190508181036000830152611607816113f6565b9050919050565b6000602082019050818103600083015261162781611419565b9050919050565b600060208201905081810360008301526116478161143c565b9050919050565b600060208201905081810360008301526116678161145f565b9050919050565b60006020820190506116836000830184611533565b92915050565b6000819050602082019050919050565b600081519050919050565b6000602082019050919050565b600082825260208201905092915050565b600082825260208201905092915050565b60006116de826117ad565b91506116e9836117ad565b9250827fffffffffffffffffffffffffffffffffffffffffffffffffffffffffffffffff0382111561171e5761171d611800565b5b828201905092915050565b6000611734826117ad565b915061173f836117ad565b92508282101561175257611751611800565b5b828203905092915050565b60006117688261178d565b9050919050565b600061177a8261178d565b9050919050565b60008115159050919050565b600073ffffffffffffffffffffffffffffffffffffffff82169050919050565b6000819050919050565b60006117c2826117ad565b91507fffffffffffffffffffffffffffffffffffffffffffffffffffffffffffffffff8214156117f5576117f4611800565b5b600182019050919050565b7f4e487b7100000000000000000000000000000000000000000000000000000000600052601160045260246000fd5b7f4e487b7100000000000000000000000000000000000000000000000000000000600052603260045260246000fd5b7f4e487b7100000000000000000000000000000000000000000000000000000000600052604160045260246000fd5b600080fd5b7f5072696365206d75737420626520686967686572207468616e20302077656900600082015250565b7f6f6e6c79206f6e7765722063616e2073656c6c2074686973204e465400000000600082015250565b7f5265656e7472616e637947756172643a207265656e7472616e742063616c6c00600082015250565b7f646f6573206e6f7420657175616c20746f207072696365000000000000000000600082015250565b61193f8161175d565b811461194a57600080fd5b50565b61195681611781565b811461196157600080fd5b50565b61196d816117ad565b811461197857600080fd5b5056fea26469706673582212209be3e74e1a7cde1ff2c3a3508891bfdcced9f32d88822b141b5031ececa1b09064736f6c63430008070033",
  "immutableReferences": {},
  "source": "// SPDX-License-Identifier: MIT\r\npragma solidity ^0.8.0;\r\n\r\nimport \"@openzeppelin/contracts/utils/Counters.sol\";\r\nimport \"@openzeppelin/contracts/security/ReentrancyGuard.sol\";\r\nimport \"@openzeppelin/contracts/token/ERC721/ERC721.sol\";\r\n\r\ncontract NFTMarket is ReentrancyGuard {\r\n    using Counters for Counters.Counter;\r\n    Counters.Counter private _itemIds;\r\n    Counters.Counter private _itemsSold;\r\n    Counters.Counter private _itemsOnSale;\r\n\r\n    address payable owner;\r\n    uint256 listingPrice = 0.025 ether;\r\n\r\n    constructor() {\r\n        owner = payable(msg.sender);\r\n    }\r\n\r\n    struct MarketItem {\r\n        uint itemId;\r\n        address nftContract;\r\n        uint256 tokenId;\r\n        address payable seller;\r\n        address payable owner;\r\n        uint256 price;\r\n        bool onSale;\r\n        bool sold;\r\n    }\r\n\r\n    mapping(uint256 => MarketItem) private idToMarketItem;\r\n\r\n    event MarketItemCreated (\r\n        uint indexed itemId,\r\n        address indexed nftContract,\r\n        uint256 indexed tokenId,\r\n        address seller,\r\n        address owner,\r\n        uint256 price,\r\n        bool onSale,\r\n        bool sold\r\n    );\r\n\r\n    /* Returns the listing price of the contract */\r\n    function getListingPrice() public view returns (uint256) {\r\n        return listingPrice;\r\n    }\r\n\r\n    function createMarketItem(\r\n        address nftContract, \r\n        uint256 tokenId, \r\n        uint256 price,\r\n        bool onSale\r\n    ) public payable nonReentrant {\r\n        require(price > 0, \"Price must be higher than 0 wei\");\r\n        //require(msg.value == listingPrice,\"Price mush be equal to list price\");\r\n        if(onSale == true) _itemsOnSale.increment();\r\n        \r\n        uint256 itemId = _itemIds.current();\r\n        idToMarketItem[itemId] = MarketItem(\r\n            itemId,\r\n            nftContract,\r\n            tokenId,\r\n            payable(msg.sender),\r\n            payable(address(0)),\r\n            price,\r\n            onSale,\r\n            false\r\n        );\r\n\r\n        IERC721(nftContract).transferFrom(msg.sender, address(this), tokenId);\r\n        _itemIds.increment();\r\n\r\n        emit MarketItemCreated(\r\n            itemId, \r\n            nftContract, \r\n            tokenId, \r\n            msg.sender, \r\n            address(0), \r\n            price, \r\n            false,\r\n            false\r\n        );\r\n    }\r\n\r\n    function sellNFT(uint256 itemId) public{\r\n        require(msg.sender == idToMarketItem[itemId].seller, \"only onwer can sell this NFT\");\r\n        idToMarketItem[itemId].onSale == true;\r\n        _itemsOnSale.increment();\r\n    }\r\n\r\n    function createMarketSale(\r\n        address nftContract, \r\n        uint256 itemId\r\n    ) public payable nonReentrant {\r\n        uint price = idToMarketItem[itemId].price;\r\n        uint tokenId = idToMarketItem[itemId].tokenId;\r\n        require(msg.value == price,\"does not equal to price\");\r\n\r\n        idToMarketItem[itemId].seller.transfer(msg.value);\r\n        IERC721(nftContract).transferFrom(address(this), msg.sender, tokenId);\r\n        idToMarketItem[itemId].owner = payable(msg.sender);\r\n        idToMarketItem[itemId].sold = true;\r\n        _itemsSold.increment();\r\n        //payable(owner).transfer(listingPrice);\r\n    }\r\n\r\n    //fetch marketItem for frontEnd\r\n    function fetchMarketItems() public view returns (MarketItem[] memory){\r\n        uint itemCount = _itemIds.current();\r\n        uint unsoldItemCount = _itemsOnSale.current() - _itemsSold.current();\r\n        uint currentIndex = 0;\r\n        \r\n        MarketItem[] memory items = new MarketItem[](unsoldItemCount);\r\n        for(uint i=0;i<itemCount;i++){\r\n            if(idToMarketItem[i].owner == address(0) && idToMarketItem[i].onSale){\r\n                uint currentId = idToMarketItem[i].itemId;\r\n                MarketItem storage currentItem = idToMarketItem [currentId];\r\n                items[currentIndex] = currentItem;\r\n                currentIndex += 1;\r\n            }\r\n        }\r\n        return items;\r\n    }\r\n\r\n    function fetchMyNFTs() public view returns (MarketItem[] memory){\r\n        uint totalItemCount = _itemIds.current();\r\n        uint itemCount = 0;\r\n        uint currentIndex = 0;\r\n        for(uint i = 0; i<totalItemCount; i++){\r\n            if(idToMarketItem[i].seller == msg.sender){\r\n                itemCount += 1;\r\n            }\r\n        }\r\n        MarketItem[] memory items = new MarketItem[](itemCount);\r\n        for(uint i = 0; i<totalItemCount; i++){\r\n            if(idToMarketItem[i].seller == msg.sender){\r\n                uint currentId = idToMarketItem[i].itemId;\r\n                MarketItem storage currentItem = idToMarketItem[currentId];\r\n                items[currentIndex] = currentItem;\r\n                currentIndex += 1;\r\n            }\r\n        }\r\n        return items;\r\n    }\r\n\r\n    function fetchItemsCreated() public view returns (MarketItem[] memory){\r\n        uint totalItemCount = _itemIds.current();\r\n        uint itemCount = 0;\r\n        uint currentIndex = 0;\r\n        \r\n        for(uint i=0; i<totalItemCount;i++){\r\n            if(idToMarketItem[i].seller == msg.sender) {\r\n                itemCount++;\r\n            }\r\n        }\r\n\r\n        MarketItem[] memory items = new MarketItem[](itemCount);\r\n        for(uint i=0;i<totalItemCount;i++){\r\n            uint currentId = idToMarketItem[i].itemId;\r\n            MarketItem storage currentItem = idToMarketItem[currentId];\r\n            items[currentIndex] = currentItem;\r\n            currentIndex += 1;\r\n        }\r\n        return items;\r\n    }\r\n\r\n\r\n    \r\n}",
  "sourcePath": "C:\\Users\\holyh\\code\\projects_Dapp\\MilalNFTMarket\\contracts\\NFTMarket.sol",
  "compiler": {
    "name": "solc",
    "version": "0.8.7+commit.e28d00a7.Emscripten.clang"
  },
  "schemaVersion": "3.4.2",
  "updatedAt": "2021-08-14T13:43:20.793Z",
  "networkType": "ethereum",
  "devdoc": {
    "kind": "dev",
    "methods": {},
    "version": 1
  },
  "userdoc": {
    "kind": "user",
    "methods": {},
    "version": 1
  }
}