{
  "contractName": "NFTMarket",
  "abi": [
    {
      "anonymous": false,
      "inputs": [
        {
          "indexed": true,
          "internalType": "uint256",
          "name": "itemId",
          "type": "uint256"
        },
        {
          "indexed": true,
          "internalType": "address",
          "name": "nftContract",
          "type": "address"
        },
        {
          "indexed": true,
          "internalType": "uint256",
          "name": "tokenId",
          "type": "uint256"
        },
        {
          "indexed": false,
          "internalType": "address",
          "name": "owner",
          "type": "address"
        },
        {
          "indexed": false,
          "internalType": "uint256",
          "name": "price",
          "type": "uint256"
        },
        {
          "indexed": false,
          "internalType": "bool",
          "name": "sold",
          "type": "bool"
        }
      ],
      "name": "MarketItemCreated",
      "type": "event"
    },
    {
      "anonymous": false,
      "inputs": [
        {
          "indexed": true,
          "internalType": "address",
          "name": "previousOwner",
          "type": "address"
        },
        {
          "indexed": true,
          "internalType": "address",
          "name": "newOwner",
          "type": "address"
        }
      ],
      "name": "OwnershipTransferred",
      "type": "event"
    },
    {
      "anonymous": false,
      "inputs": [
        {
          "indexed": false,
          "internalType": "uint256",
          "name": "id",
          "type": "uint256"
        },
        {
          "indexed": false,
          "internalType": "address",
          "name": "_orgAddress",
          "type": "address"
        },
        {
          "indexed": false,
          "internalType": "string",
          "name": "_orgName",
          "type": "string"
        }
      ],
      "name": "newOrgCreated",
      "type": "event"
    },
    {
      "anonymous": false,
      "inputs": [
        {
          "indexed": false,
          "internalType": "uint256",
          "name": "id",
          "type": "uint256"
        },
        {
          "indexed": false,
          "internalType": "address",
          "name": "_orgAddress",
          "type": "address"
        },
        {
          "indexed": false,
          "internalType": "string",
          "name": "_orgName",
          "type": "string"
        }
      ],
      "name": "orgDeleted",
      "type": "event"
    },
    {
      "inputs": [],
      "name": "owner",
      "outputs": [
        {
          "internalType": "address",
          "name": "",
          "type": "address"
        }
      ],
      "stateMutability": "view",
      "type": "function",
      "constant": true
    },
    {
      "inputs": [],
      "name": "renounceOwnership",
      "outputs": [],
      "stateMutability": "nonpayable",
      "type": "function"
    },
    {
      "inputs": [
        {
          "internalType": "address",
          "name": "newOwner",
          "type": "address"
        }
      ],
      "name": "transferOwnership",
      "outputs": [],
      "stateMutability": "nonpayable",
      "type": "function"
    },
    {
      "inputs": [
        {
          "internalType": "address",
          "name": "_orgAddress",
          "type": "address"
        },
        {
          "internalType": "string",
          "name": "_orgName",
          "type": "string"
        }
      ],
      "name": "addOrganization",
      "outputs": [
        {
          "internalType": "uint256",
          "name": "",
          "type": "uint256"
        }
      ],
      "stateMutability": "nonpayable",
      "type": "function"
    },
    {
      "inputs": [
        {
          "internalType": "uint256",
          "name": "_tokenId",
          "type": "uint256"
        }
      ],
      "name": "deleteOrgainzation",
      "outputs": [],
      "stateMutability": "nonpayable",
      "type": "function"
    },
    {
      "inputs": [
        {
          "internalType": "uint256",
          "name": "_tokenId",
          "type": "uint256"
        }
      ],
      "name": "getOrgAddressById",
      "outputs": [
        {
          "internalType": "address",
          "name": "",
          "type": "address"
        }
      ],
      "stateMutability": "view",
      "type": "function",
      "constant": true
    },
    {
      "inputs": [],
      "name": "fetchOrganization",
      "outputs": [
        {
          "components": [
            {
              "internalType": "uint256",
              "name": "id",
              "type": "uint256"
            },
            {
              "internalType": "address",
              "name": "orgAddress",
              "type": "address"
            },
            {
              "internalType": "string",
              "name": "name",
              "type": "string"
            }
          ],
          "internalType": "struct NFTMarket.Organization[]",
          "name": "",
          "type": "tuple[]"
        }
      ],
      "stateMutability": "view",
      "type": "function",
      "constant": true
    },
    {
      "inputs": [],
      "name": "getListingPrice",
      "outputs": [
        {
          "internalType": "uint256",
          "name": "",
          "type": "uint256"
        }
      ],
      "stateMutability": "view",
      "type": "function",
      "constant": true
    },
    {
      "inputs": [
        {
          "internalType": "uint256",
          "name": "_newListingPrice",
          "type": "uint256"
        }
      ],
      "name": "setListingPrice",
      "outputs": [],
      "stateMutability": "nonpayable",
      "type": "function"
    },
    {
      "inputs": [
        {
          "internalType": "address",
          "name": "nftContract",
          "type": "address"
        },
        {
          "internalType": "uint256",
          "name": "tokenId",
          "type": "uint256"
        },
        {
          "internalType": "uint256",
          "name": "price",
          "type": "uint256"
        },
        {
          "internalType": "address",
          "name": "_donateToWho",
          "type": "address"
        },
        {
          "internalType": "bool",
          "name": "_bid",
          "type": "bool"
        },
        {
          "internalType": "uint256",
          "name": "_biddingTime",
          "type": "uint256"
        }
      ],
      "name": "createMarketItem",
      "outputs": [],
      "stateMutability": "payable",
      "type": "function",
      "payable": true
    },
    {
      "inputs": [
        {
          "internalType": "address",
          "name": "nftContract",
          "type": "address"
        },
        {
          "internalType": "uint256",
          "name": "_itemId",
          "type": "uint256"
        }
      ],
      "name": "createMarketSale",
      "outputs": [],
      "stateMutability": "payable",
      "type": "function",
      "payable": true
    },
    {
      "inputs": [
        {
          "internalType": "uint256",
          "name": "_itemId",
          "type": "uint256"
        }
      ],
      "name": "placeBid",
      "outputs": [],
      "stateMutability": "payable",
      "type": "function",
      "payable": true
    },
    {
      "inputs": [],
      "name": "fetchMarketItems",
      "outputs": [
        {
          "components": [
            {
              "internalType": "uint256",
              "name": "itemId",
              "type": "uint256"
            },
            {
              "internalType": "address",
              "name": "nftContract",
              "type": "address"
            },
            {
              "internalType": "uint256",
              "name": "tokenId",
              "type": "uint256"
            },
            {
              "internalType": "address payable",
              "name": "owner",
              "type": "address"
            },
            {
              "internalType": "uint256",
              "name": "price",
              "type": "uint256"
            },
            {
              "internalType": "bool",
              "name": "bid",
              "type": "bool"
            },
            {
              "internalType": "bool",
              "name": "sold",
              "type": "bool"
            },
            {
              "internalType": "address payable",
              "name": "donateTo",
              "type": "address"
            },
            {
              "internalType": "address payable",
              "name": "highestBider",
              "type": "address"
            },
            {
              "internalType": "uint256",
              "name": "bidingStart",
              "type": "uint256"
            },
            {
              "internalType": "uint256",
              "name": "bidingEnd",
              "type": "uint256"
            }
          ],
          "internalType": "struct NFTMarket.MarketItem[]",
          "name": "",
          "type": "tuple[]"
        }
      ],
      "stateMutability": "view",
      "type": "function",
      "constant": true
    },
    {
      "inputs": [],
      "name": "fetchMyNFTs",
      "outputs": [
        {
          "components": [
            {
              "internalType": "uint256",
              "name": "itemId",
              "type": "uint256"
            },
            {
              "internalType": "address",
              "name": "nftContract",
              "type": "address"
            },
            {
              "internalType": "uint256",
              "name": "tokenId",
              "type": "uint256"
            },
            {
              "internalType": "address payable",
              "name": "owner",
              "type": "address"
            },
            {
              "internalType": "uint256",
              "name": "price",
              "type": "uint256"
            },
            {
              "internalType": "bool",
              "name": "bid",
              "type": "bool"
            },
            {
              "internalType": "bool",
              "name": "sold",
              "type": "bool"
            },
            {
              "internalType": "address payable",
              "name": "donateTo",
              "type": "address"
            },
            {
              "internalType": "address payable",
              "name": "highestBider",
              "type": "address"
            },
            {
              "internalType": "uint256",
              "name": "bidingStart",
              "type": "uint256"
            },
            {
              "internalType": "uint256",
              "name": "bidingEnd",
              "type": "uint256"
            }
          ],
          "internalType": "struct NFTMarket.MarketItem[]",
          "name": "",
          "type": "tuple[]"
        }
      ],
      "stateMutability": "view",
      "type": "function",
      "constant": true
    },
    {
      "inputs": [],
      "name": "fetchBidItems",
      "outputs": [
        {
          "components": [
            {
              "internalType": "uint256",
              "name": "itemId",
              "type": "uint256"
            },
            {
              "internalType": "address",
              "name": "nftContract",
              "type": "address"
            },
            {
              "internalType": "uint256",
              "name": "tokenId",
              "type": "uint256"
            },
            {
              "internalType": "address payable",
              "name": "owner",
              "type": "address"
            },
            {
              "internalType": "uint256",
              "name": "price",
              "type": "uint256"
            },
            {
              "internalType": "bool",
              "name": "bid",
              "type": "bool"
            },
            {
              "internalType": "bool",
              "name": "sold",
              "type": "bool"
            },
            {
              "internalType": "address payable",
              "name": "donateTo",
              "type": "address"
            },
            {
              "internalType": "address payable",
              "name": "highestBider",
              "type": "address"
            },
            {
              "internalType": "uint256",
              "name": "bidingStart",
              "type": "uint256"
            },
            {
              "internalType": "uint256",
              "name": "bidingEnd",
              "type": "uint256"
            }
          ],
          "internalType": "struct NFTMarket.MarketItem[]",
          "name": "",
          "type": "tuple[]"
        }
      ],
      "stateMutability": "view",
      "type": "function",
      "constant": true
    }
  ],
  "bytecode": "0x60806040526611c37937e080006006553480156200001c57600080fd5b50600160008190555062000045620000396200004b60201b60201c565b6200005360201b60201c565b62000119565b600033905090565b6000600160009054906101000a900473ffffffffffffffffffffffffffffffffffffffff16905081600160006101000a81548173ffffffffffffffffffffffffffffffffffffffff021916908373ffffffffffffffffffffffffffffffffffffffff1602179055508173ffffffffffffffffffffffffffffffffffffffff168173ffffffffffffffffffffffffffffffffffffffff167f8be0079c531659141344cd1fd0a4f28419497f9722a3daafe3b4186f6b6457e060405160405180910390a35050565b61328980620001296000396000f3fe6080604052600436106100e85760003560e01c806380e1d0e91161008a578063b6cbb28f11610059578063b6cbb28f146102b6578063c23b139e146102df578063c7f5a99b146102fb578063f2fde38b14610326576100e8565b806380e1d0e9146102285780638da5cb5b146102445780639979ef451461026f578063b16c93c41461028b576100e8565b80635296598c116100c65780635296598c1461016e5780636867478a146101ab578063715018a6146101e85780637c726b69146101ff576100e8565b80630f08efe0146100ed57806312e8558514610118578063202e374014610143575b600080fd5b3480156100f957600080fd5b5061010261034f565b60405161010f9190612970565b60405180910390f35b34801561012457600080fd5b5061012d610662565b60405161013a9190612af4565b60405180910390f35b34801561014f57600080fd5b5061015861066c565b6040516101659190612970565b60405180910390f35b34801561017a57600080fd5b50610195600480360381019061019091906123d0565b610a32565b6040516101a291906128e7565b60405180910390f35b3480156101b757600080fd5b506101d260048036038101906101cd91906122a7565b610a72565b6040516101df9190612af4565b60405180910390f35b3480156101f457600080fd5b506101fd610ced565b005b34801561020b57600080fd5b50610226600480360381019061022191906123d0565b610d75565b005b610242600480360381019061023d9190612343565b610dfb565b005b34801561025057600080fd5b50610259611267565b60405161026691906128e7565b60405180910390f35b610289600480360381019061028491906123d0565b611291565b005b34801561029757600080fd5b506102a061146e565b6040516102ad9190612970565b60405180910390f35b3480156102c257600080fd5b506102dd60048036038101906102d891906123d0565b6117c0565b005b6102f960048036038101906102f49190612303565b61191a565b005b34801561030757600080fd5b50610310611c21565b60405161031d9190612992565b60405180910390f35b34801561033257600080fd5b5061034d6004803603810190610348919061227a565b611e11565b005b6060600061035d6002611f09565b9050600061036b6003611f09565b6103756004611f09565b61037f9190612d76565b90506000808267ffffffffffffffff81111561039e5761039d612fae565b5b6040519080825280602002602001820160405280156103d757816020015b6103c4611ffb565b8152602001906001900390816103bc5790505b50905060005b8481101561065757600015156007600083815260200190815260200160002060050160019054906101000a900460ff16151514156106445760006007600083815260200190815260200160002060000154905060006007600083815260200190815260200160002090508060405180610160016040529081600082015481526020016001820160009054906101000a900473ffffffffffffffffffffffffffffffffffffffff1673ffffffffffffffffffffffffffffffffffffffff1673ffffffffffffffffffffffffffffffffffffffff168152602001600282015481526020016003820160009054906101000a900473ffffffffffffffffffffffffffffffffffffffff1673ffffffffffffffffffffffffffffffffffffffff1673ffffffffffffffffffffffffffffffffffffffff168152602001600482015481526020016005820160009054906101000a900460ff161515151581526020016005820160019054906101000a900460ff161515151581526020016005820160029054906101000a900473ffffffffffffffffffffffffffffffffffffffff1673ffffffffffffffffffffffffffffffffffffffff1673ffffffffffffffffffffffffffffffffffffffff1681526020016006820160009054906101000a900473ffffffffffffffffffffffffffffffffffffffff1673ffffffffffffffffffffffffffffffffffffffff1673ffffffffffffffffffffffffffffffffffffffff1681526020016007820154815260200160088201548152505084868151811061062757610626612f7f565b5b602002602001018190525060018561063f9190612c95565b945050505b808061064f90612ea9565b9150506103dd565b508094505050505090565b6000600654905090565b6060600061067a6002611f09565b905060008060005b83811015610717573373ffffffffffffffffffffffffffffffffffffffff166007600083815260200190815260200160002060030160009054906101000a900473ffffffffffffffffffffffffffffffffffffffff1673ffffffffffffffffffffffffffffffffffffffff161415610704576001836107019190612c95565b92505b808061070f90612ea9565b915050610682565b5060008267ffffffffffffffff81111561073457610733612fae565b5b60405190808252806020026020018201604052801561076d57816020015b61075a611ffb565b8152602001906001900390816107525790505b50905060005b84811015610a27573373ffffffffffffffffffffffffffffffffffffffff166007600083815260200190815260200160002060030160009054906101000a900473ffffffffffffffffffffffffffffffffffffffff1673ffffffffffffffffffffffffffffffffffffffff161415610a145760006007600083815260200190815260200160002060000154905060006007600083815260200190815260200160002090508060405180610160016040529081600082015481526020016001820160009054906101000a900473ffffffffffffffffffffffffffffffffffffffff1673ffffffffffffffffffffffffffffffffffffffff1673ffffffffffffffffffffffffffffffffffffffff168152602001600282015481526020016003820160009054906101000a900473ffffffffffffffffffffffffffffffffffffffff1673ffffffffffffffffffffffffffffffffffffffff1673ffffffffffffffffffffffffffffffffffffffff168152602001600482015481526020016005820160009054906101000a900460ff161515151581526020016005820160019054906101000a900460ff161515151581526020016005820160029054906101000a900473ffffffffffffffffffffffffffffffffffffffff1673ffffffffffffffffffffffffffffffffffffffff1673ffffffffffffffffffffffffffffffffffffffff1681526020016006820160009054906101000a900473ffffffffffffffffffffffffffffffffffffffff1673ffffffffffffffffffffffffffffffffffffffff1673ffffffffffffffffffffffffffffffffffffffff168152602001600782015481526020016008820154815250508486815181106109f7576109f6612f7f565b5b6020026020010181905250600185610a0f9190612c95565b945050505b8080610a1f90612ea9565b915050610773565b508094505050505090565b60006008600083815260200190815260200160002060010160009054906101000a900473ffffffffffffffffffffffffffffffffffffffff169050919050565b6000610a7c611f17565b73ffffffffffffffffffffffffffffffffffffffff16610a9a611267565b73ffffffffffffffffffffffffffffffffffffffff1614610af0576040517f08c379a0000000000000000000000000000000000000000000000000000000008152600401610ae790612a54565b60405180910390fd5b60001515600960008573ffffffffffffffffffffffffffffffffffffffff1673ffffffffffffffffffffffffffffffffffffffff16815260200190815260200160002060009054906101000a900460ff16151514610b83576040517f08c379a0000000000000000000000000000000000000000000000000000000008152600401610b7a906129b4565b60405180910390fd5b6000610b8f6005611f09565b905060405180606001604052808281526020018573ffffffffffffffffffffffffffffffffffffffff16815260200184815250600860008381526020019081526020016000206000820151816000015560208201518160010160006101000a81548173ffffffffffffffffffffffffffffffffffffffff021916908373ffffffffffffffffffffffffffffffffffffffff1602179055506040820151816002019080519060200190610c429291906120b1565b509050507f8e3149d65a2b302cac071680086a826a48959636bf6abecb36e151b419621f75818585604051610c7993929190612b0f565b60405180910390a1610c8b6005611f1f565b6001600960008673ffffffffffffffffffffffffffffffffffffffff1673ffffffffffffffffffffffffffffffffffffffff16815260200190815260200160002060006101000a81548160ff0219169083151502179055508091505092915050565b610cf5611f17565b73ffffffffffffffffffffffffffffffffffffffff16610d13611267565b73ffffffffffffffffffffffffffffffffffffffff1614610d69576040517f08c379a0000000000000000000000000000000000000000000000000000000008152600401610d6090612a54565b60405180910390fd5b610d736000611f35565b565b610d7d611f17565b73ffffffffffffffffffffffffffffffffffffffff16610d9b611267565b73ffffffffffffffffffffffffffffffffffffffff1614610df1576040517f08c379a0000000000000000000000000000000000000000000000000000000008152600401610de890612a54565b60405180910390fd5b8060068190555050565b60026000541415610e41576040517f08c379a0000000000000000000000000000000000000000000000000000000008152600401610e3890612a74565b60405180910390fd5b600260008190555060008411610e8c576040517f08c379a0000000000000000000000000000000000000000000000000000000008152600401610e8390612a34565b60405180910390fd5b6006543414610ed0576040517f08c379a0000000000000000000000000000000000000000000000000000000008152600401610ec790612a14565b60405180910390fd5b6000610edc6002611f09565b90506040518061016001604052808281526020018873ffffffffffffffffffffffffffffffffffffffff1681526020018781526020013373ffffffffffffffffffffffffffffffffffffffff16815260200186815260200184151581526020016000151581526020018573ffffffffffffffffffffffffffffffffffffffff168152602001600073ffffffffffffffffffffffffffffffffffffffff1681526020014281526020018342610f909190612c95565b815250600760008381526020019081526020016000206000820151816000015560208201518160010160006101000a81548173ffffffffffffffffffffffffffffffffffffffff021916908373ffffffffffffffffffffffffffffffffffffffff1602179055506040820151816002015560608201518160030160006101000a81548173ffffffffffffffffffffffffffffffffffffffff021916908373ffffffffffffffffffffffffffffffffffffffff1602179055506080820151816004015560a08201518160050160006101000a81548160ff02191690831515021790555060c08201518160050160016101000a81548160ff02191690831515021790555060e08201518160050160026101000a81548173ffffffffffffffffffffffffffffffffffffffff021916908373ffffffffffffffffffffffffffffffffffffffff1602179055506101008201518160060160006101000a81548173ffffffffffffffffffffffffffffffffffffffff021916908373ffffffffffffffffffffffffffffffffffffffff160217905550610120820151816007015561014082015181600801559050508673ffffffffffffffffffffffffffffffffffffffff166323b872dd3330896040518463ffffffff1660e01b815260040161117793929190612902565b600060405180830381600087803b15801561119157600080fd5b505af11580156111a5573d6000803e3d6000fd5b505050506111b36002611f1f565b6111bb611267565b73ffffffffffffffffffffffffffffffffffffffff166108fc349081150290604051600060405180830381858888f19350505050158015611200573d6000803e3d6000fd5b50858773ffffffffffffffffffffffffffffffffffffffff16827f3a703684ac0e06cbc245a465cb3c43faf40a53aff175518595f6aac9d61afe633389600060405161124e93929190612939565b60405180910390a4506001600081905550505050505050565b6000600160009054906101000a900473ffffffffffffffffffffffffffffffffffffffff16905090565b600115156007600083815260200190815260200160002060050160009054906101000a900460ff161515146112fb576040517f08c379a00000000000000000000000000000000000000000000000000000000081526004016112f2906129f4565b60405180910390fd5b34600760008381526020019081526020016000206004015410611353576040517f08c379a000000000000000000000000000000000000000000000000000000000815260040161134a90612ab4565b60405180910390fd5b60076000828152602001908152602001600020600801544211156113ac576040517f08c379a00000000000000000000000000000000000000000000000000000000081526004016113a390612a94565b60405180910390fd5b6007600082815260200190815260200160002060030160009054906101000a900473ffffffffffffffffffffffffffffffffffffffff1673ffffffffffffffffffffffffffffffffffffffff163373ffffffffffffffffffffffffffffffffffffffff16141561141b57600080fd5b3373ffffffffffffffffffffffffffffffffffffffff166007600083815260200190815260200160002060060160009054906101000a905050503460076000838152602001908152602001600020505050565b6060600061147c6002611f09565b905060008060005b838110156114df57600115156007600083815260200190815260200160002060050160009054906101000a900460ff16151514156114cc576001836114c99190612c95565b92505b80806114d790612ea9565b915050611484565b5060008267ffffffffffffffff8111156114fc576114fb612fae565b5b60405190808252806020026020018201604052801561153557816020015b611522611ffb565b81526020019060019003908161151a5790505b50905060005b848110156117b557600115156007600083815260200190815260200160002060050160009054906101000a900460ff16151514156117a25760006007600083815260200190815260200160002060000154905060006007600083815260200190815260200160002090508060405180610160016040529081600082015481526020016001820160009054906101000a900473ffffffffffffffffffffffffffffffffffffffff1673ffffffffffffffffffffffffffffffffffffffff1673ffffffffffffffffffffffffffffffffffffffff168152602001600282015481526020016003820160009054906101000a900473ffffffffffffffffffffffffffffffffffffffff1673ffffffffffffffffffffffffffffffffffffffff1673ffffffffffffffffffffffffffffffffffffffff168152602001600482015481526020016005820160009054906101000a900460ff161515151581526020016005820160019054906101000a900460ff161515151581526020016005820160029054906101000a900473ffffffffffffffffffffffffffffffffffffffff1673ffffffffffffffffffffffffffffffffffffffff1673ffffffffffffffffffffffffffffffffffffffff1681526020016006820160009054906101000a900473ffffffffffffffffffffffffffffffffffffffff1673ffffffffffffffffffffffffffffffffffffffff1673ffffffffffffffffffffffffffffffffffffffff1681526020016007820154815260200160088201548152505084868151811061178557611784612f7f565b5b602002602001018190525060018561179d9190612c95565b945050505b80806117ad90612ea9565b91505061153b565b508094505050505090565b6117c8611f17565b73ffffffffffffffffffffffffffffffffffffffff166117e6611267565b73ffffffffffffffffffffffffffffffffffffffff161461183c576040517f08c379a000000000000000000000000000000000000000000000000000000000815260040161183390612a54565b60405180910390fd5b7f8e3149d65a2b302cac071680086a826a48959636bf6abecb36e151b419621f75816008600084815260200190815260200160002060010160009054906101000a900473ffffffffffffffffffffffffffffffffffffffff16600860008581526020019081526020016000206002016040516118ba93929190612b4d565b60405180910390a1600860008281526020019081526020016000206000808201600090556001820160006101000a81549073ffffffffffffffffffffffffffffffffffffffff02191690556002820160006119159190612137565b505050565b60026000541415611960576040517f08c379a000000000000000000000000000000000000000000000000000000000815260040161195790612a74565b60405180910390fd5b60026000819055506000600760008381526020019081526020016000206004015490506000600760008481526020019081526020016000206002015490508134146119e0576040517f08c379a00000000000000000000000000000000000000000000000000000000081526004016119d790612ad4565b60405180910390fd5b60006001600a346119f19190612ceb565b6119fb9190612d1c565b905060006009600a34611a0e9190612ceb565b611a189190612d1c565b90506007600086815260200190815260200160002060030160009054906101000a900473ffffffffffffffffffffffffffffffffffffffff1673ffffffffffffffffffffffffffffffffffffffff166108fc839081150290604051600060405180830381858888f19350505050158015611a96573d6000803e3d6000fd5b506007600086815260200190815260200160002060050160029054906101000a900473ffffffffffffffffffffffffffffffffffffffff1673ffffffffffffffffffffffffffffffffffffffff166108fc829081150290604051600060405180830381858888f19350505050158015611b13573d6000803e3d6000fd5b508573ffffffffffffffffffffffffffffffffffffffff166323b872dd3033866040518463ffffffff1660e01b8152600401611b5193929190612902565b600060405180830381600087803b158015611b6b57600080fd5b505af1158015611b7f573d6000803e3d6000fd5b50505050336007600087815260200190815260200160002060030160006101000a81548173ffffffffffffffffffffffffffffffffffffffff021916908373ffffffffffffffffffffffffffffffffffffffff16021790555060016007600087815260200190815260200160002060050160016101000a81548160ff021916908315150217905550611c116003611f1f565b5050505060016000819055505050565b60606000611c2f6005611f09565b90506000808267ffffffffffffffff811115611c4e57611c4d612fae565b5b604051908082528060200260200182016040528015611c8757816020015b611c74612177565b815260200190600190039081611c6c5790505b50905060005b83811015611e0757600060086000838152602001908152602001600020600001549050600060086000838152602001908152602001600020905080604051806060016040529081600082015481526020016001820160009054906101000a900473ffffffffffffffffffffffffffffffffffffffff1673ffffffffffffffffffffffffffffffffffffffff1673ffffffffffffffffffffffffffffffffffffffff168152602001600282018054611d4390612e46565b80601f0160208091040260200160405190810160405280929190818152602001828054611d6f90612e46565b8015611dbc5780601f10611d9157610100808354040283529160200191611dbc565b820191906000526020600020905b815481529060010190602001808311611d9f57829003601f168201915b505050505081525050848681518110611dd857611dd7612f7f565b5b6020026020010181905250600185611df09190612c95565b945050508080611dff90612ea9565b915050611c8d565b5080935050505090565b611e19611f17565b73ffffffffffffffffffffffffffffffffffffffff16611e37611267565b73ffffffffffffffffffffffffffffffffffffffff1614611e8d576040517f08c379a0000000000000000000000000000000000000000000000000000000008152600401611e8490612a54565b60405180910390fd5b600073ffffffffffffffffffffffffffffffffffffffff168173ffffffffffffffffffffffffffffffffffffffff161415611efd576040517f08c379a0000000000000000000000000000000000000000000000000000000008152600401611ef4906129d4565b60405180910390fd5b611f0681611f35565b50565b600081600001549050919050565b600033905090565b6001816000016000828254019250508190555050565b6000600160009054906101000a900473ffffffffffffffffffffffffffffffffffffffff16905081600160006101000a81548173ffffffffffffffffffffffffffffffffffffffff021916908373ffffffffffffffffffffffffffffffffffffffff1602179055508173ffffffffffffffffffffffffffffffffffffffff168173ffffffffffffffffffffffffffffffffffffffff167f8be0079c531659141344cd1fd0a4f28419497f9722a3daafe3b4186f6b6457e060405160405180910390a35050565b60405180610160016040528060008152602001600073ffffffffffffffffffffffffffffffffffffffff16815260200160008152602001600073ffffffffffffffffffffffffffffffffffffffff16815260200160008152602001600015158152602001600015158152602001600073ffffffffffffffffffffffffffffffffffffffff168152602001600073ffffffffffffffffffffffffffffffffffffffff16815260200160008152602001600081525090565b8280546120bd90612e46565b90600052602060002090601f0160209004810192826120df5760008555612126565b82601f106120f857805160ff1916838001178555612126565b82800160010185558215612126579182015b8281111561212557825182559160200191906001019061210a565b5b50905061213391906121ae565b5090565b50805461214390612e46565b6000825580601f106121555750612174565b601f01602090049060005260206000209081019061217391906121ae565b5b50565b604051806060016040528060008152602001600073ffffffffffffffffffffffffffffffffffffffff168152602001606081525090565b5b808211156121c75760008160009055506001016121af565b5090565b60006121de6121d984612bb0565b612b8b565b9050828152602081018484840111156121fa576121f9612fe2565b5b612205848285612e04565b509392505050565b60008135905061221c8161320e565b92915050565b60008135905061223181613225565b92915050565b600082601f83011261224c5761224b612fdd565b5b813561225c8482602086016121cb565b91505092915050565b6000813590506122748161323c565b92915050565b6000602082840312156122905761228f612fec565b5b600061229e8482850161220d565b91505092915050565b600080604083850312156122be576122bd612fec565b5b60006122cc8582860161220d565b925050602083013567ffffffffffffffff8111156122ed576122ec612fe7565b5b6122f985828601612237565b9150509250929050565b6000806040838503121561231a57612319612fec565b5b60006123288582860161220d565b925050602061233985828601612265565b9150509250929050565b60008060008060008060c087890312156123605761235f612fec565b5b600061236e89828a0161220d565b965050602061237f89828a01612265565b955050604061239089828a01612265565b94505060606123a189828a0161220d565b93505060806123b289828a01612222565b92505060a06123c389828a01612265565b9150509295509295509295565b6000602082840312156123e6576123e5612fec565b5b60006123f484828501612265565b91505092915050565b60006124098383612798565b6101608301905092915050565b60006124228383612879565b905092915050565b61243381612dbc565b82525050565b61244281612daa565b82525050565b61245181612daa565b82525050565b600061246282612c16565b61246c8185612c51565b935061247783612be1565b8060005b838110156124a857815161248f88826123fd565b975061249a83612c37565b92505060018101905061247b565b5085935050505092915050565b60006124c082612c21565b6124ca8185612c62565b9350836020820285016124dc85612bf1565b8060005b8581101561251857848403895281516124f98582612416565b945061250483612c44565b925060208a019950506001810190506124e0565b50829750879550505050505092915050565b61253381612dce565b82525050565b61254281612dce565b82525050565b600061255382612c2c565b61255d8185612c73565b935061256d818560208601612e13565b61257681612ff1565b840191505092915050565b600061258c82612c2c565b6125968185612c84565b93506125a6818560208601612e13565b6125af81612ff1565b840191505092915050565b600081546125c781612e46565b6125d18186612c84565b945060018216600081146125ec57600181146125fe57612631565b60ff1983168652602086019350612631565b61260785612c01565b60005b838110156126295781548189015260018201915060208101905061260a565b808801955050505b50505092915050565b6000612647601d83612c84565b915061265282613002565b602082019050919050565b600061266a602683612c84565b91506126758261302b565b604082019050919050565b600061268d600a83612c84565b91506126988261307a565b602082019050919050565b60006126b0602183612c84565b91506126bb826130a3565b604082019050919050565b60006126d3601f83612c84565b91506126de826130f2565b602082019050919050565b60006126f6602083612c84565b91506127018261311b565b602082019050919050565b6000612719601f83612c84565b915061272482613144565b602082019050919050565b600061273c601083612c84565b91506127478261316d565b602082019050919050565b600061275f603c83612c84565b915061276a82613196565b604082019050919050565b6000612782601783612c84565b915061278d826131e5565b602082019050919050565b610160820160008201516127af60008501826128c9565b5060208201516127c26020850182612439565b5060408201516127d560408501826128c9565b5060608201516127e8606085018261242a565b5060808201516127fb60808501826128c9565b5060a082015161280e60a085018261252a565b5060c082015161282160c085018261252a565b5060e082015161283460e085018261242a565b5061010082015161284961010085018261242a565b5061012082015161285e6101208501826128c9565b506101408201516128736101408501826128c9565b50505050565b600060608301600083015161289160008601826128c9565b5060208301516128a46020860182612439565b50604083015184820360408601526128bc8282612548565b9150508091505092915050565b6128d281612dfa565b82525050565b6128e181612dfa565b82525050565b60006020820190506128fc6000830184612448565b92915050565b60006060820190506129176000830186612448565b6129246020830185612448565b61293160408301846128d8565b949350505050565b600060608201905061294e6000830186612448565b61295b60208301856128d8565b6129686040830184612539565b949350505050565b6000602082019050818103600083015261298a8184612457565b905092915050565b600060208201905081810360008301526129ac81846124b5565b905092915050565b600060208201905081810360008301526129cd8161263a565b9050919050565b600060208201905081810360008301526129ed8161265d565b9050919050565b60006020820190508181036000830152612a0d81612680565b9050919050565b60006020820190508181036000830152612a2d816126a3565b9050919050565b60006020820190508181036000830152612a4d816126c6565b9050919050565b60006020820190508181036000830152612a6d816126e9565b9050919050565b60006020820190508181036000830152612a8d8161270c565b9050919050565b60006020820190508181036000830152612aad8161272f565b9050919050565b60006020820190508181036000830152612acd81612752565b9050919050565b60006020820190508181036000830152612aed81612775565b9050919050565b6000602082019050612b0960008301846128d8565b92915050565b6000606082019050612b2460008301866128d8565b612b316020830185612448565b8181036040830152612b438184612581565b9050949350505050565b6000606082019050612b6260008301866128d8565b612b6f6020830185612448565b8181036040830152612b8181846125ba565b9050949350505050565b6000612b95612ba6565b9050612ba18282612e78565b919050565b6000604051905090565b600067ffffffffffffffff821115612bcb57612bca612fae565b5b612bd482612ff1565b9050602081019050919050565b6000819050602082019050919050565b6000819050602082019050919050565b60008190508160005260206000209050919050565b600081519050919050565b600081519050919050565b600081519050919050565b6000602082019050919050565b6000602082019050919050565b600082825260208201905092915050565b600082825260208201905092915050565b600082825260208201905092915050565b600082825260208201905092915050565b6000612ca082612dfa565b9150612cab83612dfa565b9250827fffffffffffffffffffffffffffffffffffffffffffffffffffffffffffffffff03821115612ce057612cdf612ef2565b5b828201905092915050565b6000612cf682612dfa565b9150612d0183612dfa565b925082612d1157612d10612f21565b5b828204905092915050565b6000612d2782612dfa565b9150612d3283612dfa565b9250817fffffffffffffffffffffffffffffffffffffffffffffffffffffffffffffffff0483118215151615612d6b57612d6a612ef2565b5b828202905092915050565b6000612d8182612dfa565b9150612d8c83612dfa565b925082821015612d9f57612d9e612ef2565b5b828203905092915050565b6000612db582612dda565b9050919050565b6000612dc782612dda565b9050919050565b60008115159050919050565b600073ffffffffffffffffffffffffffffffffffffffff82169050919050565b6000819050919050565b82818337600083830152505050565b60005b83811015612e31578082015181840152602081019050612e16565b83811115612e40576000848401525b50505050565b60006002820490506001821680612e5e57607f821691505b60208210811415612e7257612e71612f50565b5b50919050565b612e8182612ff1565b810181811067ffffffffffffffff82111715612ea057612e9f612fae565b5b80604052505050565b6000612eb482612dfa565b91507fffffffffffffffffffffffffffffffffffffffffffffffffffffffffffffffff821415612ee757612ee6612ef2565b5b600182019050919050565b7f4e487b7100000000000000000000000000000000000000000000000000000000600052601160045260246000fd5b7f4e487b7100000000000000000000000000000000000000000000000000000000600052601260045260246000fd5b7f4e487b7100000000000000000000000000000000000000000000000000000000600052602260045260246000fd5b7f4e487b7100000000000000000000000000000000000000000000000000000000600052603260045260246000fd5b7f4e487b7100000000000000000000000000000000000000000000000000000000600052604160045260246000fd5b600080fd5b600080fd5b600080fd5b600080fd5b6000601f19601f8301169050919050565b7f4f7267616e697a6174696f6e20697320616c7265616479206578697374000000600082015250565b7f4f776e61626c653a206e6577206f776e657220697320746865207a65726f206160008201527f6464726573730000000000000000000000000000000000000000000000000000602082015250565b7f6e6f74206f6e2062696400000000000000000000000000000000000000000000600082015250565b7f5072696365206d75737420626520657175616c20746f206c697374207072696360008201527f6500000000000000000000000000000000000000000000000000000000000000602082015250565b7f5072696365206d75737420626520686967686572207468616e20302077656900600082015250565b7f4f776e61626c653a2063616c6c6572206973206e6f7420746865206f776e6572600082015250565b7f5265656e7472616e637947756172643a207265656e7472616e742063616c6c00600082015250565b7f62696464696e6720776173206f76657200000000000000000000000000000000600082015250565b7f42696464696e672070726963652063616e206e6f74206265206c65737320746860008201527f616e206f7220657175616c20746f206869676865737420707269636500000000602082015250565b7f646f6573206e6f7420657175616c20746f207072696365000000000000000000600082015250565b61321781612daa565b811461322257600080fd5b50565b61322e81612dce565b811461323957600080fd5b50565b61324581612dfa565b811461325057600080fd5b5056fea26469706673582212208381b7befd6aa238712a16b0311bcd91fa14aa775d0386c6a28009ee88c5c47b64736f6c63430008070033",
  "immutableReferences": {},
  "source": "// SPDX-License-Identifier: MIT\r\npragma solidity ^0.8.0;\r\n\r\nimport \"@openzeppelin/contracts/utils/Counters.sol\";\r\nimport \"@openzeppelin/contracts/security/ReentrancyGuard.sol\";\r\nimport \"@openzeppelin/contracts/token/ERC721/ERC721.sol\";\r\nimport \"@openzeppelin/contracts/access/Ownable.sol\";\r\n\r\ncontract NFTMarket is ReentrancyGuard, Ownable {\r\n    using Counters for Counters.Counter;\r\n    Counters.Counter private _itemIds;\r\n    Counters.Counter private _itemsSold;\r\n    Counters.Counter private _itemsOnSale;\r\n    Counters.Counter private _OrgIds;\r\n\r\n    uint256 private listingPrice = 0.005 ether;\r\n\r\n    // define DonationItem struct\r\n    struct MarketItem {\r\n        uint itemId;\r\n        address nftContract;\r\n        uint256 tokenId;\r\n        address payable owner;\r\n        uint256 price;\r\n        bool bid;\r\n        bool sold;\r\n        address payable donateTo;\r\n        address payable highestBider;\r\n        uint256 bidingStart;\r\n        uint256 bidingEnd;\r\n    }\r\n    // define Organization struct\r\n    struct Organization{\r\n        uint256 id;\r\n        address orgAddress;\r\n        string name;\r\n    }\r\n\r\n    // map item token id to Donation Item\r\n    mapping(uint256 => MarketItem) private idToMarketItem;\r\n    mapping(uint256 => Organization) private idToOrgainzations;\r\n    mapping(address => bool) private orgExist;\r\n\r\n    //event when New Dontation Item is created\r\n    event MarketItemCreated (\r\n        uint indexed itemId,\r\n        address indexed nftContract,\r\n        uint256 indexed tokenId,\r\n        address owner,\r\n        uint256 price,\r\n        bool sold\r\n    );\r\n    //event when new Organizaion is created\r\n    event newOrgCreated(\r\n        uint256 id, \r\n        address _orgAddress, \r\n        string _orgName\r\n        );\r\n    //event when exist organization is deleted\r\n    event orgDeleted(\r\n        uint256 id, \r\n        address _orgAddress, \r\n        string _orgName\r\n    );\r\n    // add an Organization \r\n    function addOrganization(address _orgAddress, string memory _orgName) public onlyOwner returns(uint256){\r\n        //check if org alreay exist\r\n        require(orgExist[_orgAddress] == false,\"Organization is already exist\");\r\n        //get orgId of current\r\n        uint256 newTokenId = _OrgIds.current();\r\n        //set if to Organization\r\n        idToOrgainzations[newTokenId] = Organization(newTokenId, _orgAddress, _orgName);\r\n        //emit newOrgCreated event\r\n        emit newOrgCreated(newTokenId, _orgAddress, _orgName);\r\n        //increase orgId \r\n        _OrgIds.increment();\r\n        //org exist now\r\n        orgExist[_orgAddress] = true;\r\n        //return for front-end\r\n        return newTokenId;\r\n    }\r\n\r\n    //delete an Organization\r\n    function deleteOrgainzation(uint256 _tokenId) public onlyOwner{\r\n        //require(idToOrgainzations[_tokenId],\"This orgization does not exist\");\r\n        emit newOrgCreated(_tokenId, idToOrgainzations[_tokenId].orgAddress, idToOrgainzations[_tokenId].name);\r\n        delete idToOrgainzations[_tokenId];\r\n    }\r\n\r\n    //get Organization address by id\r\n    function getOrgAddressById(uint256 _tokenId) public view returns(address){\r\n        return idToOrgainzations[_tokenId].orgAddress;\r\n    }\r\n\r\n    //fetch all organization\r\n    function fetchOrganization() public view returns(Organization[] memory){\r\n        uint totalNumOfOrg = _OrgIds.current();\r\n        uint currentIndex = 0;\r\n        Organization[] memory orgs = new Organization[](totalNumOfOrg);\r\n        \r\n        for(uint i=0; i<totalNumOfOrg; i++){\r\n            uint currentId = idToOrgainzations[i].id;\r\n            Organization storage currentOrg = idToOrgainzations [currentId];\r\n            orgs[currentIndex] = currentOrg;\r\n            currentIndex += 1;\r\n        }\r\n        return orgs;\r\n    }\r\n////////////////////////////////////////////////////////////////////////////////////////////////\r\n    /* Returns the listing price of the contract */\r\n    function getListingPrice() public view returns (uint256) {\r\n        return listingPrice;\r\n    }\r\n    // Setting New Listing Price around 1500 won\r\n    function setListingPrice(uint _newListingPrice) public onlyOwner {\r\n        listingPrice = _newListingPrice;\r\n    }\r\n    // Creating a new Donation Item\r\n    function createMarketItem(\r\n        address nftContract, \r\n        uint256 tokenId, \r\n        uint256 price,\r\n        address _donateToWho,\r\n        bool _bid,\r\n        uint256 _biddingTime\r\n    ) public payable nonReentrant {\r\n        require(price > 0, \"Price must be higher than 0 wei\");\r\n        require(msg.value == listingPrice,\"Price must be equal to list price\");\r\n        \r\n        uint256 itemId = _itemIds.current();\r\n        idToMarketItem[itemId] = MarketItem(\r\n            itemId,\r\n            nftContract,\r\n            tokenId,\r\n            payable(msg.sender),\r\n            price,\r\n            _bid,\r\n            false,\r\n            payable(_donateToWho),\r\n            payable(address(0)),\r\n            block.timestamp,\r\n            block.timestamp + _biddingTime\r\n        );\r\n        // if(_bid == true){\r\n        //     placeBid(itemId);\r\n        // }\r\n        IERC721(nftContract).transferFrom(msg.sender, address(this), tokenId);\r\n        _itemIds.increment();\r\n        payable(owner()).transfer(msg.value);\r\n\r\n        emit MarketItemCreated(\r\n            itemId, \r\n            nftContract, \r\n            tokenId, \r\n            msg.sender, \r\n            price, \r\n            false\r\n        );\r\n    }\r\n\r\n    //Sell Item\r\n    function createMarketSale(\r\n        address nftContract, \r\n        uint256 _itemId\r\n    ) public payable nonReentrant {\r\n        //get item Price\r\n        uint price = idToMarketItem[_itemId].price;\r\n        //get item Id\r\n        uint tokenId = idToMarketItem[_itemId].tokenId;\r\n        //check Item price is equal to mag.value\r\n        require(msg.value == price,\"does not equal to price\");\r\n        \r\n        //calculate ethers to owner\r\n        uint priceToOwner = (msg.value)/10 * 1;\r\n        //calculate ethers to Org\r\n        uint priceToOrg = ((msg.value)/10) * 9;\r\n        //send ethers to owner and donated Org\r\n        idToMarketItem[_itemId].owner.transfer(priceToOwner);\r\n        idToMarketItem[_itemId].donateTo.transfer(priceToOrg);\r\n        //change the ownership of token to buyer\r\n        IERC721(nftContract).transferFrom(address(this), msg.sender, tokenId);\r\n        idToMarketItem[_itemId].owner = payable(msg.sender);\r\n        idToMarketItem[_itemId].sold = true;\r\n        _itemsSold.increment();\r\n        //payable(owner).transfer(listingPrice);\r\n    }\r\n////////////////////////////////////////////////////////////////////////////////////////////////\r\n    function placeBid(uint256 _itemId) public payable {\r\n        require(idToMarketItem[_itemId].bid == true, \"not on bid\");\r\n        require(idToMarketItem[_itemId].price < msg.value, \"Bidding price can not be less than or equal to highest price\");\r\n        require(block.timestamp <= idToMarketItem[_itemId].bidingEnd, \"bidding was over\");\r\n        require(msg.sender != idToMarketItem[_itemId].owner);\r\n\r\n        idToMarketItem[_itemId].highestBider == msg.sender;\r\n        idToMarketItem[_itemId].price == msg.value;\r\n    }\r\n////////////////////////////////////////////////////////////////////////////////////////////////\r\n    //fetch marketItem for frontEnd\r\n    function fetchMarketItems() public view returns (MarketItem[] memory){\r\n        uint itemCount = _itemIds.current();\r\n        uint unsoldItemCount = _itemsOnSale.current() - _itemsSold.current();\r\n        uint currentIndex = 0;\r\n        \r\n        MarketItem[] memory items = new MarketItem[](unsoldItemCount);\r\n        for(uint i=0;i<itemCount;i++){\r\n            if(idToMarketItem[i].sold == false){\r\n                uint currentId = idToMarketItem[i].itemId;\r\n                MarketItem storage currentItem = idToMarketItem [currentId];\r\n                items[currentIndex] = currentItem;\r\n                currentIndex += 1;\r\n            }\r\n        }\r\n        return items;\r\n    }\r\n\r\n    //fetch NFTs that msg.sender owns\r\n    function fetchMyNFTs() public view returns (MarketItem[] memory){\r\n        uint totalItemCount = _itemIds.current();\r\n        uint itemCount = 0;\r\n        uint currentIndex = 0;\r\n        for(uint i = 0; i<totalItemCount; i++){\r\n            if(idToMarketItem[i].owner == msg.sender){\r\n                itemCount += 1;\r\n            }\r\n        }\r\n        MarketItem[] memory items = new MarketItem[](itemCount);\r\n        for(uint i = 0; i<totalItemCount; i++){\r\n            if(idToMarketItem[i].owner == msg.sender){\r\n                uint currentId = idToMarketItem[i].itemId;\r\n                MarketItem storage currentItem = idToMarketItem[currentId];\r\n                items[currentIndex] = currentItem;\r\n                currentIndex += 1;\r\n            }\r\n        }\r\n        return items;\r\n    }\r\n    \r\n    function fetchBidItems() public view returns(MarketItem[] memory) {\r\n        uint totalItemCount = _itemIds.current();\r\n        uint itemCount = 0;\r\n        uint currentIndex = 0;\r\n        for(uint i = 0; i<totalItemCount; i++){\r\n            if(idToMarketItem[i].bid == true){\r\n                itemCount += 1;\r\n            }\r\n        }\r\n        MarketItem[] memory items = new MarketItem[](itemCount);\r\n        for(uint i = 0; i<totalItemCount; i++){\r\n            if(idToMarketItem[i].bid == true){\r\n                uint currentId = idToMarketItem[i].itemId;\r\n                MarketItem storage currentItem = idToMarketItem[currentId];\r\n                items[currentIndex] = currentItem;\r\n                currentIndex += 1;\r\n            }\r\n        }\r\n        return items;\r\n    }\r\n\r\n\r\n    \r\n}",
  "sourcePath": "C:\\Users\\holyh\\code\\projects_Dapp\\MilalNFTMarket\\contracts\\NFTMarket.sol",
  "compiler": {
    "name": "solc",
    "version": "0.8.7+commit.e28d00a7.Emscripten.clang"
  },
  "schemaVersion": "3.4.2",
  "updatedAt": "2021-09-24T15:27:37.818Z",
  "networkType": "ethereum",
  "devdoc": {
    "kind": "dev",
    "methods": {
      "owner()": {
        "details": "Returns the address of the current owner."
      },
      "renounceOwnership()": {
        "details": "Leaves the contract without owner. It will not be possible to call `onlyOwner` functions anymore. Can only be called by the current owner. NOTE: Renouncing ownership will leave the contract without an owner, thereby removing any functionality that is only available to the owner."
      },
      "transferOwnership(address)": {
        "details": "Transfers ownership of the contract to a new account (`newOwner`). Can only be called by the current owner."
      }
    },
    "version": 1
  },
  "userdoc": {
    "kind": "user",
    "methods": {},
    "version": 1
  }
}