{
  "contractName": "OrganizationControl",
  "abi": [
    {
      "anonymous": false,
      "inputs": [
        {
          "indexed": true,
          "internalType": "address",
          "name": "previousOwner",
          "type": "address"
        },
        {
          "indexed": true,
          "internalType": "address",
          "name": "newOwner",
          "type": "address"
        }
      ],
      "name": "OwnershipTransferred",
      "type": "event"
    },
    {
      "anonymous": false,
      "inputs": [
        {
          "indexed": false,
          "internalType": "uint256",
          "name": "id",
          "type": "uint256"
        },
        {
          "indexed": false,
          "internalType": "address",
          "name": "_orgAddress",
          "type": "address"
        },
        {
          "indexed": false,
          "internalType": "string",
          "name": "_orgName",
          "type": "string"
        }
      ],
      "name": "newOrgCreated",
      "type": "event"
    },
    {
      "anonymous": false,
      "inputs": [
        {
          "indexed": false,
          "internalType": "uint256",
          "name": "id",
          "type": "uint256"
        },
        {
          "indexed": false,
          "internalType": "address",
          "name": "_orgAddress",
          "type": "address"
        },
        {
          "indexed": false,
          "internalType": "string",
          "name": "_orgName",
          "type": "string"
        }
      ],
      "name": "orgDeleted",
      "type": "event"
    },
    {
      "inputs": [],
      "name": "orgNumCount",
      "outputs": [
        {
          "internalType": "uint256",
          "name": "",
          "type": "uint256"
        }
      ],
      "stateMutability": "view",
      "type": "function"
    },
    {
      "inputs": [
        {
          "internalType": "uint256",
          "name": "",
          "type": "uint256"
        }
      ],
      "name": "orgainzations",
      "outputs": [
        {
          "internalType": "uint256",
          "name": "id",
          "type": "uint256"
        },
        {
          "internalType": "address",
          "name": "orgAddress",
          "type": "address"
        },
        {
          "internalType": "string",
          "name": "name",
          "type": "string"
        },
        {
          "internalType": "bool",
          "name": "exist",
          "type": "bool"
        }
      ],
      "stateMutability": "view",
      "type": "function"
    },
    {
      "inputs": [],
      "name": "owner",
      "outputs": [
        {
          "internalType": "address",
          "name": "",
          "type": "address"
        }
      ],
      "stateMutability": "view",
      "type": "function"
    },
    {
      "inputs": [],
      "name": "renounceOwnership",
      "outputs": [],
      "stateMutability": "nonpayable",
      "type": "function"
    },
    {
      "inputs": [
        {
          "internalType": "address",
          "name": "newOwner",
          "type": "address"
        }
      ],
      "name": "transferOwnership",
      "outputs": [],
      "stateMutability": "nonpayable",
      "type": "function"
    },
    {
      "inputs": [
        {
          "internalType": "address",
          "name": "_orgAddress",
          "type": "address"
        },
        {
          "internalType": "string",
          "name": "_orgName",
          "type": "string"
        }
      ],
      "name": "addOrganization",
      "outputs": [],
      "stateMutability": "nonpayable",
      "type": "function"
    },
    {
      "inputs": [
        {
          "internalType": "uint256",
          "name": "_tokenId",
          "type": "uint256"
        }
      ],
      "name": "deleteOrgainzation",
      "outputs": [],
      "stateMutability": "nonpayable",
      "type": "function"
    },
    {
      "inputs": [
        {
          "internalType": "uint256",
          "name": "_tokenId",
          "type": "uint256"
        }
      ],
      "name": "getOrgAddressById",
      "outputs": [
        {
          "internalType": "address",
          "name": "",
          "type": "address"
        }
      ],
      "stateMutability": "view",
      "type": "function"
    },
    {
      "inputs": [],
      "name": "fetchOrgs",
      "outputs": [],
      "stateMutability": "nonpayable",
      "type": "function"
    }
  ],
  "bytecode": "0x608060405234801561001057600080fd5b5061002d61002261003260201b60201c565b61003a60201b60201c565b6100fe565b600033905090565b60008060009054906101000a900473ffffffffffffffffffffffffffffffffffffffff169050816000806101000a81548173ffffffffffffffffffffffffffffffffffffffff021916908373ffffffffffffffffffffffffffffffffffffffff1602179055508173ffffffffffffffffffffffffffffffffffffffff168173ffffffffffffffffffffffffffffffffffffffff167f8be0079c531659141344cd1fd0a4f28419497f9722a3daafe3b4186f6b6457e060405160405180910390a35050565b61119a8061010d6000396000f3fe608060405234801561001057600080fd5b50600436106100935760003560e01c80637372a400116100665780637372a400146101215780638da5cb5b1461013f5780639fe0047b1461015d578063b6cbb28f14610167578063f2fde38b1461018357610093565b80635296598c146100985780635b29443e146100c85780636867478a146100fb578063715018a614610117575b600080fd5b6100b260048036038101906100ad9190610b22565b61019f565b6040516100bf9190610c9e565b60405180910390f35b6100e260048036038101906100dd9190610b22565b6101df565b6040516100f29493929190610d72565b60405180910390f35b61011560048036038101906101109190610ac6565b6102c4565b005b61011f610492565b005b61012961051a565b6040516101369190610d19565b60405180910390f35b610147610520565b6040516101549190610c9e565b60405180910390f35b610165610549565b005b610181600480360381019061017c9190610b22565b61054b565b005b61019d60048036038101906101989190610a99565b610734565b005b60006002600083815260200190815260200160002060010160009054906101000a900473ffffffffffffffffffffffffffffffffffffffff169050919050565b60026020528060005260406000206000915090508060000154908060010160009054906101000a900473ffffffffffffffffffffffffffffffffffffffff169080600201805461022e90610f37565b80601f016020809104026020016040519081016040528092919081815260200182805461025a90610f37565b80156102a75780601f1061027c576101008083540402835291602001916102a7565b820191906000526020600020905b81548152906001019060200180831161028a57829003601f168201915b5050505050908060030160009054906101000a900460ff16905084565b6102cc61082c565b73ffffffffffffffffffffffffffffffffffffffff166102ea610520565b73ffffffffffffffffffffffffffffffffffffffff1614610340576040517f08c379a000000000000000000000000000000000000000000000000000000000815260040161033790610cd9565b60405180910390fd5b600061034c6001610834565b9050604051806080016040528060035481526020018473ffffffffffffffffffffffffffffffffffffffff16815260200183815260200160011515815250600260008381526020019081526020016000206000820151816000015560208201518160010160006101000a81548173ffffffffffffffffffffffffffffffffffffffff021916908373ffffffffffffffffffffffffffffffffffffffff160217905550604082015181600201908051906020019061040a92919061091c565b5060608201518160030160006101000a81548160ff0219169083151502179055509050507f8e3149d65a2b302cac071680086a826a48959636bf6abecb36e151b419621f75600354848460405161046393929190610d34565b60405180910390a16003600081548092919061047e90610f9a565b919050555061048d6001610842565b505050565b61049a61082c565b73ffffffffffffffffffffffffffffffffffffffff166104b8610520565b73ffffffffffffffffffffffffffffffffffffffff161461050e576040517f08c379a000000000000000000000000000000000000000000000000000000000815260040161050590610cd9565b60405180910390fd5b6105186000610858565b565b60035481565b60008060009054906101000a900473ffffffffffffffffffffffffffffffffffffffff16905090565b565b61055361082c565b73ffffffffffffffffffffffffffffffffffffffff16610571610520565b73ffffffffffffffffffffffffffffffffffffffff16146105c7576040517f08c379a00000000000000000000000000000000000000000000000000000000081526004016105be90610cd9565b60405180910390fd5b6002600082815260200190815260200160002060030160009054906101000a900460ff1661062a576040517f08c379a000000000000000000000000000000000000000000000000000000000815260040161062190610cf9565b60405180910390fd5b7f8e3149d65a2b302cac071680086a826a48959636bf6abecb36e151b419621f75816002600084815260200190815260200160002060010160009054906101000a900473ffffffffffffffffffffffffffffffffffffffff16600260008581526020019081526020016000206002016040516106a893929190610dbe565b60405180910390a1600260008281526020019081526020016000206000808201600090556001820160006101000a81549073ffffffffffffffffffffffffffffffffffffffff021916905560028201600061070391906109a2565b6003820160006101000a81549060ff021916905550506003600081548092919061072c90610f0d565b919050555050565b61073c61082c565b73ffffffffffffffffffffffffffffffffffffffff1661075a610520565b73ffffffffffffffffffffffffffffffffffffffff16146107b0576040517f08c379a00000000000000000000000000000000000000000000000000000000081526004016107a790610cd9565b60405180910390fd5b600073ffffffffffffffffffffffffffffffffffffffff168173ffffffffffffffffffffffffffffffffffffffff161415610820576040517f08c379a000000000000000000000000000000000000000000000000000000000815260040161081790610cb9565b60405180910390fd5b61082981610858565b50565b600033905090565b600081600001549050919050565b6001816000016000828254019250508190555050565b60008060009054906101000a900473ffffffffffffffffffffffffffffffffffffffff169050816000806101000a81548173ffffffffffffffffffffffffffffffffffffffff021916908373ffffffffffffffffffffffffffffffffffffffff1602179055508173ffffffffffffffffffffffffffffffffffffffff168173ffffffffffffffffffffffffffffffffffffffff167f8be0079c531659141344cd1fd0a4f28419497f9722a3daafe3b4186f6b6457e060405160405180910390a35050565b82805461092890610f37565b90600052602060002090601f01602090048101928261094a5760008555610991565b82601f1061096357805160ff1916838001178555610991565b82800160010185558215610991579182015b82811115610990578251825591602001919060010190610975565b5b50905061099e91906109e2565b5090565b5080546109ae90610f37565b6000825580601f106109c057506109df565b601f0160209004906000526020600020908101906109de91906109e2565b5b50565b5b808211156109fb5760008160009055506001016109e3565b5090565b6000610a12610a0d84610e21565b610dfc565b905082815260208101848484011115610a2e57610a2d611075565b5b610a39848285610ecb565b509392505050565b600081359050610a5081611136565b92915050565b600082601f830112610a6b57610a6a611070565b5b8135610a7b8482602086016109ff565b91505092915050565b600081359050610a938161114d565b92915050565b600060208284031215610aaf57610aae61107f565b5b6000610abd84828501610a41565b91505092915050565b60008060408385031215610add57610adc61107f565b5b6000610aeb85828601610a41565b925050602083013567ffffffffffffffff811115610b0c57610b0b61107a565b5b610b1885828601610a56565b9150509250929050565b600060208284031215610b3857610b3761107f565b5b6000610b4684828501610a84565b91505092915050565b610b5881610e83565b82525050565b610b6781610e95565b82525050565b6000610b7882610e67565b610b828185610e72565b9350610b92818560208601610eda565b610b9b81611084565b840191505092915050565b60008154610bb381610f37565b610bbd8186610e72565b94506001821660008114610bd85760018114610bea57610c1d565b60ff1983168652602086019350610c1d565b610bf385610e52565b60005b83811015610c1557815481890152600182019150602081019050610bf6565b808801955050505b50505092915050565b6000610c33602683610e72565b9150610c3e82611095565b604082019050919050565b6000610c56602083610e72565b9150610c61826110e4565b602082019050919050565b6000610c79601e83610e72565b9150610c848261110d565b602082019050919050565b610c9881610ec1565b82525050565b6000602082019050610cb36000830184610b4f565b92915050565b60006020820190508181036000830152610cd281610c26565b9050919050565b60006020820190508181036000830152610cf281610c49565b9050919050565b60006020820190508181036000830152610d1281610c6c565b9050919050565b6000602082019050610d2e6000830184610c8f565b92915050565b6000606082019050610d496000830186610c8f565b610d566020830185610b4f565b8181036040830152610d688184610b6d565b9050949350505050565b6000608082019050610d876000830187610c8f565b610d946020830186610b4f565b8181036040830152610da68185610b6d565b9050610db56060830184610b5e565b95945050505050565b6000606082019050610dd36000830186610c8f565b610de06020830185610b4f565b8181036040830152610df28184610ba6565b9050949350505050565b6000610e06610e17565b9050610e128282610f69565b919050565b6000604051905090565b600067ffffffffffffffff821115610e3c57610e3b611041565b5b610e4582611084565b9050602081019050919050565b60008190508160005260206000209050919050565b600081519050919050565b600082825260208201905092915050565b6000610e8e82610ea1565b9050919050565b60008115159050919050565b600073ffffffffffffffffffffffffffffffffffffffff82169050919050565b6000819050919050565b82818337600083830152505050565b60005b83811015610ef8578082015181840152602081019050610edd565b83811115610f07576000848401525b50505050565b6000610f1882610ec1565b91506000821415610f2c57610f2b610fe3565b5b600182039050919050565b60006002820490506001821680610f4f57607f821691505b60208210811415610f6357610f62611012565b5b50919050565b610f7282611084565b810181811067ffffffffffffffff82111715610f9157610f90611041565b5b80604052505050565b6000610fa582610ec1565b91507fffffffffffffffffffffffffffffffffffffffffffffffffffffffffffffffff821415610fd857610fd7610fe3565b5b600182019050919050565b7f4e487b7100000000000000000000000000000000000000000000000000000000600052601160045260246000fd5b7f4e487b7100000000000000000000000000000000000000000000000000000000600052602260045260246000fd5b7f4e487b7100000000000000000000000000000000000000000000000000000000600052604160045260246000fd5b600080fd5b600080fd5b600080fd5b600080fd5b6000601f19601f8301169050919050565b7f4f776e61626c653a206e6577206f776e657220697320746865207a65726f206160008201527f6464726573730000000000000000000000000000000000000000000000000000602082015250565b7f4f776e61626c653a2063616c6c6572206973206e6f7420746865206f776e6572600082015250565b7f54686973206f7267697a6174696f6e20646f6573206e6f742065786973740000600082015250565b61113f81610e83565b811461114a57600080fd5b50565b61115681610ec1565b811461116157600080fd5b5056fea2646970667358221220b5d79c240296b14d6f8ff228e0f1394064b7e0eb6d2368cd6623f15be39701fc64736f6c63430008070033",
  "immutableReferences": {},
  "source": "// SPDX-License-Identifier: MIT\r\npragma solidity ^0.8.0;\r\n\r\nimport \"@openzeppelin/contracts/access/Ownable.sol\";\r\nimport \"@openzeppelin/contracts/utils/Counters.sol\";\r\n\r\ncontract OrganizationControl is Ownable{\r\n\r\n    using Counters for Counters.Counter;\r\n    Counters.Counter private _tokenIds;\r\n\r\n    struct Organization{\r\n        uint256 id;\r\n        address orgAddress;\r\n        string name;\r\n        bool exist;\r\n    }\r\n\r\n    event newOrgCreated(uint256 id, address _orgAddress, string _orgName);\r\n    event orgDeleted(uint256 id, address _orgAddress, string _orgName);\r\n\r\n    mapping(uint256 => Organization) public orgainzations;\r\n    \r\n    uint256 public orgNumCount;\r\n    \r\n    modifier onlyToOrganization(uint256 _orgId){\r\n        require(orgainzations[_orgId].exist);\r\n        _;\r\n    }\r\n    \r\n    function addOrganization(address _orgAddress, string memory _orgName) public onlyOwner{\r\n        uint256 newtokenId = _tokenIds.current();\r\n        orgainzations[newtokenId] = Organization(orgNumCount, _orgAddress, _orgName, true);\r\n        emit newOrgCreated(orgNumCount, _orgAddress, _orgName);\r\n        orgNumCount++;\r\n        _tokenIds.increment();\r\n        \r\n    }\r\n    \r\n    function deleteOrgainzation(uint256 _tokenId) public onlyOwner{\r\n        require(orgainzations[_tokenId].exist,\"This orgization does not exist\");\r\n        emit newOrgCreated(_tokenId, orgainzations[_tokenId].orgAddress, orgainzations[_tokenId].name);\r\n        delete orgainzations[_tokenId];\r\n        orgNumCount--;\r\n    }\r\n    \r\n    function getOrgAddressById(uint256 _tokenId) public view returns(address){\r\n        return orgainzations[_tokenId].orgAddress;\r\n    }\r\n    function fetchOrgs() public {\r\n\r\n    }\r\n\r\n}",
  "sourcePath": "C:\\Users\\holyh\\code\\projects_Dapp\\MilalNFTMarket\\contracts\\OrganizationControl.sol",
  "compiler": {
    "name": "solc",
    "version": "0.8.7+commit.e28d00a7.Emscripten.clang"
  },
  "schemaVersion": "3.4.2",
  "updatedAt": "2021-08-18T06:41:04.554Z",
  "devdoc": {
    "kind": "dev",
    "methods": {
      "owner()": {
        "details": "Returns the address of the current owner."
      },
      "renounceOwnership()": {
        "details": "Leaves the contract without owner. It will not be possible to call `onlyOwner` functions anymore. Can only be called by the current owner. NOTE: Renouncing ownership will leave the contract without an owner, thereby removing any functionality that is only available to the owner."
      },
      "transferOwnership(address)": {
        "details": "Transfers ownership of the contract to a new account (`newOwner`). Can only be called by the current owner."
      }
    },
    "version": 1
  },
  "userdoc": {
    "kind": "user",
    "methods": {},
    "version": 1
  }
}