{
  "contractName": "OrganizationControl",
  "abi": [
    {
      "inputs": [],
      "stateMutability": "nonpayable",
      "type": "constructor"
    },
    {
      "anonymous": false,
      "inputs": [
        {
          "indexed": true,
          "internalType": "address",
          "name": "previousOwner",
          "type": "address"
        },
        {
          "indexed": true,
          "internalType": "address",
          "name": "newOwner",
          "type": "address"
        }
      ],
      "name": "OwnershipTransferred",
      "type": "event"
    },
    {
      "anonymous": false,
      "inputs": [
        {
          "indexed": false,
          "internalType": "uint256",
          "name": "id",
          "type": "uint256"
        },
        {
          "indexed": false,
          "internalType": "address",
          "name": "_orgAddress",
          "type": "address"
        },
        {
          "indexed": false,
          "internalType": "string",
          "name": "_orgName",
          "type": "string"
        }
      ],
      "name": "newOrgCreated",
      "type": "event"
    },
    {
      "anonymous": false,
      "inputs": [
        {
          "indexed": false,
          "internalType": "uint256",
          "name": "id",
          "type": "uint256"
        },
        {
          "indexed": false,
          "internalType": "address",
          "name": "_orgAddress",
          "type": "address"
        },
        {
          "indexed": false,
          "internalType": "string",
          "name": "_orgName",
          "type": "string"
        }
      ],
      "name": "orgDeleted",
      "type": "event"
    },
    {
      "inputs": [],
      "name": "orgNumCount",
      "outputs": [
        {
          "internalType": "uint8",
          "name": "",
          "type": "uint8"
        }
      ],
      "stateMutability": "view",
      "type": "function"
    },
    {
      "inputs": [
        {
          "internalType": "uint256",
          "name": "",
          "type": "uint256"
        }
      ],
      "name": "orgainzations",
      "outputs": [
        {
          "internalType": "uint256",
          "name": "id",
          "type": "uint256"
        },
        {
          "internalType": "address",
          "name": "orgAddress",
          "type": "address"
        },
        {
          "internalType": "string",
          "name": "name",
          "type": "string"
        },
        {
          "internalType": "uint256",
          "name": "totalValue",
          "type": "uint256"
        },
        {
          "internalType": "bool",
          "name": "exist",
          "type": "bool"
        }
      ],
      "stateMutability": "view",
      "type": "function"
    },
    {
      "inputs": [],
      "name": "owner",
      "outputs": [
        {
          "internalType": "address",
          "name": "",
          "type": "address"
        }
      ],
      "stateMutability": "view",
      "type": "function"
    },
    {
      "inputs": [],
      "name": "renounceOwnership",
      "outputs": [],
      "stateMutability": "nonpayable",
      "type": "function"
    },
    {
      "inputs": [],
      "name": "tokenIds",
      "outputs": [
        {
          "internalType": "uint256",
          "name": "",
          "type": "uint256"
        }
      ],
      "stateMutability": "view",
      "type": "function"
    },
    {
      "inputs": [
        {
          "internalType": "address",
          "name": "newOwner",
          "type": "address"
        }
      ],
      "name": "transferOwnership",
      "outputs": [],
      "stateMutability": "nonpayable",
      "type": "function"
    },
    {
      "inputs": [
        {
          "internalType": "address",
          "name": "_orgAddress",
          "type": "address"
        },
        {
          "internalType": "string",
          "name": "_orgName",
          "type": "string"
        }
      ],
      "name": "addOrganization",
      "outputs": [],
      "stateMutability": "nonpayable",
      "type": "function"
    },
    {
      "inputs": [
        {
          "internalType": "uint256",
          "name": "_tokenIds",
          "type": "uint256"
        }
      ],
      "name": "deleteOrgainzation",
      "outputs": [],
      "stateMutability": "nonpayable",
      "type": "function"
    },
    {
      "inputs": [
        {
          "internalType": "uint256",
          "name": "_tokenIds",
          "type": "uint256"
        }
      ],
      "name": "getOrgAddressById",
      "outputs": [
        {
          "internalType": "address",
          "name": "",
          "type": "address"
        }
      ],
      "stateMutability": "view",
      "type": "function"
    }
  ],
  "bytecode": "0x608060405234801561001057600080fd5b5061002d61002261003260201b60201c565b61003a60201b60201c565b6100fe565b600033905090565b60008060009054906101000a900473ffffffffffffffffffffffffffffffffffffffff169050816000806101000a81548173ffffffffffffffffffffffffffffffffffffffff021916908373ffffffffffffffffffffffffffffffffffffffff1602179055508173ffffffffffffffffffffffffffffffffffffffff168173ffffffffffffffffffffffffffffffffffffffff167f8be0079c531659141344cd1fd0a4f28419497f9722a3daafe3b4186f6b6457e060405160405180910390a35050565b6112a98061010d6000396000f3fe608060405234801561001057600080fd5b50600436106100935760003560e01c8063715018a611610066578063715018a6146101365780637372a400146101405780638da5cb5b1461015e578063b6cbb28f1461017c578063f2fde38b1461019857610093565b80635296598c146100985780635b29443e146100c85780636867478a146100fc578063714cff5614610118575b600080fd5b6100b260048036038101906100ad9190610ba1565b6101b4565b6040516100bf9190610d3b565b60405180910390f35b6100e260048036038101906100dd9190610ba1565b6101f4565b6040516100f3959493929190610dd1565b60405180910390f35b61011660048036038101906101119190610b45565b6102df565b005b6101206104fc565b60405161012d9190610db6565b60405180910390f35b61013e610502565b005b61014861058a565b6040516101559190610e69565b60405180910390f35b61016661059d565b6040516101739190610d3b565b60405180910390f35b61019660048036038101906101919190610ba1565b6105c6565b005b6101b260048036038101906101ad9190610b18565b6107d7565b005b60006001600083815260200190815260200160002060010160009054906101000a900473ffffffffffffffffffffffffffffffffffffffff169050919050565b60016020528060005260406000206000915090508060000154908060010160009054906101000a900473ffffffffffffffffffffffffffffffffffffffff16908060020180546102439061101c565b80601f016020809104026020016040519081016040528092919081815260200182805461026f9061101c565b80156102bc5780601f10610291576101008083540402835291602001916102bc565b820191906000526020600020905b81548152906001019060200180831161029f57829003601f168201915b5050505050908060030154908060040160009054906101000a900460ff16905085565b6102e76108cf565b73ffffffffffffffffffffffffffffffffffffffff1661030561059d565b73ffffffffffffffffffffffffffffffffffffffff161461035b576040517f08c379a000000000000000000000000000000000000000000000000000000000815260040161035290610d76565b60405180910390fd5b6040518060a00160405280600260009054906101000a900460ff1660ff1681526020018373ffffffffffffffffffffffffffffffffffffffff16815260200182815260200160008152602001600115158152506001600060035481526020019081526020016000206000820151816000015560208201518160010160006101000a81548173ffffffffffffffffffffffffffffffffffffffff021916908373ffffffffffffffffffffffffffffffffffffffff160217905550604082015181600201908051906020019061043092919061099b565b506060820151816003015560808201518160040160006101000a81548160ff0219169083151502179055509050507f8e3149d65a2b302cac071680086a826a48959636bf6abecb36e151b419621f75600260009054906101000a900460ff1683836040516104a093929190610e84565b60405180910390a16002600081819054906101000a900460ff16809291906104c7906110c8565b91906101000a81548160ff021916908360ff16021790555050600360008154809291906104f39061107f565b91905055505050565b60035481565b61050a6108cf565b73ffffffffffffffffffffffffffffffffffffffff1661052861059d565b73ffffffffffffffffffffffffffffffffffffffff161461057e576040517f08c379a000000000000000000000000000000000000000000000000000000000815260040161057590610d76565b60405180910390fd5b61058860006108d7565b565b600260009054906101000a900460ff1681565b60008060009054906101000a900473ffffffffffffffffffffffffffffffffffffffff16905090565b6105ce6108cf565b73ffffffffffffffffffffffffffffffffffffffff166105ec61059d565b73ffffffffffffffffffffffffffffffffffffffff1614610642576040517f08c379a000000000000000000000000000000000000000000000000000000000815260040161063990610d76565b60405180910390fd5b6001600082815260200190815260200160002060040160009054906101000a900460ff166106a5576040517f08c379a000000000000000000000000000000000000000000000000000000000815260040161069c90610d96565b60405180910390fd5b7f8e3149d65a2b302cac071680086a826a48959636bf6abecb36e151b419621f75816001600084815260200190815260200160002060010160009054906101000a900473ffffffffffffffffffffffffffffffffffffffff166001600085815260200190815260200160002060020160405161072393929190610e2b565b60405180910390a1600160008281526020019081526020016000206000808201600090556001820160006101000a81549073ffffffffffffffffffffffffffffffffffffffff021916905560028201600061077e9190610a21565b60038201600090556004820160006101000a81549060ff021916905550506002600081819054906101000a900460ff16809291906107bb90610ff2565b91906101000a81548160ff021916908360ff1602179055505050565b6107df6108cf565b73ffffffffffffffffffffffffffffffffffffffff166107fd61059d565b73ffffffffffffffffffffffffffffffffffffffff1614610853576040517f08c379a000000000000000000000000000000000000000000000000000000000815260040161084a90610d76565b60405180910390fd5b600073ffffffffffffffffffffffffffffffffffffffff168173ffffffffffffffffffffffffffffffffffffffff1614156108c3576040517f08c379a00000000000000000000000000000000000000000000000000000000081526004016108ba90610d56565b60405180910390fd5b6108cc816108d7565b50565b600033905090565b60008060009054906101000a900473ffffffffffffffffffffffffffffffffffffffff169050816000806101000a81548173ffffffffffffffffffffffffffffffffffffffff021916908373ffffffffffffffffffffffffffffffffffffffff1602179055508173ffffffffffffffffffffffffffffffffffffffff168173ffffffffffffffffffffffffffffffffffffffff167f8be0079c531659141344cd1fd0a4f28419497f9722a3daafe3b4186f6b6457e060405160405180910390a35050565b8280546109a79061101c565b90600052602060002090601f0160209004810192826109c95760008555610a10565b82601f106109e257805160ff1916838001178555610a10565b82800160010185558215610a10579182015b82811115610a0f5782518255916020019190600101906109f4565b5b509050610a1d9190610a61565b5090565b508054610a2d9061101c565b6000825580601f10610a3f5750610a5e565b601f016020900490600052602060002090810190610a5d9190610a61565b5b50565b5b80821115610a7a576000816000905550600101610a62565b5090565b6000610a91610a8c84610ee7565b610ec2565b905082815260208101848484011115610aad57610aac611184565b5b610ab8848285610fb0565b509392505050565b600081359050610acf81611245565b92915050565b600082601f830112610aea57610ae961117f565b5b8135610afa848260208601610a7e565b91505092915050565b600081359050610b128161125c565b92915050565b600060208284031215610b2e57610b2d61118e565b5b6000610b3c84828501610ac0565b91505092915050565b60008060408385031215610b5c57610b5b61118e565b5b6000610b6a85828601610ac0565b925050602083013567ffffffffffffffff811115610b8b57610b8a611189565b5b610b9785828601610ad5565b9150509250929050565b600060208284031215610bb757610bb661118e565b5b6000610bc584828501610b03565b91505092915050565b610bd781610f49565b82525050565b610be681610f5b565b82525050565b6000610bf782610f2d565b610c018185610f38565b9350610c11818560208601610fbf565b610c1a81611193565b840191505092915050565b60008154610c328161101c565b610c3c8186610f38565b94506001821660008114610c575760018114610c6957610c9c565b60ff1983168652602086019350610c9c565b610c7285610f18565b60005b83811015610c9457815481890152600182019150602081019050610c75565b808801955050505b50505092915050565b6000610cb2602683610f38565b9150610cbd826111a4565b604082019050919050565b6000610cd5602083610f38565b9150610ce0826111f3565b602082019050919050565b6000610cf8601e83610f38565b9150610d038261121c565b602082019050919050565b610d1781610f87565b82525050565b610d2681610f9e565b82525050565b610d3581610f91565b82525050565b6000602082019050610d506000830184610bce565b92915050565b60006020820190508181036000830152610d6f81610ca5565b9050919050565b60006020820190508181036000830152610d8f81610cc8565b9050919050565b60006020820190508181036000830152610daf81610ceb565b9050919050565b6000602082019050610dcb6000830184610d0e565b92915050565b600060a082019050610de66000830188610d0e565b610df36020830187610bce565b8181036040830152610e058186610bec565b9050610e146060830185610d0e565b610e216080830184610bdd565b9695505050505050565b6000606082019050610e406000830186610d0e565b610e4d6020830185610bce565b8181036040830152610e5f8184610c25565b9050949350505050565b6000602082019050610e7e6000830184610d2c565b92915050565b6000606082019050610e996000830186610d1d565b610ea66020830185610bce565b8181036040830152610eb88184610bec565b9050949350505050565b6000610ecc610edd565b9050610ed8828261104e565b919050565b6000604051905090565b600067ffffffffffffffff821115610f0257610f01611150565b5b610f0b82611193565b9050602081019050919050565b60008190508160005260206000209050919050565b600081519050919050565b600082825260208201905092915050565b6000610f5482610f67565b9050919050565b60008115159050919050565b600073ffffffffffffffffffffffffffffffffffffffff82169050919050565b6000819050919050565b600060ff82169050919050565b6000610fa982610f91565b9050919050565b82818337600083830152505050565b60005b83811015610fdd578082015181840152602081019050610fc2565b83811115610fec576000848401525b50505050565b6000610ffd82610f91565b91506000821415611011576110106110f2565b5b600182039050919050565b6000600282049050600182168061103457607f821691505b6020821081141561104857611047611121565b5b50919050565b61105782611193565b810181811067ffffffffffffffff8211171561107657611075611150565b5b80604052505050565b600061108a82610f87565b91507fffffffffffffffffffffffffffffffffffffffffffffffffffffffffffffffff8214156110bd576110bc6110f2565b5b600182019050919050565b60006110d382610f91565b915060ff8214156110e7576110e66110f2565b5b600182019050919050565b7f4e487b7100000000000000000000000000000000000000000000000000000000600052601160045260246000fd5b7f4e487b7100000000000000000000000000000000000000000000000000000000600052602260045260246000fd5b7f4e487b7100000000000000000000000000000000000000000000000000000000600052604160045260246000fd5b600080fd5b600080fd5b600080fd5b600080fd5b6000601f19601f8301169050919050565b7f4f776e61626c653a206e6577206f776e657220697320746865207a65726f206160008201527f6464726573730000000000000000000000000000000000000000000000000000602082015250565b7f4f776e61626c653a2063616c6c6572206973206e6f7420746865206f776e6572600082015250565b7f54686973206f7267697a6174696f6e20646f6573206e6f742065786973740000600082015250565b61124e81610f49565b811461125957600080fd5b50565b61126581610f87565b811461127057600080fd5b5056fea2646970667358221220400a3c514fbb7d4c8015be12ee55aad692709775f290d3e27711010082a5612e64736f6c63430008070033",
  "immutableReferences": {},
  "source": "// SPDX-License-Identifier: MIT\r\npragma solidity ^0.8.0;\r\n\r\nimport \"@openzeppelin/contracts/access/Ownable.sol\";\r\n\r\ncontract OrganizationControl is Ownable{\r\n    \r\n    constructor(){\r\n\r\n    }\r\n    struct Organization{\r\n        uint256 id;\r\n        address orgAddress;\r\n        string name;\r\n        uint totalValue;\r\n        bool exist;\r\n    }\r\n\r\n    event newOrgCreated(uint256 id, address _orgAddress, string _orgName);\r\n    event orgDeleted(uint256 id, address _orgAddress, string _orgName);\r\n\r\n    mapping(uint256 => Organization) public orgainzations;\r\n    \r\n    uint8 public orgNumCount;\r\n    uint256 public tokenIds;\r\n    \r\n    modifier onlyToOrganization(string memory _orgName){\r\n        require(orgainzations[tokenIds].exist);\r\n        _;\r\n    }\r\n    \r\n    function addOrganization(address _orgAddress, string memory _orgName) public onlyOwner{\r\n        orgainzations[tokenIds] = Organization(orgNumCount, _orgAddress, _orgName, 0, true);\r\n        emit newOrgCreated(orgNumCount, _orgAddress, _orgName);\r\n        orgNumCount++;\r\n        tokenIds++;\r\n        \r\n    }\r\n    \r\n    function deleteOrgainzation(uint256 _tokenIds) public onlyOwner{\r\n        require(orgainzations[_tokenIds].exist,\"This orgization does not exist\");\r\n        emit newOrgCreated(_tokenIds, orgainzations[_tokenIds].orgAddress, orgainzations[_tokenIds].name);\r\n        delete orgainzations[_tokenIds];\r\n        orgNumCount--;\r\n    }\r\n    function getOrgAddressById(uint256 _tokenIds) public view returns(address){\r\n        return orgainzations[_tokenIds].orgAddress;\r\n    }\r\n\r\n\r\n}",
  "sourcePath": "C:\\Users\\holyh\\code\\projects_Dapp\\MilalNFTMarket\\contracts\\OrganizationControl.sol",
  "compiler": {
    "name": "solc",
    "version": "0.8.7+commit.e28d00a7.Emscripten.clang"
  },
  "schemaVersion": "3.4.2",
  "updatedAt": "2021-08-12T14:09:29.625Z",
  "devdoc": {
    "kind": "dev",
    "methods": {
      "owner()": {
        "details": "Returns the address of the current owner."
      },
      "renounceOwnership()": {
        "details": "Leaves the contract without owner. It will not be possible to call `onlyOwner` functions anymore. Can only be called by the current owner. NOTE: Renouncing ownership will leave the contract without an owner, thereby removing any functionality that is only available to the owner."
      },
      "transferOwnership(address)": {
        "details": "Transfers ownership of the contract to a new account (`newOwner`). Can only be called by the current owner."
      }
    },
    "version": 1
  },
  "userdoc": {
    "kind": "user",
    "methods": {},
    "version": 1
  }
}